{"abi":[{"type":"constructor","inputs":[],"stateMutability":"nonpayable"},{"type":"function","name":"DAILY_MINT_AMOUNT","inputs":[],"outputs":[{"name":"","type":"uint256","internalType":"uint256"}],"stateMutability":"view"},{"type":"function","name":"DEFAULT_ADMIN_ROLE","inputs":[],"outputs":[{"name":"","type":"bytes32","internalType":"bytes32"}],"stateMutability":"view"},{"type":"function","name":"MINTER_ROLE","inputs":[],"outputs":[{"name":"","type":"bytes32","internalType":"bytes32"}],"stateMutability":"view"},{"type":"function","name":"MINT_COOLDOWN","inputs":[],"outputs":[{"name":"","type":"uint256","internalType":"uint256"}],"stateMutability":"view"},{"type":"function","name":"PAUSER_ROLE","inputs":[],"outputs":[{"name":"","type":"bytes32","internalType":"bytes32"}],"stateMutability":"view"},{"type":"function","name":"STARTER_BONUS","inputs":[],"outputs":[{"name":"","type":"uint256","internalType":"uint256"}],"stateMutability":"view"},{"type":"function","name":"UPGRADE_INTERFACE_VERSION","inputs":[],"outputs":[{"name":"","type":"string","internalType":"string"}],"stateMutability":"view"},{"type":"function","name":"allowance","inputs":[{"name":"owner","type":"address","internalType":"address"},{"name":"spender","type":"address","internalType":"address"}],"outputs":[{"name":"","type":"uint256","internalType":"uint256"}],"stateMutability":"view"},{"type":"function","name":"approve","inputs":[{"name":"spender","type":"address","internalType":"address"},{"name":"value","type":"uint256","internalType":"uint256"}],"outputs":[{"name":"","type":"bool","internalType":"bool"}],"stateMutability":"nonpayable"},{"type":"function","name":"balanceOf","inputs":[{"name":"account","type":"address","internalType":"address"}],"outputs":[{"name":"","type":"uint256","internalType":"uint256"}],"stateMutability":"view"},{"type":"function","name":"canMintDaily","inputs":[{"name":"player","type":"address","internalType":"address"}],"outputs":[{"name":"","type":"bool","internalType":"bool"}],"stateMutability":"view"},{"type":"function","name":"dailyMint","inputs":[],"outputs":[],"stateMutability":"nonpayable"},{"type":"function","name":"decimals","inputs":[],"outputs":[{"name":"","type":"uint8","internalType":"uint8"}],"stateMutability":"view"},{"type":"function","name":"getRoleAdmin","inputs":[{"name":"role","type":"bytes32","internalType":"bytes32"}],"outputs":[{"name":"","type":"bytes32","internalType":"bytes32"}],"stateMutability":"view"},{"type":"function","name":"grantRole","inputs":[{"name":"role","type":"bytes32","internalType":"bytes32"},{"name":"account","type":"address","internalType":"address"}],"outputs":[],"stateMutability":"nonpayable"},{"type":"function","name":"hasReceivedStarter","inputs":[{"name":"player","type":"address","internalType":"address"}],"outputs":[{"name":"","type":"bool","internalType":"bool"}],"stateMutability":"view"},{"type":"function","name":"hasRole","inputs":[{"name":"role","type":"bytes32","internalType":"bytes32"},{"name":"account","type":"address","internalType":"address"}],"outputs":[{"name":"","type":"bool","internalType":"bool"}],"stateMutability":"view"},{"type":"function","name":"initialize","inputs":[{"name":"admin","type":"address","internalType":"address"}],"outputs":[],"stateMutability":"nonpayable"},{"type":"function","name":"lastMintTimestamp","inputs":[{"name":"player","type":"address","internalType":"address"}],"outputs":[{"name":"","type":"uint256","internalType":"uint256"}],"stateMutability":"view"},{"type":"function","name":"mint","inputs":[{"name":"to","type":"address","internalType":"address"},{"name":"amount","type":"uint256","internalType":"uint256"}],"outputs":[],"stateMutability":"nonpayable"},{"type":"function","name":"name","inputs":[],"outputs":[{"name":"","type":"string","internalType":"string"}],"stateMutability":"view"},{"type":"function","name":"pause","inputs":[],"outputs":[],"stateMutability":"nonpayable"},{"type":"function","name":"paused","inputs":[],"outputs":[{"name":"","type":"bool","internalType":"bool"}],"stateMutability":"view"},{"type":"function","name":"proxiableUUID","inputs":[],"outputs":[{"name":"","type":"bytes32","internalType":"bytes32"}],"stateMutability":"view"},{"type":"function","name":"registerPlayer","inputs":[{"name":"player","type":"address","internalType":"address"}],"outputs":[],"stateMutability":"nonpayable"},{"type":"function","name":"renounceRole","inputs":[{"name":"role","type":"bytes32","internalType":"bytes32"},{"name":"callerConfirmation","type":"address","internalType":"address"}],"outputs":[],"stateMutability":"nonpayable"},{"type":"function","name":"revokeRole","inputs":[{"name":"role","type":"bytes32","internalType":"bytes32"},{"name":"account","type":"address","internalType":"address"}],"outputs":[],"stateMutability":"nonpayable"},{"type":"function","name":"supportsInterface","inputs":[{"name":"interfaceId","type":"bytes4","internalType":"bytes4"}],"outputs":[{"name":"","type":"bool","internalType":"bool"}],"stateMutability":"view"},{"type":"function","name":"symbol","inputs":[],"outputs":[{"name":"","type":"string","internalType":"string"}],"stateMutability":"view"},{"type":"function","name":"totalSupply","inputs":[],"outputs":[{"name":"","type":"uint256","internalType":"uint256"}],"stateMutability":"view"},{"type":"function","name":"transfer","inputs":[{"name":"to","type":"address","internalType":"address"},{"name":"value","type":"uint256","internalType":"uint256"}],"outputs":[{"name":"","type":"bool","internalType":"bool"}],"stateMutability":"nonpayable"},{"type":"function","name":"transferFrom","inputs":[{"name":"from","type":"address","internalType":"address"},{"name":"to","type":"address","internalType":"address"},{"name":"value","type":"uint256","internalType":"uint256"}],"outputs":[{"name":"","type":"bool","internalType":"bool"}],"stateMutability":"nonpayable"},{"type":"function","name":"unpause","inputs":[],"outputs":[],"stateMutability":"nonpayable"},{"type":"function","name":"upgradeToAndCall","inputs":[{"name":"newImplementation","type":"address","internalType":"address"},{"name":"data","type":"bytes","internalType":"bytes"}],"outputs":[],"stateMutability":"payable"},{"type":"event","name":"Approval","inputs":[{"name":"owner","type":"address","indexed":true,"internalType":"address"},{"name":"spender","type":"address","indexed":true,"internalType":"address"},{"name":"value","type":"uint256","indexed":false,"internalType":"uint256"}],"anonymous":false},{"type":"event","name":"DailyMintClaimed","inputs":[{"name":"player","type":"address","indexed":true,"internalType":"address"},{"name":"amount","type":"uint256","indexed":false,"internalType":"uint256"},{"name":"timestamp","type":"uint256","indexed":false,"internalType":"uint256"}],"anonymous":false},{"type":"event","name":"Initialized","inputs":[{"name":"version","type":"uint64","indexed":false,"internalType":"uint64"}],"anonymous":false},{"type":"event","name":"Paused","inputs":[{"name":"account","type":"address","indexed":false,"internalType":"address"}],"anonymous":false},{"type":"event","name":"PlayerRegistered","inputs":[{"name":"player","type":"address","indexed":true,"internalType":"address"},{"name":"amount","type":"uint256","indexed":false,"internalType":"uint256"}],"anonymous":false},{"type":"event","name":"RoleAdminChanged","inputs":[{"name":"role","type":"bytes32","indexed":true,"internalType":"bytes32"},{"name":"previousAdminRole","type":"bytes32","indexed":true,"internalType":"bytes32"},{"name":"newAdminRole","type":"bytes32","indexed":true,"internalType":"bytes32"}],"anonymous":false},{"type":"event","name":"RoleGranted","inputs":[{"name":"role","type":"bytes32","indexed":true,"internalType":"bytes32"},{"name":"account","type":"address","indexed":true,"internalType":"address"},{"name":"sender","type":"address","indexed":true,"internalType":"address"}],"anonymous":false},{"type":"event","name":"RoleRevoked","inputs":[{"name":"role","type":"bytes32","indexed":true,"internalType":"bytes32"},{"name":"account","type":"address","indexed":true,"internalType":"address"},{"name":"sender","type":"address","indexed":true,"internalType":"address"}],"anonymous":false},{"type":"event","name":"Transfer","inputs":[{"name":"from","type":"address","indexed":true,"internalType":"address"},{"name":"to","type":"address","indexed":true,"internalType":"address"},{"name":"value","type":"uint256","indexed":false,"internalType":"uint256"}],"anonymous":false},{"type":"event","name":"Unpaused","inputs":[{"name":"account","type":"address","indexed":false,"internalType":"address"}],"anonymous":false},{"type":"event","name":"Upgraded","inputs":[{"name":"implementation","type":"address","indexed":true,"internalType":"address"}],"anonymous":false},{"type":"event","name":"WaterConsumed","inputs":[{"name":"player","type":"address","indexed":true,"internalType":"address"},{"name":"amount","type":"uint256","indexed":false,"internalType":"uint256"}],"anonymous":false},{"type":"event","name":"WaterPurchased","inputs":[{"name":"player","type":"address","indexed":true,"internalType":"address"},{"name":"amount","type":"uint256","indexed":false,"internalType":"uint256"}],"anonymous":false},{"type":"error","name":"AccessControlBadConfirmation","inputs":[]},{"type":"error","name":"AccessControlUnauthorizedAccount","inputs":[{"name":"account","type":"address","internalType":"address"},{"name":"neededRole","type":"bytes32","internalType":"bytes32"}]},{"type":"error","name":"AddressEmptyCode","inputs":[{"name":"target","type":"address","internalType":"address"}]},{"type":"error","name":"ERC1967InvalidImplementation","inputs":[{"name":"implementation","type":"address","internalType":"address"}]},{"type":"error","name":"ERC1967NonPayable","inputs":[]},{"type":"error","name":"ERC20InsufficientAllowance","inputs":[{"name":"spender","type":"address","internalType":"address"},{"name":"allowance","type":"uint256","internalType":"uint256"},{"name":"needed","type":"uint256","internalType":"uint256"}]},{"type":"error","name":"ERC20InsufficientBalance","inputs":[{"name":"sender","type":"address","internalType":"address"},{"name":"balance","type":"uint256","internalType":"uint256"},{"name":"needed","type":"uint256","internalType":"uint256"}]},{"type":"error","name":"ERC20InvalidApprover","inputs":[{"name":"approver","type":"address","internalType":"address"}]},{"type":"error","name":"ERC20InvalidReceiver","inputs":[{"name":"receiver","type":"address","internalType":"address"}]},{"type":"error","name":"ERC20InvalidSender","inputs":[{"name":"sender","type":"address","internalType":"address"}]},{"type":"error","name":"ERC20InvalidSpender","inputs":[{"name":"spender","type":"address","internalType":"address"}]},{"type":"error","name":"EnforcedPause","inputs":[]},{"type":"error","name":"ExpectedPause","inputs":[]},{"type":"error","name":"FailedCall","inputs":[]},{"type":"error","name":"InvalidInitialization","inputs":[]},{"type":"error","name":"MintCooldownActive","inputs":[]},{"type":"error","name":"NotInitializing","inputs":[]},{"type":"error","name":"StarterAlreadyClaimed","inputs":[]},{"type":"error","name":"UUPSUnauthorizedCallContext","inputs":[]},{"type":"error","name":"UUPSUnsupportedProxiableUUID","inputs":[{"name":"slot","type":"bytes32","internalType":"bytes32"}]},{"type":"error","name":"ZeroAddressNotAllowed","inputs":[]}],"bytecode":{"object":"0x60a080604052346100cc57306080527ff0c57e16840df040f15088dc2f81fe391c3923bec73e23a9662efc9c229c6a009081549060ff8260401c166100bd57506001600160401b036002600160401b031982821601610078575b604051611ccf90816100d18239608051818181610d1f0152610e040152f35b6001600160401b031990911681179091556040519081527fc7f505b2f371ae2175ee4913f4499e1f2633a7b5936321eed1cdaeb6115181d290602090a15f8080610059565b63f92ee8a960e01b8152600490fd5b5f80fdfe6080604090808252600480361015610015575f80fd5b5f3560e01c91826301ffc9a71461145d5750816306fdde0314611397578163095ea7b3146112f057816318160ddd146112c657816323b872dd146111d6578163248a9ca3146111a05781632f2ff15d14611178578163313ce5671461115d57816336568abe146111195781633f4ba83a146110a457816340c10f1914610ff05781634f1ef28614610d8357816352d1902d14610d0c5781635c975abb14610cdd5781636b5cc6d914610bc757816370a0823114610b845781637b996fd614610a7b578163805b59f614610a585781638456cb59146109f357816391d14854146109a3578163946b88981461096857816395d89b411461086a578163a217fddf14610850578163a5ebc8441461082d578163a9059cbb146107fd578163ad3cb1cc146107bd578163b93016401461078f578163be13197b14610758578163c4d66de8146102b7578163d53913931461027d578163d547741f1461023557508063dd62ed3e146101f0578063e63ab1e9146101b65763f7ee7a4314610196575f80fd5b346101b2575f3660031901126101b25760209051620151808152f35b5f80fd5b50346101b2575f3660031901126101b257602090517f65d7a28e3265b37a6474929f336521b332c1681b933f6cb9f3376673440d862a8152f35b50346101b257806003193601126101b25760209061020c6114f6565b61021d61021761150c565b916115ac565b9060018060a01b03165f528252805f20549051908152f35b82346101b257806003193601126101b25761027b9135610276600161025861150c565b93835f525f80516020611c5a8339815191526020525f2001546117e3565b611a5e565b005b82346101b2575f3660031901126101b257602090517f9f2df0fed2c77648de5860a4cc508cd0818c85b8b8a1ab4ceeef8d981c8956a68152f35b82346101b257602090816003193601126101b2576102d36114f6565b907ff0c57e16840df040f15088dc2f81fe391c3923bec73e23a9662efc9c229c6a009384549260ff84841c16159167ffffffffffffffff80861695861580610751575b60018098149081610747575b15908161073e575b5061072e5767ffffffffffffffff198116871789558461070f575b506001600160a01b0383161561070057845161036081611522565b600d81526c4d6f636b4f72616e676544414f60981b8882015285519261038584611522565b60078452664d4f52414e474560c81b898501526103a0611b07565b6103a8611b07565b81518381116106ed577f52c63247e1f47db19d5ce0460030c497f067ca4cebf71ba98eeadabe20bace0390806103de8354611574565b948c601f9687811161067e575b50508c908683116001146105f5575f926105ea575b50505f19600383901b1c1916908a1b1790555b83519283116105d757507f52c63247e1f47db19d5ce0460030c497f067ca4cebf71ba98eeadabe20bace04926104498454611574565b828111610576575b50889183116001146104f3576104a8949392915f91836104e8575b50505f19600383901b1c191690871b1790555b610487611b07565b61048f611b07565b61049881611811565b506104a28161189b565b50611948565b506104af57005b7fc7f505b2f371ae2175ee4913f4499e1f2633a7b5936321eed1cdaeb6115181d29368ff000000000000000019815416905551908152a1005b015190508a8061046c565b9392918791601f19821690845f527f46a2803e59a4de4e7a4c574b1243f25977ac4c77d5a1a4a609b5394cebb4a2aa915f5b8c82821061056057505096836104a89810610548575b505050811b01905561047f565b01515f1960f88460031b161c191690558a808061053b565b838a015185558c96909401939283019201610525565b845f527f46a2803e59a4de4e7a4c574b1243f25977ac4c77d5a1a4a609b5394cebb4a2aa8380860160051c8201928c87106105ce575b0160051c019089905b8281106105c3575050610451565b5f81550189906105b5565b925081926105ac565b604190634e487b7160e01b5f525260245ffd5b015190508d80610400565b8c9350908d91601f198416865f527f2ae08a8e29253f69ac5d979a101956ab8f8d9d7ded63fa7a83b16fc47648eab0935f905b82821061065d5750508411610645575b505050811b019055610413565b01515f1960f88460031b161c191690558d8080610638565b91929395968291958786015181550195019301908f918f9695949392610628565b90919250845f52867f2ae08a8e29253f69ac5d979a101956ab8f8d9d7ded63fa7a83b16fc47648eab09181860160051c83019386106106e4575b918e91869594930160051c01915b8281106106d657508e91506103eb565b5f81558594508e91016106c6565b925081926106b8565b604182634e487b7160e01b5f525260245ffd5b5083516342bcdf7f60e11b8152fd5b68ffffffffffffffffff19166801000000000000000117885588610345565b855163f92ee8a960e01b81528390fd5b9050158a61032a565b303b159150610322565b5084610316565b82346101b25760203660031901126101b2576020906001600160a01b0361077d6114f6565b165f5260018252805f20549051908152f35b82346101b25760203660031901126101b2576020906107b46107af6114f6565b6115e4565b90519015158152f35b82346101b2575f3660031901126101b25780516107f9916107dd82611522565b60058252640352e302e360dc1b602083015251918291826114af565b0390f35b82346101b257806003193601126101b25760209061082661081c6114f6565b6024359033611631565b5160018152f35b82346101b2575f3660031901126101b2576020905168056bc75e2d631000008152f35b82346101b2575f3660031901126101b257602090515f8152f35b82346101b2575f3660031901126101b25780515f7f52c63247e1f47db19d5ce0460030c497f067ca4cebf71ba98eeadabe20bace048054906108ab82611574565b8085529160209160019182811690811561093b57506001146108e3575b6107f986886108d982890383611552565b51918291826114af565b5f90815293507f46a2803e59a4de4e7a4c574b1243f25977ac4c77d5a1a4a609b5394cebb4a2aa5b838510610928575050505081016020016108d9826107f9866108c8565b805486860184015293820193810161090b565b90506107f9979550869350602092506108d994915060ff191682840152151560051b8201019294866108c8565b82346101b25760203660031901126101b2576020906001600160a01b0361098d6114f6565b165f525f825260ff815f20541690519015158152f35b82346101b257806003193601126101b2576020916109bf61150c565b90355f525f80516020611c5a8339815191528352815f209060018060a01b03165f52825260ff815f20541690519015158152f35b82346101b2575f3660031901126101b25760207f62e78cea01bee320cd4e420270b5ea74000d11b0c9f74754ebdbfc544b05a25891610a3061170f565b610a38611add565b5f80516020611c7a833981519152805460ff1916600117905551338152a1005b82346101b2575f3660031901126101b257602090516802b5e3af16b18800008152f35b82346101b2575f3660031901126101b257610a94611add565b610a9d336115e4565b15610b7757335f52600160205242815f20553315610b6157610abd611add565b5f80516020611c1a83398151915290815468056bc75e2d6310000092838201809211610b4e577f5d7d1dc3ca4cfcf4fe80f162c958dc805bc996c78096ca93dec3d19498b635a293945055335f525f80516020611bfa833981519152602052805f2083815401905580518381525f5f80516020611c3a83398151915260203393a380519283524260208401523392a2005b601185634e487b7160e01b5f525260245ffd5b905f602492519163ec442f0560e01b8352820152fd5b516374006bc160e11b8152fd5b82346101b25760203660031901126101b2576020906001600160a01b03610ba96114f6565b165f525f80516020611bfa8339815191528252805f20549051908152f35b82346101b2576020806003193601126101b257610be26114f6565b610bea611788565b6001600160a01b0316918215610cce57825f525f825260ff815f205416610cbf57825f525f8252805f20600160ff19825416179055610c27611add565b5f80516020611c1a8339815191529081546802b5e3af16b188000092838201809211610cac577f324cb0062138d65997c86cd3012489ceb351d602f2f55c7408306e8040c79f3f95965055845f525f80516020611bfa8339815191528352805f20828154019055845f5f80516020611c3a833981519152858451868152a351908152a2005b601187634e487b7160e01b5f525260245ffd5b516376c7c04d60e11b81528390fd5b516342bcdf7f60e11b81528390fd5b82346101b2575f3660031901126101b25760209060ff5f80516020611c7a833981519152541690519015158152f35b82346101b2575f3660031901126101b2577f00000000000000000000000000000000000000000000000000000000000000006001600160a01b03163003610d7657602090517f360894a13ba1a3210667c828492db98dca3e2076cc3735a920a3ca505d382bbc8152f35b5163703e46dd60e11b8152fd5b9050816003193601126101b257610d986114f6565b602492833567ffffffffffffffff928382116101b257366023830112156101b25781850135938411610fde57602093835192610ddd86601f19601f8501160185611552565b818452368883830101116101b257815f928988930183870137840101526001600160a01b037f00000000000000000000000000000000000000000000000000000000000000008116308114908115610fb0575b50610fa0575f80525f80516020611c5a8339815191528552835f20335f52855260ff845f20541615610f855783516352d1902d60e01b81529082169480828881895afa9182915f93610f55575b5050610e97575050505191634c9c8ce360e01b8352820152fd5b85938591887f360894a13ba1a3210667c828492db98dca3e2076cc3735a920a3ca505d382bbc91828103610f405750843b15610f2c575080546001600160a01b0319168317905551907fbc7cd75a20ee27fd9adebab32041f755214dbc6bffa90cc0225b39da2e5c2d3b5f80a2825115610f16575061027b9250611b48565b91505034610f2057005b63b398979f60e01b8152fd5b8251634c9c8ce360e01b8152808801859052fd5b8351632a87526960e21b815280890191909152fd5b9080929350813d8311610f7e575b610f6d8183611552565b810103126101b25751905f80610e7d565b503d610f63565b835163e2517d3f60e01b815233818801525f81890152604490fd5b835163703e46dd60e11b81528690fd5b9050817f360894a13ba1a3210667c828492db98dca3e2076cc3735a920a3ca505d382bbc541614155f610e30565b85604186634e487b7160e01b5f52525ffd5b82346101b257806003193601126101b2576110096114f6565b9060243591611016611788565b6001600160a01b03169283156110965761102e611add565b5f80516020611c1a8339815191528054918483018093116110835750925f80516020611c3a833981519152926020925f95558585525f80516020611bfa833981519152835280852082815401905551908152a3005b601190634e487b7160e01b5f525260245ffd5b90516342bcdf7f60e11b8152fd5b82346101b2575f3660031901126101b2576110bd61170f565b5f80516020611c7a8339815191529182549060ff82161561110b577f5db9ee0a495bf2e6ff9c91a7834c1ba4fdd244a5e8aa4e537bd38aeae4b073aa602084868560ff1916905551338152a1005b8251638dfc202b60e01b8152fd5b82346101b257806003193601126101b25761113261150c565b90336001600160a01b0383160361114e575061027b9135611a5e565b5163334bd91960e11b81529050fd5b82346101b2575f3660031901126101b2576020905160128152f35b82346101b257806003193601126101b25761027b913561119b600161025861150c565b6119ee565b82346101b25760203660031901126101b257602091355f525f80516020611c5a83398151915282526001815f2001549051908152f35b9050346101b25760603660031901126101b2576111f16114f6565b6111f961150c565b9060443592611207826115ac565b335f52602052845f2054905f198210611229575b602086610826878787611631565b84821061129b576001600160a01b0383161561128557331561126f57509181846108269461125a60209897956115ac565b335f52885203855f205591939481935061121b565b6024905f875191634a1406b160e11b8352820152fd5b6024905f87519163e602df0560e01b8352820152fd5b8551637dc7a0d960e11b81523391810191825260208201929092526040810185905281906060010390fd5b82346101b2575f3660031901126101b2576020905f80516020611c1a833981519152549051908152f35b82346101b257806003193601126101b2576113096114f6565b602435903315611381576001600160a01b031690811561136b5760209350611330336115ac565b825f52845280835f205582519081527f8c5be1e5ebec7d5bd14f71427d1e84f3dd0314c0f7b2291e5b200ac8c7c3b925843392a35160018152f35b8251634a1406b160e11b81525f81860152602490fd5b825163e602df0560e01b81525f81860152602490fd5b82346101b2575f3660031901126101b25780515f7f52c63247e1f47db19d5ce0460030c497f067ca4cebf71ba98eeadabe20bace038054906113d882611574565b8085529160209160019182811690811561093b5750600114611405576107f986886108d982890383611552565b5f90815293507f2ae08a8e29253f69ac5d979a101956ab8f8d9d7ded63fa7a83b16fc47648eab05b83851061144a575050505081016020016108d9826107f9866108c8565b805486860184015293820193810161142d565b90346101b25760203660031901126101b257359063ffffffff60e01b82168092036101b257602091637965db0b60e01b811490811561149e575b5015158152f35b6301ffc9a760e01b14905083611497565b602080825282518183018190529093925f5b8281106114e257505060409293505f838284010152601f8019910116010190565b8181018601518482016040015285016114c1565b600435906001600160a01b03821682036101b257565b602435906001600160a01b03821682036101b257565b6040810190811067ffffffffffffffff82111761153e57604052565b634e487b7160e01b5f52604160045260245ffd5b90601f8019910116810190811067ffffffffffffffff82111761153e57604052565b90600182811c921680156115a2575b602083101461158e57565b634e487b7160e01b5f52602260045260245ffd5b91607f1691611583565b6001600160a01b03165f9081527f52c63247e1f47db19d5ce0460030c497f067ca4cebf71ba98eeadabe20bace016020526040902090565b6001600160a01b03165f908152600160205260409020548015908115611608575090565b905062015180810180911161161d5742101590565b634e487b7160e01b5f52601160045260245ffd5b916001600160a01b038084169283156116f757169283156116df57611654611add565b825f525f80516020611bfa8339815191528060205260405f2054918383106116ac575091806020925f80516020611c3a83398151915294865f5284520360405f2055845f5260405f20818154019055604051908152a3565b60405163391434e360e21b81526001600160a01b0391909116600482015260248101929092525060448101829052606490fd5b60405163ec442f0560e01b81525f6004820152602490fd5b604051634b637e8f60e11b81525f6004820152602490fd5b335f9081527f75442b0a96088b5456bc4ed01394c96a4feec0f883c9494257d76b96ab1c9b6b60205260409020547f65d7a28e3265b37a6474929f336521b332c1681b933f6cb9f3376673440d862a9060ff161561176a5750565b6044906040519063e2517d3f60e01b82523360048301526024820152fd5b335f9081527f549fe2656c81d2947b3b913f0a53b9ea86c71e049f3a1b8aa23c09a8a05cb8d460205260409020547f9f2df0fed2c77648de5860a4cc508cd0818c85b8b8a1ab4ceeef8d981c8956a69060ff161561176a5750565b805f525f80516020611c5a83398151915260205260405f20335f5260205260ff60405f2054161561176a5750565b6001600160a01b03165f8181527fb7db2dd08fcb62d0c9e08c51941cae53c267786a0b75803fb7960902fc8ef97d60205260409020545f80516020611c5a8339815191529060ff16611895575f805260205260405f20815f5260205260405f20600160ff1982541617905533905f5f80516020611bda8339815191528180a4600190565b50505f90565b6001600160a01b03165f8181527f549fe2656c81d2947b3b913f0a53b9ea86c71e049f3a1b8aa23c09a8a05cb8d460205260409020547f9f2df0fed2c77648de5860a4cc508cd0818c85b8b8a1ab4ceeef8d981c8956a691905f80516020611c5a8339815191529060ff1661194157825f5260205260405f20815f5260205260405f20600160ff1982541617905533915f80516020611bda8339815191525f80a4600190565b5050505f90565b6001600160a01b03165f8181527f75442b0a96088b5456bc4ed01394c96a4feec0f883c9494257d76b96ab1c9b6b60205260409020547f65d7a28e3265b37a6474929f336521b332c1681b933f6cb9f3376673440d862a91905f80516020611c5a8339815191529060ff1661194157825f5260205260405f20815f5260205260405f20600160ff1982541617905533915f80516020611bda8339815191525f80a4600190565b90815f525f80516020611c5a8339815191528060205260405f209160018060a01b031691825f5260205260ff60405f205416155f1461194157825f5260205260405f20815f5260205260405f20600160ff1982541617905533915f80516020611bda8339815191525f80a4600190565b90815f525f80516020611c5a8339815191528060205260405f209160018060a01b031691825f5260205260ff60405f2054165f1461194157825f5260205260405f20815f5260205260405f2060ff19815416905533917ff6391f5c32d9c69d2a47ea670b442974b53935d1edc7fd64eb21e047a839171b5f80a4600190565b60ff5f80516020611c7a8339815191525416611af557565b60405163d93c066560e01b8152600490fd5b60ff7ff0c57e16840df040f15088dc2f81fe391c3923bec73e23a9662efc9c229c6a005460401c1615611b3657565b604051631afcd79f60e31b8152600490fd5b905f8091602081519101845af48080611bc6575b15611b7c5750506040513d81523d5f602083013e60203d82010160405290565b15611ba357604051639996b31560e01b81526001600160a01b039091166004820152602490fd5b3d15611bb4576040513d5f823e3d90fd5b60405163d6bda27560e01b8152600490fd5b503d151580611b5c5750813b1515611b5c56fe2f8788117e7eff1d82e926ec794901d17c78024a50270940304540a733656f0d52c63247e1f47db19d5ce0460030c497f067ca4cebf71ba98eeadabe20bace0052c63247e1f47db19d5ce0460030c497f067ca4cebf71ba98eeadabe20bace02ddf252ad1be2c89b69c2b068fc378daa952ba7f163c4a11628f55a4df523b3ef02dd7bc7dec4dceedda775e58dd541e08a116c6c53815c0bd028192f7b626800cd5ed15c6e187e77e9aee88184c21f4f2182ab5827cb3b7e07fbedcd63f03300a2646970667358221220ad93a3337aa6f5b3bb1b2bdb69bf99a10121f3774ad00cb3b1398a82c6d7e4ff64736f6c63430008180033","linkReferences":{}},"methodIdentifiers":{"DAILY_MINT_AMOUNT()":"a5ebc844","DEFAULT_ADMIN_ROLE()":"a217fddf","MINTER_ROLE()":"d5391393","MINT_COOLDOWN()":"f7ee7a43","PAUSER_ROLE()":"e63ab1e9","STARTER_BONUS()":"805b59f6","UPGRADE_INTERFACE_VERSION()":"ad3cb1cc","allowance(address,address)":"dd62ed3e","approve(address,uint256)":"095ea7b3","balanceOf(address)":"70a08231","canMintDaily(address)":"b9301640","dailyMint()":"7b996fd6","decimals()":"313ce567","getRoleAdmin(bytes32)":"248a9ca3","grantRole(bytes32,address)":"2f2ff15d","hasReceivedStarter(address)":"946b8898","hasRole(bytes32,address)":"91d14854","initialize(address)":"c4d66de8","lastMintTimestamp(address)":"be13197b","mint(address,uint256)":"40c10f19","name()":"06fdde03","pause()":"8456cb59","paused()":"5c975abb","proxiableUUID()":"52d1902d","registerPlayer(address)":"6b5cc6d9","renounceRole(bytes32,address)":"36568abe","revokeRole(bytes32,address)":"d547741f","supportsInterface(bytes4)":"01ffc9a7","symbol()":"95d89b41","totalSupply()":"18160ddd","transfer(address,uint256)":"a9059cbb","transferFrom(address,address,uint256)":"23b872dd","unpause()":"3f4ba83a","upgradeToAndCall(address,bytes)":"4f1ef286"},"id":74}