{"abi":[{"type":"constructor","inputs":[],"stateMutability":"nonpayable"},{"type":"function","name":"DAILY_MINT_AMOUNT","inputs":[],"outputs":[{"name":"","type":"uint256","internalType":"uint256"}],"stateMutability":"view"},{"type":"function","name":"DEFAULT_ADMIN_ROLE","inputs":[],"outputs":[{"name":"","type":"bytes32","internalType":"bytes32"}],"stateMutability":"view"},{"type":"function","name":"MINTER_ROLE","inputs":[],"outputs":[{"name":"","type":"bytes32","internalType":"bytes32"}],"stateMutability":"view"},{"type":"function","name":"MINT_COOLDOWN","inputs":[],"outputs":[{"name":"","type":"uint256","internalType":"uint256"}],"stateMutability":"view"},{"type":"function","name":"PAUSER_ROLE","inputs":[],"outputs":[{"name":"","type":"bytes32","internalType":"bytes32"}],"stateMutability":"view"},{"type":"function","name":"STARTER_BONUS","inputs":[],"outputs":[{"name":"","type":"uint256","internalType":"uint256"}],"stateMutability":"view"},{"type":"function","name":"UPGRADE_INTERFACE_VERSION","inputs":[],"outputs":[{"name":"","type":"string","internalType":"string"}],"stateMutability":"view"},{"type":"function","name":"allowance","inputs":[{"name":"owner","type":"address","internalType":"address"},{"name":"spender","type":"address","internalType":"address"}],"outputs":[{"name":"","type":"uint256","internalType":"uint256"}],"stateMutability":"view"},{"type":"function","name":"approve","inputs":[{"name":"spender","type":"address","internalType":"address"},{"name":"value","type":"uint256","internalType":"uint256"}],"outputs":[{"name":"","type":"bool","internalType":"bool"}],"stateMutability":"nonpayable"},{"type":"function","name":"balanceOf","inputs":[{"name":"account","type":"address","internalType":"address"}],"outputs":[{"name":"","type":"uint256","internalType":"uint256"}],"stateMutability":"view"},{"type":"function","name":"canMintDaily","inputs":[{"name":"player","type":"address","internalType":"address"}],"outputs":[{"name":"","type":"bool","internalType":"bool"}],"stateMutability":"view"},{"type":"function","name":"dailyMint","inputs":[],"outputs":[],"stateMutability":"nonpayable"},{"type":"function","name":"decimals","inputs":[],"outputs":[{"name":"","type":"uint8","internalType":"uint8"}],"stateMutability":"view"},{"type":"function","name":"getRoleAdmin","inputs":[{"name":"role","type":"bytes32","internalType":"bytes32"}],"outputs":[{"name":"","type":"bytes32","internalType":"bytes32"}],"stateMutability":"view"},{"type":"function","name":"grantRole","inputs":[{"name":"role","type":"bytes32","internalType":"bytes32"},{"name":"account","type":"address","internalType":"address"}],"outputs":[],"stateMutability":"nonpayable"},{"type":"function","name":"hasReceivedStarter","inputs":[{"name":"player","type":"address","internalType":"address"}],"outputs":[{"name":"","type":"bool","internalType":"bool"}],"stateMutability":"view"},{"type":"function","name":"hasRole","inputs":[{"name":"role","type":"bytes32","internalType":"bytes32"},{"name":"account","type":"address","internalType":"address"}],"outputs":[{"name":"","type":"bool","internalType":"bool"}],"stateMutability":"view"},{"type":"function","name":"initialize","inputs":[{"name":"admin","type":"address","internalType":"address"}],"outputs":[],"stateMutability":"nonpayable"},{"type":"function","name":"lastMintTimestamp","inputs":[{"name":"player","type":"address","internalType":"address"}],"outputs":[{"name":"","type":"uint256","internalType":"uint256"}],"stateMutability":"view"},{"type":"function","name":"mint","inputs":[{"name":"to","type":"address","internalType":"address"},{"name":"amount","type":"uint256","internalType":"uint256"}],"outputs":[],"stateMutability":"nonpayable"},{"type":"function","name":"name","inputs":[],"outputs":[{"name":"","type":"string","internalType":"string"}],"stateMutability":"view"},{"type":"function","name":"pause","inputs":[],"outputs":[],"stateMutability":"nonpayable"},{"type":"function","name":"paused","inputs":[],"outputs":[{"name":"","type":"bool","internalType":"bool"}],"stateMutability":"view"},{"type":"function","name":"proxiableUUID","inputs":[],"outputs":[{"name":"","type":"bytes32","internalType":"bytes32"}],"stateMutability":"view"},{"type":"function","name":"registerPlayer","inputs":[{"name":"player","type":"address","internalType":"address"}],"outputs":[],"stateMutability":"nonpayable"},{"type":"function","name":"renounceRole","inputs":[{"name":"role","type":"bytes32","internalType":"bytes32"},{"name":"callerConfirmation","type":"address","internalType":"address"}],"outputs":[],"stateMutability":"nonpayable"},{"type":"function","name":"revokeRole","inputs":[{"name":"role","type":"bytes32","internalType":"bytes32"},{"name":"account","type":"address","internalType":"address"}],"outputs":[],"stateMutability":"nonpayable"},{"type":"function","name":"supportsInterface","inputs":[{"name":"interfaceId","type":"bytes4","internalType":"bytes4"}],"outputs":[{"name":"","type":"bool","internalType":"bool"}],"stateMutability":"view"},{"type":"function","name":"symbol","inputs":[],"outputs":[{"name":"","type":"string","internalType":"string"}],"stateMutability":"view"},{"type":"function","name":"totalSupply","inputs":[],"outputs":[{"name":"","type":"uint256","internalType":"uint256"}],"stateMutability":"view"},{"type":"function","name":"transfer","inputs":[{"name":"to","type":"address","internalType":"address"},{"name":"value","type":"uint256","internalType":"uint256"}],"outputs":[{"name":"","type":"bool","internalType":"bool"}],"stateMutability":"nonpayable"},{"type":"function","name":"transferFrom","inputs":[{"name":"from","type":"address","internalType":"address"},{"name":"to","type":"address","internalType":"address"},{"name":"value","type":"uint256","internalType":"uint256"}],"outputs":[{"name":"","type":"bool","internalType":"bool"}],"stateMutability":"nonpayable"},{"type":"function","name":"unpause","inputs":[],"outputs":[],"stateMutability":"nonpayable"},{"type":"function","name":"upgradeToAndCall","inputs":[{"name":"newImplementation","type":"address","internalType":"address"},{"name":"data","type":"bytes","internalType":"bytes"}],"outputs":[],"stateMutability":"payable"},{"type":"event","name":"Approval","inputs":[{"name":"owner","type":"address","indexed":true,"internalType":"address"},{"name":"spender","type":"address","indexed":true,"internalType":"address"},{"name":"value","type":"uint256","indexed":false,"internalType":"uint256"}],"anonymous":false},{"type":"event","name":"DailyMintClaimed","inputs":[{"name":"player","type":"address","indexed":true,"internalType":"address"},{"name":"amount","type":"uint256","indexed":false,"internalType":"uint256"},{"name":"timestamp","type":"uint256","indexed":false,"internalType":"uint256"}],"anonymous":false},{"type":"event","name":"Initialized","inputs":[{"name":"version","type":"uint64","indexed":false,"internalType":"uint64"}],"anonymous":false},{"type":"event","name":"Paused","inputs":[{"name":"account","type":"address","indexed":false,"internalType":"address"}],"anonymous":false},{"type":"event","name":"PlayerRegistered","inputs":[{"name":"player","type":"address","indexed":true,"internalType":"address"},{"name":"amount","type":"uint256","indexed":false,"internalType":"uint256"}],"anonymous":false},{"type":"event","name":"RoleAdminChanged","inputs":[{"name":"role","type":"bytes32","indexed":true,"internalType":"bytes32"},{"name":"previousAdminRole","type":"bytes32","indexed":true,"internalType":"bytes32"},{"name":"newAdminRole","type":"bytes32","indexed":true,"internalType":"bytes32"}],"anonymous":false},{"type":"event","name":"RoleGranted","inputs":[{"name":"role","type":"bytes32","indexed":true,"internalType":"bytes32"},{"name":"account","type":"address","indexed":true,"internalType":"address"},{"name":"sender","type":"address","indexed":true,"internalType":"address"}],"anonymous":false},{"type":"event","name":"RoleRevoked","inputs":[{"name":"role","type":"bytes32","indexed":true,"internalType":"bytes32"},{"name":"account","type":"address","indexed":true,"internalType":"address"},{"name":"sender","type":"address","indexed":true,"internalType":"address"}],"anonymous":false},{"type":"event","name":"Transfer","inputs":[{"name":"from","type":"address","indexed":true,"internalType":"address"},{"name":"to","type":"address","indexed":true,"internalType":"address"},{"name":"value","type":"uint256","indexed":false,"internalType":"uint256"}],"anonymous":false},{"type":"event","name":"Unpaused","inputs":[{"name":"account","type":"address","indexed":false,"internalType":"address"}],"anonymous":false},{"type":"event","name":"Upgraded","inputs":[{"name":"implementation","type":"address","indexed":true,"internalType":"address"}],"anonymous":false},{"type":"event","name":"WaterConsumed","inputs":[{"name":"player","type":"address","indexed":true,"internalType":"address"},{"name":"amount","type":"uint256","indexed":false,"internalType":"uint256"}],"anonymous":false},{"type":"event","name":"WaterPurchased","inputs":[{"name":"player","type":"address","indexed":true,"internalType":"address"},{"name":"amount","type":"uint256","indexed":false,"internalType":"uint256"}],"anonymous":false},{"type":"error","name":"AccessControlBadConfirmation","inputs":[]},{"type":"error","name":"AccessControlUnauthorizedAccount","inputs":[{"name":"account","type":"address","internalType":"address"},{"name":"neededRole","type":"bytes32","internalType":"bytes32"}]},{"type":"error","name":"AddressEmptyCode","inputs":[{"name":"target","type":"address","internalType":"address"}]},{"type":"error","name":"ERC1967InvalidImplementation","inputs":[{"name":"implementation","type":"address","internalType":"address"}]},{"type":"error","name":"ERC1967NonPayable","inputs":[]},{"type":"error","name":"ERC20InsufficientAllowance","inputs":[{"name":"spender","type":"address","internalType":"address"},{"name":"allowance","type":"uint256","internalType":"uint256"},{"name":"needed","type":"uint256","internalType":"uint256"}]},{"type":"error","name":"ERC20InsufficientBalance","inputs":[{"name":"sender","type":"address","internalType":"address"},{"name":"balance","type":"uint256","internalType":"uint256"},{"name":"needed","type":"uint256","internalType":"uint256"}]},{"type":"error","name":"ERC20InvalidApprover","inputs":[{"name":"approver","type":"address","internalType":"address"}]},{"type":"error","name":"ERC20InvalidReceiver","inputs":[{"name":"receiver","type":"address","internalType":"address"}]},{"type":"error","name":"ERC20InvalidSender","inputs":[{"name":"sender","type":"address","internalType":"address"}]},{"type":"error","name":"ERC20InvalidSpender","inputs":[{"name":"spender","type":"address","internalType":"address"}]},{"type":"error","name":"EnforcedPause","inputs":[]},{"type":"error","name":"ExpectedPause","inputs":[]},{"type":"error","name":"FailedCall","inputs":[]},{"type":"error","name":"InvalidInitialization","inputs":[]},{"type":"error","name":"MintCooldownActive","inputs":[]},{"type":"error","name":"NotInitializing","inputs":[]},{"type":"error","name":"StarterAlreadyClaimed","inputs":[]},{"type":"error","name":"UUPSUnauthorizedCallContext","inputs":[]},{"type":"error","name":"UUPSUnsupportedProxiableUUID","inputs":[{"name":"slot","type":"bytes32","internalType":"bytes32"}]},{"type":"error","name":"ZeroAddressNotAllowed","inputs":[]}],"bytecode":{"object":"0x60a060405230608052348015610013575f80fd5b5061001c610021565b6100d3565b7ff0c57e16840df040f15088dc2f81fe391c3923bec73e23a9662efc9c229c6a00805468010000000000000000900460ff16156100715760405163f92ee8a960e01b815260040160405180910390fd5b80546001600160401b03908116146100d05780546001600160401b0319166001600160401b0390811782556040519081527fc7f505b2f371ae2175ee4913f4499e1f2633a7b5936321eed1cdaeb6115181d29060200160405180910390a15b50565b608051611b926100f95f395f8181610fb101528181610fda015261111d0152611b925ff3fe6080604052600436106101f1575f3560e01c8063805b59f611610108578063ad3cb1cc1161009d578063d53913931161006d578063d5391393146105b9578063d547741f146105d9578063dd62ed3e146105f8578063e63ab1e914610617578063f7ee7a4314610637575f80fd5b8063ad3cb1cc14610517578063b930164014610547578063be13197b14610566578063c4d66de81461059a575f80fd5b806395d89b41116100d857806395d89b41146104b5578063a217fddf146104c9578063a5ebc844146104dc578063a9059cbb146104f8575f80fd5b8063805b59f61461042f5780638456cb591461044b57806391d148541461045f578063946b88981461047e575f80fd5b806336568abe1161018957806352d1902d1161015957806352d1902d146103855780635c975abb146103995780636b5cc6d9146103bc57806370a08231146103db5780637b996fd61461041b575f80fd5b806336568abe146103205780633f4ba83a1461033f57806340c10f19146103535780634f1ef28614610372575f80fd5b806323b872dd116101c457806323b872dd146102a6578063248a9ca3146102c55780632f2ff15d146102e4578063313ce56714610305575f80fd5b806301ffc9a7146101f557806306fdde0314610229578063095ea7b31461024a57806318160ddd14610269575b5f80fd5b348015610200575f80fd5b5061021461020f3660046116ed565b61064d565b60405190151581526020015b60405180910390f35b348015610234575f80fd5b5061023d610683565b6040516102209190611714565b348015610255575f80fd5b5061021461026436600461177b565b610743565b348015610274575f80fd5b507f52c63247e1f47db19d5ce0460030c497f067ca4cebf71ba98eeadabe20bace02545b604051908152602001610220565b3480156102b1575f80fd5b506102146102c03660046117a3565b61075a565b3480156102d0575f80fd5b506102986102df3660046117dc565b61077d565b3480156102ef575f80fd5b506103036102fe3660046117f3565b61079d565b005b348015610310575f80fd5b5060405160128152602001610220565b34801561032b575f80fd5b5061030361033a3660046117f3565b6107bf565b34801561034a575f80fd5b506103036107f7565b34801561035e575f80fd5b5061030361036d36600461177b565b610819565b610303610380366004611831565b610861565b348015610390575f80fd5b50610298610880565b3480156103a4575f80fd5b505f80516020611b3d8339815191525460ff16610214565b3480156103c7575f80fd5b506103036103d63660046118ed565b61089b565b3480156103e6575f80fd5b506102986103f53660046118ed565b6001600160a01b03165f9081525f80516020611a9d833981519152602052604090205490565b348015610426575f80fd5b50610303610997565b34801561043a575f80fd5b506102986802b5e3af16b188000081565b348015610456575f80fd5b50610303610a2e565b34801561046a575f80fd5b506102146104793660046117f3565b610a4d565b348015610489575f80fd5b506102146104983660046118ed565b6001600160a01b03165f9081526020819052604090205460ff1690565b3480156104c0575f80fd5b5061023d610a83565b3480156104d4575f80fd5b506102985f81565b3480156104e7575f80fd5b5061029868056bc75e2d6310000081565b348015610503575f80fd5b5061021461051236600461177b565b610ac1565b348015610522575f80fd5b5061023d604051806040016040528060058152602001640352e302e360dc1b81525081565b348015610552575f80fd5b506102146105613660046118ed565b610ace565b348015610571575f80fd5b506102986105803660046118ed565b6001600160a01b03165f9081526001602052604090205490565b3480156105a5575f80fd5b506103036105b43660046118ed565b610b06565b3480156105c4575f80fd5b506102985f80516020611afd83398151915281565b3480156105e4575f80fd5b506103036105f33660046117f3565b610cb6565b348015610603575f80fd5b50610298610612366004611906565b610cd2565b348015610622575f80fd5b506102985f80516020611add83398151915281565b348015610642575f80fd5b506102986201518081565b5f6001600160e01b03198216637965db0b60e01b148061067d57506301ffc9a760e01b6001600160e01b03198316145b92915050565b7f52c63247e1f47db19d5ce0460030c497f067ca4cebf71ba98eeadabe20bace0380546060915f80516020611a9d833981519152916106c19061192e565b80601f01602080910402602001604051908101604052809291908181526020018280546106ed9061192e565b80156107385780601f1061070f57610100808354040283529160200191610738565b820191905f5260205f20905b81548152906001019060200180831161071b57829003601f168201915b505050505091505090565b5f33610750818585610d1b565b5060019392505050565b5f33610767858285610d28565b610772858585610d8b565b506001949350505050565b5f9081525f80516020611b1d833981519152602052604090206001015490565b6107a68261077d565b6107af81610de8565b6107b98383610df2565b50505050565b6001600160a01b03811633146107e85760405163334bd91960e11b815260040160405180910390fd5b6107f28282610e9a565b505050565b5f80516020611add83398151915261080e81610de8565b610816610f13565b50565b5f80516020611afd83398151915261083081610de8565b6001600160a01b038316610857576040516342bcdf7f60e11b815260040160405180910390fd5b6107f28383610f72565b610869610fa6565b6108728261104c565b61087c8282611056565b5050565b5f610889611112565b505f80516020611abd83398151915290565b5f80516020611afd8339815191526108b281610de8565b6001600160a01b0382166108d9576040516342bcdf7f60e11b815260040160405180910390fd5b6001600160a01b0382165f9081526020819052604090205460ff1615610912576040516376c7c04d60e11b815260040160405180910390fd5b6001600160a01b0382165f908152602081905260409020805460ff19166001179055610947826802b5e3af16b1880000610f72565b816001600160a01b03167f324cb0062138d65997c86cd3012489ceb351d602f2f55c7408306e8040c79f3f6802b5e3af16b188000060405161098b91815260200190565b60405180910390a25050565b61099f61115b565b6109a833610ace565b6109c5576040516374006bc160e11b815260040160405180910390fd5b335f8181526001602052604090204290556109e99068056bc75e2d63100000610f72565b6040805168056bc75e2d63100000815242602082015233917f5d7d1dc3ca4cfcf4fe80f162c958dc805bc996c78096ca93dec3d19498b635a2910160405180910390a2565b5f80516020611add833981519152610a4581610de8565b61081661118b565b5f9182525f80516020611b1d833981519152602090815260408084206001600160a01b0393909316845291905290205460ff1690565b7f52c63247e1f47db19d5ce0460030c497f067ca4cebf71ba98eeadabe20bace0480546060915f80516020611a9d833981519152916106c19061192e565b5f33610750818585610d8b565b6001600160a01b0381165f90815260016020526040812054801580610aff5750610afb6201518082611966565b4210155b9392505050565b5f610b0f6111d3565b805490915060ff600160401b820416159067ffffffffffffffff165f81158015610b365750825b90505f8267ffffffffffffffff166001148015610b525750303b155b905081158015610b60575080155b15610b7e5760405163f92ee8a960e01b815260040160405180910390fd5b845467ffffffffffffffff191660011785558315610ba857845460ff60401b1916600160401b1785555b6001600160a01b038616610bcf576040516342bcdf7f60e11b815260040160405180910390fd5b610c1d6040518060400160405280600d81526020016c4d6f636b4f72616e676544414f60981b815250604051806040016040528060078152602001664d4f52414e474560c81b8152506111fb565b610c2561120d565b610c2d61120d565b610c375f87610df2565b50610c4f5f80516020611afd83398151915287610df2565b50610c675f80516020611add83398151915287610df2565b508315610cae57845460ff60401b19168555604051600181527fc7f505b2f371ae2175ee4913f4499e1f2633a7b5936321eed1cdaeb6115181d29060200160405180910390a15b505050505050565b610cbf8261077d565b610cc881610de8565b6107b98383610e9a565b6001600160a01b039182165f9081527f52c63247e1f47db19d5ce0460030c497f067ca4cebf71ba98eeadabe20bace016020908152604080832093909416825291909152205490565b6107f28383836001611215565b5f610d338484610cd2565b90505f198110156107b95781811015610d7d57604051637dc7a0d960e11b81526001600160a01b038416600482015260248101829052604481018390526064015b60405180910390fd5b6107b984848484035f611215565b6001600160a01b038316610db457604051634b637e8f60e11b81525f6004820152602401610d74565b6001600160a01b038216610ddd5760405163ec442f0560e01b81525f6004820152602401610d74565b6107f28383836112f9565b6108168133611304565b5f5f80516020611b1d833981519152610e0b8484610a4d565b610e8a575f848152602082815260408083206001600160a01b03871684529091529020805460ff19166001179055610e403390565b6001600160a01b0316836001600160a01b0316857f2f8788117e7eff1d82e926ec794901d17c78024a50270940304540a733656f0d60405160405180910390a4600191505061067d565b5f91505061067d565b5092915050565b5f5f80516020611b1d833981519152610eb38484610a4d565b15610e8a575f848152602082815260408083206001600160a01b0387168085529252808320805460ff1916905551339287917ff6391f5c32d9c69d2a47ea670b442974b53935d1edc7fd64eb21e047a839171b9190a4600191505061067d565b610f1b61133d565b5f80516020611b3d833981519152805460ff191681557f5db9ee0a495bf2e6ff9c91a7834c1ba4fdd244a5e8aa4e537bd38aeae4b073aa335b6040516001600160a01b03909116815260200160405180910390a150565b6001600160a01b038216610f9b5760405163ec442f0560e01b81525f6004820152602401610d74565b61087c5f83836112f9565b306001600160a01b037f000000000000000000000000000000000000000000000000000000000000000016148061102c57507f00000000000000000000000000000000000000000000000000000000000000006001600160a01b03166110205f80516020611abd833981519152546001600160a01b031690565b6001600160a01b031614155b1561104a5760405163703e46dd60e11b815260040160405180910390fd5b565b5f61087c81610de8565b816001600160a01b03166352d1902d6040518163ffffffff1660e01b8152600401602060405180830381865afa9250505080156110b0575060408051601f3d908101601f191682019092526110ad91810190611985565b60015b6110d857604051634c9c8ce360e01b81526001600160a01b0383166004820152602401610d74565b5f80516020611abd833981519152811461110857604051632a87526960e21b815260048101829052602401610d74565b6107f2838361136c565b306001600160a01b037f0000000000000000000000000000000000000000000000000000000000000000161461104a5760405163703e46dd60e11b815260040160405180910390fd5b5f80516020611b3d8339815191525460ff161561104a5760405163d93c066560e01b815260040160405180910390fd5b61119361115b565b5f80516020611b3d833981519152805460ff191660011781557f62e78cea01bee320cd4e420270b5ea74000d11b0c9f74754ebdbfc544b05a25833610f54565b5f807ff0c57e16840df040f15088dc2f81fe391c3923bec73e23a9662efc9c229c6a0061067d565b6112036113c1565b61087c82826113e6565b61104a6113c1565b5f80516020611a9d8339815191526001600160a01b03851661124c5760405163e602df0560e01b81525f6004820152602401610d74565b6001600160a01b03841661127557604051634a1406b160e11b81525f6004820152602401610d74565b6001600160a01b038086165f908152600183016020908152604080832093881683529290522083905581156112f257836001600160a01b0316856001600160a01b03167f8c5be1e5ebec7d5bd14f71427d1e84f3dd0314c0f7b2291e5b200ac8c7c3b925856040516112e991815260200190565b60405180910390a35b5050505050565b6107f2838383611436565b61130e8282610a4d565b61087c5760405163e2517d3f60e01b81526001600160a01b038216600482015260248101839052604401610d74565b5f80516020611b3d8339815191525460ff1661104a57604051638dfc202b60e01b815260040160405180910390fd5b61137582611449565b6040516001600160a01b038316907fbc7cd75a20ee27fd9adebab32041f755214dbc6bffa90cc0225b39da2e5c2d3b905f90a28051156113b9576107f282826114ac565b61087c611545565b6113c9611564565b61104a57604051631afcd79f60e31b815260040160405180910390fd5b6113ee6113c1565b5f80516020611a9d8339815191527f52c63247e1f47db19d5ce0460030c497f067ca4cebf71ba98eeadabe20bace0361142784826119e0565b50600481016107b983826119e0565b61143e61115b565b6107f283838361157d565b806001600160a01b03163b5f0361147e57604051634c9c8ce360e01b81526001600160a01b0382166004820152602401610d74565b5f80516020611abd83398151915280546001600160a01b0319166001600160a01b0392909216919091179055565b60605f6114b984846116b6565b90508080156114da57505f3d11806114da57505f846001600160a01b03163b115b156114ef576114e76116c9565b91505061067d565b801561151957604051639996b31560e01b81526001600160a01b0385166004820152602401610d74565b3d1561152c576115276116e2565b610e93565b60405163d6bda27560e01b815260040160405180910390fd5b341561104a5760405163b398979f60e01b815260040160405180910390fd5b5f61156d6111d3565b54600160401b900460ff16919050565b5f80516020611a9d8339815191526001600160a01b0384166115b75781816002015f8282546115ac9190611966565b909155506116279050565b6001600160a01b0384165f90815260208290526040902054828110156116095760405163391434e360e21b81526001600160a01b03861660048201526024810182905260448101849052606401610d74565b6001600160a01b0385165f9081526020839052604090209083900390555b6001600160a01b038316611645576002810180548390039055611663565b6001600160a01b0383165f9081526020829052604090208054830190555b826001600160a01b0316846001600160a01b03167fddf252ad1be2c89b69c2b068fc378daa952ba7f163c4a11628f55a4df523b3ef846040516116a891815260200190565b60405180910390a350505050565b5f805f835160208501865af49392505050565b6040513d81523d5f602083013e3d602001810160405290565b6040513d5f823e3d81fd5b5f602082840312156116fd575f80fd5b81356001600160e01b031981168114610aff575f80fd5b5f602080835283518060208501525f5b8181101561174057858101830151858201604001528201611724565b505f604082860101526040601f19601f8301168501019250505092915050565b80356001600160a01b0381168114611776575f80fd5b919050565b5f806040838503121561178c575f80fd5b61179583611760565b946020939093013593505050565b5f805f606084860312156117b5575f80fd5b6117be84611760565b92506117cc60208501611760565b9150604084013590509250925092565b5f602082840312156117ec575f80fd5b5035919050565b5f8060408385031215611804575f80fd5b8235915061181460208401611760565b90509250929050565b634e487b7160e01b5f52604160045260245ffd5b5f8060408385031215611842575f80fd5b61184b83611760565b9150602083013567ffffffffffffffff80821115611867575f80fd5b818501915085601f83011261187a575f80fd5b81358181111561188c5761188c61181d565b604051601f8201601f19908116603f011681019083821181831017156118b4576118b461181d565b816040528281528860208487010111156118cc575f80fd5b826020860160208301375f6020848301015280955050505050509250929050565b5f602082840312156118fd575f80fd5b610aff82611760565b5f8060408385031215611917575f80fd5b61192083611760565b915061181460208401611760565b600181811c9082168061194257607f821691505b60208210810361196057634e487b7160e01b5f52602260045260245ffd5b50919050565b8082018082111561067d57634e487b7160e01b5f52601160045260245ffd5b5f60208284031215611995575f80fd5b5051919050565b601f8211156107f257805f5260205f20601f840160051c810160208510156119c15750805b601f840160051c820191505b818110156112f2575f81556001016119cd565b815167ffffffffffffffff8111156119fa576119fa61181d565b611a0e81611a08845461192e565b8461199c565b602080601f831160018114611a41575f8415611a2a5750858301515b5f19600386901b1c1916600185901b178555610cae565b5f85815260208120601f198616915b82811015611a6f57888601518255948401946001909101908401611a50565b5085821015611a8c57878501515f19600388901b60f8161c191681555b5050505050600190811b0190555056fe52c63247e1f47db19d5ce0460030c497f067ca4cebf71ba98eeadabe20bace00360894a13ba1a3210667c828492db98dca3e2076cc3735a920a3ca505d382bbc65d7a28e3265b37a6474929f336521b332c1681b933f6cb9f3376673440d862a9f2df0fed2c77648de5860a4cc508cd0818c85b8b8a1ab4ceeef8d981c8956a602dd7bc7dec4dceedda775e58dd541e08a116c6c53815c0bd028192f7b626800cd5ed15c6e187e77e9aee88184c21f4f2182ab5827cb3b7e07fbedcd63f03300a26469706673582212209d03acd8fda46d5b727fe3e52822b8b97796636d5086f4c282b8cce4d9ab621e64736f6c63430008160033","linkReferences":{}},"methodIdentifiers":{"DAILY_MINT_AMOUNT()":"a5ebc844","DEFAULT_ADMIN_ROLE()":"a217fddf","MINTER_ROLE()":"d5391393","MINT_COOLDOWN()":"f7ee7a43","PAUSER_ROLE()":"e63ab1e9","STARTER_BONUS()":"805b59f6","UPGRADE_INTERFACE_VERSION()":"ad3cb1cc","allowance(address,address)":"dd62ed3e","approve(address,uint256)":"095ea7b3","balanceOf(address)":"70a08231","canMintDaily(address)":"b9301640","dailyMint()":"7b996fd6","decimals()":"313ce567","getRoleAdmin(bytes32)":"248a9ca3","grantRole(bytes32,address)":"2f2ff15d","hasReceivedStarter(address)":"946b8898","hasRole(bytes32,address)":"91d14854","initialize(address)":"c4d66de8","lastMintTimestamp(address)":"be13197b","mint(address,uint256)":"40c10f19","name()":"06fdde03","pause()":"8456cb59","paused()":"5c975abb","proxiableUUID()":"52d1902d","registerPlayer(address)":"6b5cc6d9","renounceRole(bytes32,address)":"36568abe","revokeRole(bytes32,address)":"d547741f","supportsInterface(bytes4)":"01ffc9a7","symbol()":"95d89b41","totalSupply()":"18160ddd","transfer(address,uint256)":"a9059cbb","transferFrom(address,address,uint256)":"23b872dd","unpause()":"3f4ba83a","upgradeToAndCall(address,bytes)":"4f1ef286"},"id":47}