{"abi":[{"type":"constructor","inputs":[{"name":"admin","type":"address","internalType":"address"},{"name":"baseURI","type":"string","internalType":"string"},{"name":"_mockOrangeToken","type":"address","internalType":"address"},{"name":"_landNFT","type":"address","internalType":"address"}],"stateMutability":"nonpayable"},{"type":"function","name":"DEFAULT_ADMIN_ROLE","inputs":[],"outputs":[{"name":"","type":"bytes32","internalType":"bytes32"}],"stateMutability":"view"},{"type":"function","name":"MINTER_ROLE","inputs":[],"outputs":[{"name":"","type":"bytes32","internalType":"bytes32"}],"stateMutability":"view"},{"type":"function","name":"PAUSER_ROLE","inputs":[],"outputs":[{"name":"","type":"bytes32","internalType":"bytes32"}],"stateMutability":"view"},{"type":"function","name":"approve","inputs":[{"name":"to","type":"address","internalType":"address"},{"name":"tokenId","type":"uint256","internalType":"uint256"}],"outputs":[],"stateMutability":"nonpayable"},{"type":"function","name":"assignBotToLand","inputs":[{"name":"botId","type":"uint256","internalType":"uint256"},{"name":"landId","type":"uint256","internalType":"uint256"}],"outputs":[],"stateMutability":"nonpayable"},{"type":"function","name":"balanceOf","inputs":[{"name":"owner","type":"address","internalType":"address"}],"outputs":[{"name":"","type":"uint256","internalType":"uint256"}],"stateMutability":"view"},{"type":"function","name":"botData","inputs":[{"name":"","type":"uint256","internalType":"uint256"}],"outputs":[{"name":"botType","type":"uint8","internalType":"enum BotNFT.BotType"},{"name":"efficiency","type":"uint16","internalType":"uint16"},{"name":"totalHarvests","type":"uint32","internalType":"uint32"},{"name":"creationTimestamp","type":"uint64","internalType":"uint64"},{"name":"assignedLandId","type":"uint256","internalType":"uint256"}],"stateMutability":"view"},{"type":"function","name":"getApproved","inputs":[{"name":"tokenId","type":"uint256","internalType":"uint256"}],"outputs":[{"name":"","type":"address","internalType":"address"}],"stateMutability":"view"},{"type":"function","name":"getBotData","inputs":[{"name":"tokenId","type":"uint256","internalType":"uint256"}],"outputs":[{"name":"","type":"tuple","internalType":"struct BotNFT.BotData","components":[{"name":"botType","type":"uint8","internalType":"enum BotNFT.BotType"},{"name":"efficiency","type":"uint16","internalType":"uint16"},{"name":"totalHarvests","type":"uint32","internalType":"uint32"},{"name":"creationTimestamp","type":"uint64","internalType":"uint64"},{"name":"assignedLandId","type":"uint256","internalType":"uint256"}]}],"stateMutability":"view"},{"type":"function","name":"getOwnerBots","inputs":[{"name":"owner","type":"address","internalType":"address"}],"outputs":[{"name":"","type":"uint256[]","internalType":"uint256[]"}],"stateMutability":"view"},{"type":"function","name":"getRoleAdmin","inputs":[{"name":"role","type":"bytes32","internalType":"bytes32"}],"outputs":[{"name":"","type":"bytes32","internalType":"bytes32"}],"stateMutability":"view"},{"type":"function","name":"getUpgradeCost","inputs":[{"name":"botId","type":"uint256","internalType":"uint256"}],"outputs":[{"name":"","type":"uint256","internalType":"uint256"}],"stateMutability":"view"},{"type":"function","name":"grantRole","inputs":[{"name":"role","type":"bytes32","internalType":"bytes32"},{"name":"account","type":"address","internalType":"address"}],"outputs":[],"stateMutability":"nonpayable"},{"type":"function","name":"hasRole","inputs":[{"name":"role","type":"bytes32","internalType":"bytes32"},{"name":"account","type":"address","internalType":"address"}],"outputs":[{"name":"","type":"bool","internalType":"bool"}],"stateMutability":"view"},{"type":"function","name":"incrementHarvests","inputs":[{"name":"botId","type":"uint256","internalType":"uint256"}],"outputs":[],"stateMutability":"nonpayable"},{"type":"function","name":"isApprovedForAll","inputs":[{"name":"owner","type":"address","internalType":"address"},{"name":"operator","type":"address","internalType":"address"}],"outputs":[{"name":"","type":"bool","internalType":"bool"}],"stateMutability":"view"},{"type":"function","name":"landNFT","inputs":[],"outputs":[{"name":"","type":"address","internalType":"address"}],"stateMutability":"view"},{"type":"function","name":"mint","inputs":[{"name":"to","type":"address","internalType":"address"},{"name":"botType","type":"uint8","internalType":"enum BotNFT.BotType"}],"outputs":[{"name":"","type":"uint256","internalType":"uint256"}],"stateMutability":"nonpayable"},{"type":"function","name":"mockOrangeToken","inputs":[],"outputs":[{"name":"","type":"address","internalType":"address"}],"stateMutability":"view"},{"type":"function","name":"name","inputs":[],"outputs":[{"name":"","type":"string","internalType":"string"}],"stateMutability":"view"},{"type":"function","name":"ownerOf","inputs":[{"name":"tokenId","type":"uint256","internalType":"uint256"}],"outputs":[{"name":"","type":"address","internalType":"address"}],"stateMutability":"view"},{"type":"function","name":"pause","inputs":[],"outputs":[],"stateMutability":"nonpayable"},{"type":"function","name":"paused","inputs":[],"outputs":[{"name":"","type":"bool","internalType":"bool"}],"stateMutability":"view"},{"type":"function","name":"renounceRole","inputs":[{"name":"role","type":"bytes32","internalType":"bytes32"},{"name":"callerConfirmation","type":"address","internalType":"address"}],"outputs":[],"stateMutability":"nonpayable"},{"type":"function","name":"revokeRole","inputs":[{"name":"role","type":"bytes32","internalType":"bytes32"},{"name":"account","type":"address","internalType":"address"}],"outputs":[],"stateMutability":"nonpayable"},{"type":"function","name":"safeTransferFrom","inputs":[{"name":"from","type":"address","internalType":"address"},{"name":"to","type":"address","internalType":"address"},{"name":"tokenId","type":"uint256","internalType":"uint256"}],"outputs":[],"stateMutability":"nonpayable"},{"type":"function","name":"safeTransferFrom","inputs":[{"name":"from","type":"address","internalType":"address"},{"name":"to","type":"address","internalType":"address"},{"name":"tokenId","type":"uint256","internalType":"uint256"},{"name":"data","type":"bytes","internalType":"bytes"}],"outputs":[],"stateMutability":"nonpayable"},{"type":"function","name":"setApprovalForAll","inputs":[{"name":"operator","type":"address","internalType":"address"},{"name":"approved","type":"bool","internalType":"bool"}],"outputs":[],"stateMutability":"nonpayable"},{"type":"function","name":"setBaseURI","inputs":[{"name":"newBaseURI","type":"string","internalType":"string"}],"outputs":[],"stateMutability":"nonpayable"},{"type":"function","name":"supportsInterface","inputs":[{"name":"interfaceId","type":"bytes4","internalType":"bytes4"}],"outputs":[{"name":"","type":"bool","internalType":"bool"}],"stateMutability":"view"},{"type":"function","name":"symbol","inputs":[],"outputs":[{"name":"","type":"string","internalType":"string"}],"stateMutability":"view"},{"type":"function","name":"tokenOfOwnerByIndex","inputs":[{"name":"owner","type":"address","internalType":"address"},{"name":"index","type":"uint256","internalType":"uint256"}],"outputs":[{"name":"","type":"uint256","internalType":"uint256"}],"stateMutability":"view"},{"type":"function","name":"tokenURI","inputs":[{"name":"tokenId","type":"uint256","internalType":"uint256"}],"outputs":[{"name":"","type":"string","internalType":"string"}],"stateMutability":"view"},{"type":"function","name":"transferFrom","inputs":[{"name":"from","type":"address","internalType":"address"},{"name":"to","type":"address","internalType":"address"},{"name":"tokenId","type":"uint256","internalType":"uint256"}],"outputs":[],"stateMutability":"nonpayable"},{"type":"function","name":"unassignBotFromLand","inputs":[{"name":"botId","type":"uint256","internalType":"uint256"}],"outputs":[],"stateMutability":"nonpayable"},{"type":"function","name":"unpause","inputs":[],"outputs":[],"stateMutability":"nonpayable"},{"type":"function","name":"upgradeBot","inputs":[{"name":"botId","type":"uint256","internalType":"uint256"}],"outputs":[],"stateMutability":"nonpayable"},{"type":"event","name":"Approval","inputs":[{"name":"owner","type":"address","indexed":true,"internalType":"address"},{"name":"approved","type":"address","indexed":true,"internalType":"address"},{"name":"tokenId","type":"uint256","indexed":true,"internalType":"uint256"}],"anonymous":false},{"type":"event","name":"ApprovalForAll","inputs":[{"name":"owner","type":"address","indexed":true,"internalType":"address"},{"name":"operator","type":"address","indexed":true,"internalType":"address"},{"name":"approved","type":"bool","indexed":false,"internalType":"bool"}],"anonymous":false},{"type":"event","name":"BaseURIUpdated","inputs":[{"name":"newBaseURI","type":"string","indexed":false,"internalType":"string"}],"anonymous":false},{"type":"event","name":"BatchMetadataUpdate","inputs":[{"name":"_fromTokenId","type":"uint256","indexed":false,"internalType":"uint256"},{"name":"_toTokenId","type":"uint256","indexed":false,"internalType":"uint256"}],"anonymous":false},{"type":"event","name":"BotAssigned","inputs":[{"name":"botId","type":"uint256","indexed":true,"internalType":"uint256"},{"name":"landId","type":"uint256","indexed":true,"internalType":"uint256"}],"anonymous":false},{"type":"event","name":"BotMinted","inputs":[{"name":"owner","type":"address","indexed":true,"internalType":"address"},{"name":"tokenId","type":"uint256","indexed":true,"internalType":"uint256"},{"name":"botType","type":"uint8","indexed":false,"internalType":"enum BotNFT.BotType"},{"name":"efficiency","type":"uint16","indexed":false,"internalType":"uint16"}],"anonymous":false},{"type":"event","name":"BotUnassigned","inputs":[{"name":"botId","type":"uint256","indexed":true,"internalType":"uint256"}],"anonymous":false},{"type":"event","name":"BotUpgraded","inputs":[{"name":"tokenId","type":"uint256","indexed":true,"internalType":"uint256"},{"name":"newType","type":"uint8","indexed":false,"internalType":"enum BotNFT.BotType"},{"name":"newEfficiency","type":"uint16","indexed":false,"internalType":"uint16"}],"anonymous":false},{"type":"event","name":"MetadataUpdate","inputs":[{"name":"_tokenId","type":"uint256","indexed":false,"internalType":"uint256"}],"anonymous":false},{"type":"event","name":"Paused","inputs":[{"name":"account","type":"address","indexed":false,"internalType":"address"}],"anonymous":false},{"type":"event","name":"RoleAdminChanged","inputs":[{"name":"role","type":"bytes32","indexed":true,"internalType":"bytes32"},{"name":"previousAdminRole","type":"bytes32","indexed":true,"internalType":"bytes32"},{"name":"newAdminRole","type":"bytes32","indexed":true,"internalType":"bytes32"}],"anonymous":false},{"type":"event","name":"RoleGranted","inputs":[{"name":"role","type":"bytes32","indexed":true,"internalType":"bytes32"},{"name":"account","type":"address","indexed":true,"internalType":"address"},{"name":"sender","type":"address","indexed":true,"internalType":"address"}],"anonymous":false},{"type":"event","name":"RoleRevoked","inputs":[{"name":"role","type":"bytes32","indexed":true,"internalType":"bytes32"},{"name":"account","type":"address","indexed":true,"internalType":"address"},{"name":"sender","type":"address","indexed":true,"internalType":"address"}],"anonymous":false},{"type":"event","name":"Transfer","inputs":[{"name":"from","type":"address","indexed":true,"internalType":"address"},{"name":"to","type":"address","indexed":true,"internalType":"address"},{"name":"tokenId","type":"uint256","indexed":true,"internalType":"uint256"}],"anonymous":false},{"type":"event","name":"Unpaused","inputs":[{"name":"account","type":"address","indexed":false,"internalType":"address"}],"anonymous":false},{"type":"error","name":"AccessControlBadConfirmation","inputs":[]},{"type":"error","name":"AccessControlUnauthorizedAccount","inputs":[{"name":"account","type":"address","internalType":"address"},{"name":"neededRole","type":"bytes32","internalType":"bytes32"}]},{"type":"error","name":"ERC721IncorrectOwner","inputs":[{"name":"sender","type":"address","internalType":"address"},{"name":"tokenId","type":"uint256","internalType":"uint256"},{"name":"owner","type":"address","internalType":"address"}]},{"type":"error","name":"ERC721InsufficientApproval","inputs":[{"name":"operator","type":"address","internalType":"address"},{"name":"tokenId","type":"uint256","internalType":"uint256"}]},{"type":"error","name":"ERC721InvalidApprover","inputs":[{"name":"approver","type":"address","internalType":"address"}]},{"type":"error","name":"ERC721InvalidOperator","inputs":[{"name":"operator","type":"address","internalType":"address"}]},{"type":"error","name":"ERC721InvalidOwner","inputs":[{"name":"owner","type":"address","internalType":"address"}]},{"type":"error","name":"ERC721InvalidReceiver","inputs":[{"name":"receiver","type":"address","internalType":"address"}]},{"type":"error","name":"ERC721InvalidSender","inputs":[{"name":"sender","type":"address","internalType":"address"}]},{"type":"error","name":"ERC721NonexistentToken","inputs":[{"name":"tokenId","type":"uint256","internalType":"uint256"}]},{"type":"error","name":"EnforcedPause","inputs":[]},{"type":"error","name":"ExpectedPause","inputs":[]}],"bytecode":{"object":"0x60406080815234620006825762002d8790813803806200001f81620006a6565b93843982019160808184031262000682576200003b81620006cc565b60208201519091906001600160401b0381116200068257810184601f8201121562000682578051906001600160401b038211620003b25762000087601f8301601f1916602001620006a6565b958287526020838301011162000682575f5b8281106200066c57505060205f9186010152620000c66060620000be858401620006cc565b9201620006cc565b90620000d162000686565b600f81526e13dc985b99d94811985c9b48109bdd608a1b6020820152620000f762000686565b60038152621093d560ea1b6020820152815190916001600160401b038211620003b2575f5490600182811c9216801562000661575b6020831014620003935781601f84931162000601575b50602090601f83116001146200058d575f9262000581575b50508160011b915f199060031b1c1916175f555b8051906001600160401b038211620003b25760015490600182811c9216801562000576575b6020831014620003935781601f84931162000515575b50602090601f83116001146200049e575f9262000492575b50508160011b915f199060031b1c1916176001555b6001600160a01b0390838216156200044e5781169182156200040a5716918215620003c657806200020b6200021e92620006e1565b50620002178162000751565b50620007f2565b5083516001600160401b038111620003b257600954600181811c91168015620003a7575b60208210146200039357601f81116200032b575b50602094601f8211600114620002c2579481929394955f92620002b6575b50508160011b915f199060031b1c1916176009555b60018060a01b03199081600d541617600d55600e541617600e556001600a555161247990816200088e8239f35b015190505f8062000274565b601f1982169560095f5260205f20915f5b8881106200031257508360019596979810620002f9575b505050811b0160095562000289565b01515f1960f88460031b161c191690555f8080620002ea565b91926020600181928685015181550194019201620002d3565b60095f527f6e1540171b6c0c960b71a7020d9f60077f6af931a8bbf590da0223dacf75c7af601f830160051c8101916020841062000388575b601f0160051c01905b8181106200037c575062000256565b5f81556001016200036d565b909150819062000364565b634e487b7160e01b5f52602260045260245ffd5b90607f169062000242565b634e487b7160e01b5f52604160045260245ffd5b835162461bcd60e51b815260206004820152601f60248201527f426f744e46543a206c616e644e4654206973207a65726f2061646472657373006044820152606490fd5b845162461bcd60e51b815260206004820152601d60248201527f426f744e46543a20746f6b656e206973207a65726f20616464726573730000006044820152606490fd5b845162461bcd60e51b815260206004820152601d60248201527f426f744e46543a2061646d696e206973207a65726f20616464726573730000006044820152606490fd5b015190505f80620001c1565b60015f9081525f8051602062002d478339815191529350601f198516905b818110620004fc5750908460019594939210620004e3575b505050811b01600155620001d6565b01515f1960f88460031b161c191690555f8080620004d4565b92936020600181928786015181550195019301620004bc565b60015f529091505f8051602062002d47833981519152601f840160051c810191602085106200056b575b90601f859493920160051c01905b8181106200055c5750620001a9565b5f81558493506001016200054d565b90915081906200053f565b91607f169162000193565b015190505f806200015a565b5f8080525f8051602062002d278339815191529350601f198516905b818110620005e85750908460019594939210620005cf575b505050811b015f556200016e565b01515f1960f88460031b161c191690555f8080620005c1565b92936020600181928786015181550195019301620005a9565b5f80529091505f8051602062002d27833981519152601f840160051c8101916020851062000656575b90601f859493920160051c01905b81811062000647575062000142565b5f815584935060010162000638565b90915081906200062a565b91607f16916200012c565b80602080928401015182828a0101520162000099565b5f80fd5b60408051919082016001600160401b03811183821017620003b257604052565b6040519190601f01601f191682016001600160401b03811183821017620003b257604052565b51906001600160a01b03821682036200068257565b6001600160a01b03165f8181525f8051602062002d67833981519152602052604090205460ff166200074c575f8181525f8051602062002d6783398151915260205260408120805460ff191660011790553391905f8051602062002d078339815191528180a4600190565b505f90565b6001600160a01b03165f8181527fa4bfd7afe708e2e87e7f0e2ad9b4d545417e0f795f57b5c5ab5d799c565a04f460205260409020547f9f2df0fed2c77648de5860a4cc508cd0818c85b8b8a1ab4ceeef8d981c8956a6919060ff16620007ec57815f52600760205260405f20815f5260205260405f20600160ff1982541617905533915f8051602062002d078339815191525f80a4600190565b50505f90565b6001600160a01b03165f8181527f270c7cc4331b1445974c76712d9bb2afa8846ba0435cde7d1460f79fd91c04bd60205260409020547f65d7a28e3265b37a6474929f336521b332c1681b933f6cb9f3376673440d862a919060ff16620007ec57815f52600760205260405f20815f5260205260405f20600160ff1982541617905533915f8051602062002d078339815191525f80a460019056fe60406080815260049081361015610014575f80fd5b5f3560e01c8062894d4c146114b057806301ffc9a71461140d57806306fdde0314611360578063081812fc14611328578063082d3496146112bc578063095ea7b3146111e157806323b872dd146111ca578063248a9ca3146111a05780632c4ee1ee146110bf5780632f2ff15d146110975780632f745c591461106f57806336568abe1461102b57806339d022e1146110035780633f4ba83a14610f9c57806342842e0e14610f6e57806352f4614914610f4657806355f804b314610d4957806356dad05114610c995780635c975abb14610c765780636352211e14610c47578063691562a01461083657806370a08231146108115780638456cb59146107b857806391d148541461077457806395d89b4114610691578063a217fddf14610677578063a22cb465146105dc578063af49829a14610548578063b409fc4c1461048a578063b88d4fde1461041f578063c25d0f2a14610338578063c87b56dd14610302578063d5391393146102c8578063d547741f1461028c578063e63ab1e914610252578063e985e9c5146102045763ff329e7c146101b2575f80fd5b346102005760203660031901126102005760209135805f52600283526101e460018060a01b03835f2054161515611bc2565b5f52600b82526101f960ff825f205416611c2c565b9051908152f35b5f80fd5b5034610200578060031936011261020057602090610220611702565b610228611718565b9060018060a01b038091165f5260058452825f2091165f52825260ff815f20541690519015158152f35b5034610200575f36600319011261020057602090517f65d7a28e3265b37a6474929f336521b332c1681b933f6cb9f3376673440d862a8152f35b50346102005780600319360112610200576102c691356102c160016102af611718565b93835f5260076020525f200154611dd6565b611e76565b005b5034610200575f36600319011261020057602090517f9f2df0fed2c77648de5860a4cc508cd0818c85b8b8a1ab4ceeef8d981c8956a68152f35b5034610200576020366003190112610200576103216103349235612077565b90519182916020835260208301906116bc565b0390f35b5034610200576020806003193601126102005760a092355f6080845161035d81611763565b828152828582015282868201528260608201520152805f526002825261038e600180861b03845f2054161515611bc2565b5f52600b8152815f208251926103a384611763565b8154906103b360ff831686611b80565b61ffff9380860194808460081c16865263ffffffff9183880191838660181c168352600167ffffffffffffffff978860608c019860381c16885201549760808a019889526104048651809b516116e1565b51169088015251169085015251166060830152516080820152f35b823461020057608036600319011261020057610439611702565b610441611718565b6044359060643567ffffffffffffffff81116102005736602382011215610200576102c694816024610478933693013591016117ed565b926104848383836118bc565b33611eea565b5034610200576020366003190112610200578135916104bb6104ab84611cc8565b6001600160a01b03163314611823565b825f52600b6020526001825f20015415610506575060015f91838352600b602052822001557fdd96d445bfd2b391cf10997e4d4dc765d56d247fb36da52a9b899786d5ac31885f80a2005b6020606492519162461bcd60e51b8352820152601860248201527f426f744e46543a20626f74206e6f742061737369676e656400000000000000006044820152fd5b5034610200576020366003190112610200578135610564611d7b565b5f818152600260205282902054610585906001600160a01b03161515611bc2565b5f52600b6020525f2063ffffffff9182825460181c169283146105c9575060016102c6920166ffffffff00000082549160181b169066ffffffff0000001916179055565b601190634e487b7160e01b5f525260245ffd5b50346102005780600319360112610200576105f5611702565b9060243591821515809303610200576001600160a01b03169283156106625750335f526005602052805f20835f52602052805f2060ff1981541660ff8416179055519081527f17307eab39ab6107e8899845ad3d59bd9653f200f220920489ca2b5937696c3160203392a3005b836024925191630b61174360e31b8352820152fd5b5034610200575f36600319011261020057602090515f8152f35b5034610200575f366003190112610200578051905f9082600192600154936106b885611884565b90818452602095866001821691825f146107525750506001146106f7575b505061033492916106e89103856117af565b519282849384528301906116bc565b9085925060015f527fb10e2d527612073b26eecdfd717e6a320cf44b4afac2b0732d9fcbe2b7fa0cf6915f925b82841061073a57505050820101816106e86106d6565b8054848a018601528895508794909301928101610724565b60ff19168682015292151560051b850190920192508391506106e890506106d6565b5034610200578060031936011261020057602091610790611718565b90355f5260078352815f209060018060a01b03165f52825260ff815f20541690519015158152f35b5034610200575f3660031901126102005760207f62e78cea01bee320cd4e420270b5ea74000d11b0c9f74754ebdbfc544b05a258916107f5611d02565b6107fd611c0e565b600160ff19600854161760085551338152a1005b5034610200576020366003190112610200576020906101f9610831611702565b611b8c565b509034610200578160031936011261020057610850611702565b916024928335600381101561020057610867611d7b565b61086f611c0e565b6001600160a01b03828116959094908615610c0557600260ff841611610bc3579086939291600a54966108a188611ab4565b600a556108ad84611ca2565b948751916108ba83611793565b5f83526108c5611c0e565b895f528960209b8c92600284528b5f20541660028115159485610b92575b835f52600381528d5f2060018154019055845f52528b5f20826001600160601b0360a01b8254161790557fddf252ad1be2c89b69c2b068fc378daa952ba7f163c4a11628f55a4df523b3ef5f80a4610b7d573b610a61575b5087879187519361094b85611763565b6109558686611b80565b82850161ffff9182891682528a8701935f8552600b606089019667ffffffffffffffff4216885260808a01985f8a525f52528b5f209751916003831015610a505750508654915162ffffff1990921660ff90911617911660081b62ffff00161784558896957fa7397be2228a795ea1442bd46d931cf45ae5019099856732ef63c166e31eb51e95909490939092600192610a0f9063ffffffff9051865466ffffffff0000001916911660181b66ffffffff00000016178555565b5167ffffffffffffffff60381b84549160381b169067ffffffffffffffff60381b191617835551910155610a47865192839283611867565b0390a351908152f35b602190634e487b7160e01b5f52525ffd5b9188949282995f839a9694610aa38b9a9b519485938493630a85bd0160e11b9889865233908601528401528960448401526080606484015260848301906116bc565b03815f8c5af15f9181610b3d575b50610b0a5750505050503d5f14610b02573d90610acd826117d1565b91610ada845193846117af565b82523d5f8284013e5b81519182610aff575050505191633250574960e11b8352820152fd5b01fd5b606090610ae3565b63ffffffff60e09a93959994969a9897981b1603610b28578761093b565b8551633250574960e11b815291820185905290fd5b9091508681813d8311610b76575b610b5581836117af565b8101031261020057516001600160e01b03198116810361020057905f610ab1565b503d610b4b565b87516339e3563760e11b81525f818601528390fd5b5f85815260046020526040812080546001600160a01b0319169055838152600382528e902080545f190190556108e3565b906018606492602087519362461bcd60e51b85528401528201527f426f744e46543a20696e76616c696420626f74207479706500000000000000006044820152fd5b90601c606492602087519362461bcd60e51b85528401528201527f426f744e46543a206d696e7420746f207a65726f2061646472657373000000006044820152fd5b503461020057602036600319011261020057610c6560209235611cc8565b90516001600160a01b039091168152f35b5034610200575f3660031901126102005760209060ff6008541690519015158152f35b503461020057806003193601126102005781359060243592610cbd6104ab84611cc8565b825f52600b6020526001825f200154610d07575060018391835f52600b6020525f2001557f911a007f5257a36bb7e8224e6ee49cc7d12eb97944fdfc4d3cc54f0410f894f05f80a3005b6020606492519162461bcd60e51b8352820152601c60248201527f426f744e46543a20626f7420616c72656164792061737369676e6564000000006044820152fd5b509034610200576020806003193601126102005767ffffffffffffffff928235848111610200573660238201121561020057610d8e90369060248187013591016117ed565b925f805260078352815f20335f52835260ff825f20541615610f2a578351948511610f175750610dbf600954611884565b601f8111610ec8575b508193601f8111600114610e37579081610e27927f6741b2fc379fad678116fe3d4d4b9a1a184ab53ba36b86ad0fa66340b1ab41ad965f91610e2c575b508160011b915f199060031b1c191617600955519282849384528301906116bc565b0390a1005b90508501515f610e05565b601f1981169460095f525f80516020612424833981519152955f5b818110610eb15750917f6741b2fc379fad678116fe3d4d4b9a1a184ab53ba36b86ad0fa66340b1ab41ad9660019282610e27969510610e99575b5050811b016009556106e8565b8701515f1960f88460031b161c191690555f80610e8c565b868301518855600190970196918501918501610e52565b60095f525f80516020612424833981519152601f860160051c810191848710610f0d575b601f0160051c01905b818110610f025750610dc8565b5f8155600101610ef5565b9091508190610eec565b604190634e487b7160e01b5f525260245ffd5b604491519063e2517d3f60e01b825233908201525f6024820152fd5b5034610200575f36600319011261020057600d5490516001600160a01b039091168152602090f35b5034610200576102c690610f813661172e565b91925192610f8e84611793565b5f84526104848383836118bc565b5034610200575f36600319011261020057610fb5611d02565b6008549160ff831615610ff5577f5db9ee0a495bf2e6ff9c91a7834c1ba4fdd244a5e8aa4e537bd38aeae4b073aa6020838560ff191660085551338152a1005b9051638dfc202b60e01b8152fd5b5034610200575f36600319011261020057600e5490516001600160a01b039091168152602090f35b5034610200578060031936011261020057611044611718565b90336001600160a01b0383160361106057506102c69135611e76565b5163334bd91960e11b81529050fd5b50346102005780600319360112610200576020906101f961108e611702565b60243590611ad6565b50346102005780600319360112610200576102c691356110ba60016102af611718565b611df8565b50903461020057602090816003193601126102005791906110de611702565b906110e882611b8c565b936110f285611a5a565b946110ff855196876117af565b80865261110b81611a5a565b8684019490601f19013686375f5b828110611160575050505082519384938285019183865251809252840192915f5b82811061114957505050500390f35b83518552869550938101939281019260010161113a565b61116e818399979899611ad6565b865182101561118d57600582901b870186015294969594600101611119565b603285634e487b7160e01b5f525260245ffd5b503461020057602036600319011261020057602091355f52600782526001815f2001549051908152f35b34610200576102c66111db3661172e565b916118bc565b50346102005780600319360112610200576111fa611702565b9160243561120781611cc8565b331515806112a9575b80611282575b61126c576001600160a01b039485169482918691167f8c5be1e5ebec7d5bd14f71427d1e84f3dd0314c0f7b2291e5b200ac8c7c3b9255f80a45f526020525f20906001600160601b0360a01b8254161790555f80f35b835163a9fbf51f60e01b81523381850152602490fd5b5060018060a01b0381165f526005602052835f20335f5260205260ff845f20541615611216565b506001600160a01b038116331415611210565b50346102005760203660031901126102005760a091355f52600b602052805f2067ffffffffffffffff60018254920154918351936112fd8560ff84166116e1565b61ffff8260081c16602086015263ffffffff8260181c169085015260381c1660608301526080820152f35b503461020057602036600319011261020057816020923561134881611cc8565b505f52825260018060a01b03815f2054169051908152f35b5034610200575f366003190112610200578051905f90825f549261138384611884565b808352602094600190866001821691825f146107525750506001146113b457505061033492916106e89103856117af565b5f80805286935091907f290decd9548b62a8d60345a988386fc84ba6bc95484008f6362f93160ef3e5635b8284106113f557505050820101816106e86106d6565b8054848a0186015288955087949093019281016113df565b509034610200576020366003190112610200573563ffffffff60e01b811680910361020057602091637965db0b60e01b8214918215611450575b50519015158152f35b909150632483248360e11b811490811561146d575b50905f611447565b6380ac58cd60e01b81149150811561149f575b811561148e575b505f611465565b6301ffc9a760e01b1490505f611487565b635b5e139f60e01b81149150611480565b503461020057602080600319360112610200578235926114ce611c0e565b6114d784611cc8565b6001600160a01b0392906114ee9084163314611823565b845f52600b8152835f209260ff8454166003811015611688576002811461164557918091606461151e5f95611c2c565b91600d541691885195869384926323b872dd60e01b8452338a85015230602485015260448401525af1801561163b57611608575b505081549060ff82169060038210156115f55750917f019c5e88252d91ff08f28d53b514cb8d5d3f3caa8fdf4615de9e6f31bfa6084f93916115e293155f146115e75750805460ff191660011781555b6115ca6115b260ff835416611ca2565b825462ffff00191660089190911b62ffff0016178255565b549051918160ff61ffff859460081c16911683611867565b0390a2005b60ff191660021781556115a2565b602190634e487b7160e01b5f525260245ffd5b81813d8311611634575b61161c81836117af565b81010312610200575180151503610200575f80611552565b503d611612565b85513d5f823e3d90fd5b855162461bcd60e51b8152808501849052601960248201527f426f744e46543a20616c7265616479206d6178206c6576656c000000000000006044820152606490fd5b602184634e487b7160e01b5f525260245ffd5b5f5b8381106116ac5750505f910152565b818101518382015260200161169d565b906020916116d58151809281855285808601910161169b565b601f01601f1916010190565b9060038210156116ee5752565b634e487b7160e01b5f52602160045260245ffd5b600435906001600160a01b038216820361020057565b602435906001600160a01b038216820361020057565b6060906003190112610200576001600160a01b0390600435828116810361020057916024359081168103610200579060443590565b60a0810190811067ffffffffffffffff82111761177f57604052565b634e487b7160e01b5f52604160045260245ffd5b6020810190811067ffffffffffffffff82111761177f57604052565b90601f8019910116810190811067ffffffffffffffff82111761177f57604052565b67ffffffffffffffff811161177f57601f01601f191660200190565b9291926117f9826117d1565b9161180760405193846117af565b829481845281830111610200578281602093845f960137010152565b1561182a57565b60405162461bcd60e51b81526020600482015260156024820152742137ba27232a1d103737ba103137ba1037bbb732b960591b6044820152606490fd5b90929161ffff60209161187e8460408101976116e1565b16910152565b90600182811c921680156118b2575b602083101461189e57565b634e487b7160e01b5f52602260045260245ffd5b91607f1691611893565b6001600160a01b039182169290918315611a42576118d8611c0e565b815f52602092600284528260409583875f20541695331515806119b0575b506002908761197f575b825f5260038152885f2060018154019055835f5252865f20816001600160601b0360a01b825416179055857fddf252ad1be2c89b69c2b068fc378daa952ba7f163c4a11628f55a4df523b3ef5f80a4169283830361195e5750505050565b6064945051926364283d7b60e01b8452600484015260248301526044820152fd5b5f84815260046020526040812080546001600160a01b03191690558881526003825289902080545f19019055611900565b9192509080611a01575b156119c8579084915f6118f6565b8685876119e5576024915190637e27328960e01b82526004820152fd5b604491519063177e802f60e01b82523360048301526024820152fd5b503386148015611a26575b806119ba5750845f52600481523384885f205416146119ba565b50855f5260058152865f20335f52815260ff875f205416611a0c565b604051633250574960e11b81525f6004820152602490fd5b67ffffffffffffffff811161177f5760051b60200190565b60809060208152602160208201527f426f744e46543a206f776e657220696e646578206f7574206f6620626f756e646040820152607360f81b60608201520190565b5f198114611ac25760010190565b634e487b7160e01b5f52601160045260245ffd5b9091611ae182611b8c565b831015611b67575f90600193600193600a54945b858110611b195760405162461bcd60e51b815280611b1560048201611a72565b0390fd5b5f818152600260205260409020548791906001600160a01b03848116911614611b43575b01611af5565b949050828114611b5d57611b578791611ab4565b94611b3d565b5050509250905090565b60405162461bcd60e51b815280611b1560048201611a72565b60038210156116ee5752565b6001600160a01b03168015611baa575f52600360205260405f205490565b6040516322718ad960e21b81525f6004820152602490fd5b15611bc957565b60405162461bcd60e51b815260206004820152601960248201527f426f744e46543a20626f7420646f65736e2774206578697374000000000000006044820152606490fd5b60ff60085416611c1a57565b60405163d93c066560e01b8152600490fd5b60038110156116ee578015611c9457600114611c875760405162461bcd60e51b815260206004820152601c60248201527f426f744e46543a2063616e6e6f74207570677261646520456c697465000000006044820152606490fd5b680d8d726b7177a8000090565b5068056bc75e2d6310000090565b60038110156116ee578015611cc257600114611cbd5760c890565b609690565b50606490565b5f818152600260205260409020546001600160a01b0316908115611cea575090565b60249060405190637e27328960e01b82526004820152fd5b335f9081527f270c7cc4331b1445974c76712d9bb2afa8846ba0435cde7d1460f79fd91c04bd60205260409020547f65d7a28e3265b37a6474929f336521b332c1681b933f6cb9f3376673440d862a9060ff1615611d5d5750565b6044906040519063e2517d3f60e01b82523360048301526024820152fd5b335f9081527fa4bfd7afe708e2e87e7f0e2ad9b4d545417e0f795f57b5c5ab5d799c565a04f460205260409020547f9f2df0fed2c77648de5860a4cc508cd0818c85b8b8a1ab4ceeef8d981c8956a69060ff1615611d5d5750565b805f52600760205260405f20335f5260205260ff60405f20541615611d5d5750565b90815f52600760205260405f209060018060a01b031690815f5260205260ff60405f205416155f14611e7057815f52600760205260405f20815f5260205260405f20600160ff1982541617905533917f2f8788117e7eff1d82e926ec794901d17c78024a50270940304540a733656f0d5f80a4600190565b50505f90565b90815f52600760205260405f209060018060a01b031690815f5260205260ff60405f2054165f14611e7057815f52600760205260405f20815f5260205260405f2060ff19815416905533917ff6391f5c32d9c69d2a47ea670b442974b53935d1edc7fd64eb21e047a839171b5f80a4600190565b9293909193843b611efd575b5050505050565b604051630a85bd0160e11b8082526001600160a01b039586166004830152938516602482015260448101919091526080606482015260209594909316939290859082908190611f509060848301906116bc565b03815f885af15f9181611ff4575b50611fbd575050503d5f14611fb5573d91611f78836117d1565b92611f8660405194856117af565b83523d5f8285013e5b82519283611fb057604051633250574960e11b815260048101849052602490fd5b019050fd5b606091611f8f565b9193506001600160e01b031990911603611fdc57505f80808080611ef6565b60249060405190633250574960e11b82526004820152fd5b9091508581813d831161202d575b61200c81836117af565b8101031261020057516001600160e01b03198116810361020057905f611f5e565b503d612002565b6020612075919392936040519481612055879351809286808701910161169b565b82016120698251809386808501910161169b565b010380855201836117af565b565b61208081611cc8565b50805f52602060068152604090815f20928251935f90858154926120a384611884565b928383526001948786821691825f146124035750506001146123c5575b506120cd925003866117af565b8351600954955f916120de88611884565b80825281858a16948589815f146123a8575060011461235f575b612104925003826117af565b80511561235457815161234357505061211c83611cc8565b50845180965f908661212d82611884565b808552949182156123265750506001146122dd575b61214e925003866117af565b8451156122c8578180935f917a184f03e93ff9f4daa797ed6e38ed64bf6a1f01000000000000000090818110156122bb575b50506d04ee2d6d415b85acef8100000000808610156122ae575b50662386f26fc100008086101561229f575b506305f5e10080861015612290575b5061271080861015612281575b50606485101561226f575b9060219183600a80971015612265575b94939291908382016122006121f7826117d1565b9951998a6117af565b80895261220f601f19916117d1565b01903690890137860101905b612230575b5050505061222d91612034565b90565b5f19019083906f181899199a1a9b1b9c1cb0b131b232b360811b8282061a8353049182156122605791908261221b565b612220565b90910190836121e3565b600260646021939604950191506121d3565b6004919295049401905f6121c8565b6008919295049401905f6121bb565b6010919295049401905f6121ac565b819295049401905f61219a565b0494508591505f80612180565b5050509050516122d781611793565b5f815290565b505060095f5285845f80516020612424833981519152845f915b85831061230d57505061214e9350820101612142565b80919294505483858c01015201910185908489936122f7565b60ff19168482015261214e94151560051b84010191506121429050565b9450945050505061222d9250612034565b509550505050505090565b505060095f5281875f80516020612424833981519152875f915b85831061238f57505061210493508201016120f8565b8091929450548385880101520191018890878593612379565b9150506121049260ff198c1682840152151560051b8201016120f8565b9150505f528584805f20845f915b8583106123ea5750506120cd93508201015f6120c0565b80919294505483858c01015201910185908489936123d3565b60ff1916858201526120cd95151560051b85010192505f91506120c0905056fe6e1540171b6c0c960b71a7020d9f60077f6af931a8bbf590da0223dacf75c7afa2646970667358221220bf6b8ef52d750958a7b3c30436b0bf2ceb7089f58eb9bcc9d68af6a8024ead2364736f6c634300081800332f8788117e7eff1d82e926ec794901d17c78024a50270940304540a733656f0d290decd9548b62a8d60345a988386fc84ba6bc95484008f6362f93160ef3e563b10e2d527612073b26eecdfd717e6a320cf44b4afac2b0732d9fcbe2b7fa0cf66d5257204ebe7d88fd91ae87941cb2dd9d8062b64ae5a2bd2d28ec40b9fbf6df","linkReferences":{}},"methodIdentifiers":{"DEFAULT_ADMIN_ROLE()":"a217fddf","MINTER_ROLE()":"d5391393","PAUSER_ROLE()":"e63ab1e9","approve(address,uint256)":"095ea7b3","assignBotToLand(uint256,uint256)":"56dad051","balanceOf(address)":"70a08231","botData(uint256)":"082d3496","getApproved(uint256)":"081812fc","getBotData(uint256)":"c25d0f2a","getOwnerBots(address)":"2c4ee1ee","getRoleAdmin(bytes32)":"248a9ca3","getUpgradeCost(uint256)":"ff329e7c","grantRole(bytes32,address)":"2f2ff15d","hasRole(bytes32,address)":"91d14854","incrementHarvests(uint256)":"af49829a","isApprovedForAll(address,address)":"e985e9c5","landNFT()":"39d022e1","mint(address,uint8)":"691562a0","mockOrangeToken()":"52f46149","name()":"06fdde03","ownerOf(uint256)":"6352211e","pause()":"8456cb59","paused()":"5c975abb","renounceRole(bytes32,address)":"36568abe","revokeRole(bytes32,address)":"d547741f","safeTransferFrom(address,address,uint256)":"42842e0e","safeTransferFrom(address,address,uint256,bytes)":"b88d4fde","setApprovalForAll(address,bool)":"a22cb465","setBaseURI(string)":"55f804b3","supportsInterface(bytes4)":"01ffc9a7","symbol()":"95d89b41","tokenOfOwnerByIndex(address,uint256)":"2f745c59","tokenURI(uint256)":"c87b56dd","transferFrom(address,address,uint256)":"23b872dd","unassignBotFromLand(uint256)":"b409fc4c","unpause()":"3f4ba83a","upgradeBot(uint256)":"00894d4c"},"id":93}