{"abi":[{"type":"constructor","inputs":[{"name":"admin","type":"address","internalType":"address"},{"name":"_mockOrangeToken","type":"address","internalType":"address"},{"name":"_landNFT","type":"address","internalType":"address"},{"name":"_botNFT","type":"address","internalType":"address"},{"name":"_waterToken","type":"address","internalType":"address"},{"name":"_defaultReferrer","type":"string","internalType":"string"}],"stateMutability":"nonpayable"},{"type":"function","name":"ADMIN_ROLE","inputs":[],"outputs":[{"name":"","type":"bytes32","internalType":"bytes32"}],"stateMutability":"view"},{"type":"function","name":"DEFAULT_ADMIN_ROLE","inputs":[],"outputs":[{"name":"","type":"bytes32","internalType":"bytes32"}],"stateMutability":"view"},{"type":"function","name":"GAME_MASTER_ROLE","inputs":[],"outputs":[{"name":"","type":"bytes32","internalType":"bytes32"}],"stateMutability":"view"},{"type":"function","name":"botNFT","inputs":[],"outputs":[{"name":"","type":"address","internalType":"address"}],"stateMutability":"view"},{"type":"function","name":"commitHarvest","inputs":[{"name":"player","type":"address","internalType":"address"},{"name":"orangeAmount","type":"uint256","internalType":"uint256"}],"outputs":[],"stateMutability":"nonpayable"},{"type":"function","name":"defaultReferrer","inputs":[],"outputs":[{"name":"","type":"string","internalType":"string"}],"stateMutability":"view"},{"type":"function","name":"getLeaderboard","inputs":[{"name":"limit","type":"uint256","internalType":"uint256"}],"outputs":[{"name":"players","type":"address[]","internalType":"address[]"},{"name":"oranges","type":"uint256[]","internalType":"uint256[]"},{"name":"levels","type":"uint32[]","internalType":"uint32[]"}],"stateMutability":"view"},{"type":"function","name":"getPlayerProfile","inputs":[{"name":"player","type":"address","internalType":"address"}],"outputs":[{"name":"","type":"tuple","internalType":"struct GameRegistry.PlayerProfile","components":[{"name":"username","type":"string","internalType":"string"},{"name":"referralCode","type":"string","internalType":"string"},{"name":"referredBy","type":"address","internalType":"address"},{"name":"registrationTimestamp","type":"uint64","internalType":"uint64"},{"name":"hasClaimedStarter","type":"bool","internalType":"bool"}]}],"stateMutability":"view"},{"type":"function","name":"getPlayerRank","inputs":[{"name":"player","type":"address","internalType":"address"}],"outputs":[{"name":"rank","type":"uint256","internalType":"uint256"}],"stateMutability":"view"},{"type":"function","name":"getPlayerStats","inputs":[{"name":"player","type":"address","internalType":"address"}],"outputs":[{"name":"","type":"tuple","internalType":"struct GameRegistry.PlayerStats","components":[{"name":"totalOrangesCommitted","type":"uint256","internalType":"uint256"},{"name":"level","type":"uint32","internalType":"uint32"},{"name":"lastHarvestCommit","type":"uint64","internalType":"uint64"},{"name":"totalHarvests","type":"uint64","internalType":"uint64"}]}],"stateMutability":"view"},{"type":"function","name":"getReferralCount","inputs":[{"name":"referrer","type":"address","internalType":"address"}],"outputs":[{"name":"","type":"uint256","internalType":"uint256"}],"stateMutability":"view"},{"type":"function","name":"getReferralData","inputs":[{"name":"player","type":"address","internalType":"address"}],"outputs":[{"name":"referrer","type":"address","internalType":"address"},{"name":"referredPlayers_","type":"address[]","internalType":"address[]"},{"name":"totalRewards","type":"uint256","internalType":"uint256"}],"stateMutability":"view"},{"type":"function","name":"getRoleAdmin","inputs":[{"name":"role","type":"bytes32","internalType":"bytes32"}],"outputs":[{"name":"","type":"bytes32","internalType":"bytes32"}],"stateMutability":"view"},{"type":"function","name":"grantRole","inputs":[{"name":"role","type":"bytes32","internalType":"bytes32"},{"name":"account","type":"address","internalType":"address"}],"outputs":[],"stateMutability":"nonpayable"},{"type":"function","name":"hasRole","inputs":[{"name":"role","type":"bytes32","internalType":"bytes32"},{"name":"account","type":"address","internalType":"address"}],"outputs":[{"name":"","type":"bool","internalType":"bool"}],"stateMutability":"view"},{"type":"function","name":"isReferralCodeAvailable","inputs":[{"name":"referralCode","type":"string","internalType":"string"}],"outputs":[{"name":"","type":"bool","internalType":"bool"}],"stateMutability":"view"},{"type":"function","name":"isRegistered","inputs":[{"name":"player","type":"address","internalType":"address"}],"outputs":[{"name":"","type":"bool","internalType":"bool"}],"stateMutability":"view"},{"type":"function","name":"isUsernameAvailable","inputs":[{"name":"username","type":"string","internalType":"string"}],"outputs":[{"name":"","type":"bool","internalType":"bool"}],"stateMutability":"view"},{"type":"function","name":"landNFT","inputs":[],"outputs":[{"name":"","type":"address","internalType":"address"}],"stateMutability":"view"},{"type":"function","name":"mockOrangeToken","inputs":[],"outputs":[{"name":"","type":"address","internalType":"address"}],"stateMutability":"view"},{"type":"function","name":"pause","inputs":[],"outputs":[],"stateMutability":"nonpayable"},{"type":"function","name":"paused","inputs":[],"outputs":[{"name":"","type":"bool","internalType":"bool"}],"stateMutability":"view"},{"type":"function","name":"playerList","inputs":[{"name":"","type":"uint256","internalType":"uint256"}],"outputs":[{"name":"","type":"address","internalType":"address"}],"stateMutability":"view"},{"type":"function","name":"playerProfiles","inputs":[{"name":"","type":"address","internalType":"address"}],"outputs":[{"name":"username","type":"string","internalType":"string"},{"name":"referralCode","type":"string","internalType":"string"},{"name":"referredBy","type":"address","internalType":"address"},{"name":"registrationTimestamp","type":"uint64","internalType":"uint64"},{"name":"hasClaimedStarter","type":"bool","internalType":"bool"}],"stateMutability":"view"},{"type":"function","name":"playerStats","inputs":[{"name":"","type":"address","internalType":"address"}],"outputs":[{"name":"totalOrangesCommitted","type":"uint256","internalType":"uint256"},{"name":"level","type":"uint32","internalType":"uint32"},{"name":"lastHarvestCommit","type":"uint64","internalType":"uint64"},{"name":"totalHarvests","type":"uint64","internalType":"uint64"}],"stateMutability":"view"},{"type":"function","name":"referralCodeToWallet","inputs":[{"name":"","type":"string","internalType":"string"}],"outputs":[{"name":"","type":"address","internalType":"address"}],"stateMutability":"view"},{"type":"function","name":"referralEarnings","inputs":[{"name":"","type":"address","internalType":"address"}],"outputs":[{"name":"","type":"uint256","internalType":"uint256"}],"stateMutability":"view"},{"type":"function","name":"referralReward","inputs":[],"outputs":[{"name":"","type":"uint256","internalType":"uint256"}],"stateMutability":"view"},{"type":"function","name":"referredPlayers","inputs":[{"name":"","type":"address","internalType":"address"},{"name":"","type":"uint256","internalType":"uint256"}],"outputs":[{"name":"","type":"address","internalType":"address"}],"stateMutability":"view"},{"type":"function","name":"register","inputs":[{"name":"username","type":"string","internalType":"string"},{"name":"referralCode","type":"string","internalType":"string"},{"name":"referredByCode","type":"string","internalType":"string"}],"outputs":[],"stateMutability":"nonpayable"},{"type":"function","name":"renounceRole","inputs":[{"name":"role","type":"bytes32","internalType":"bytes32"},{"name":"callerConfirmation","type":"address","internalType":"address"}],"outputs":[],"stateMutability":"nonpayable"},{"type":"function","name":"revokeRole","inputs":[{"name":"role","type":"bytes32","internalType":"bytes32"},{"name":"account","type":"address","internalType":"address"}],"outputs":[],"stateMutability":"nonpayable"},{"type":"function","name":"setDefaultReferrer","inputs":[{"name":"_defaultReferrer","type":"string","internalType":"string"}],"outputs":[],"stateMutability":"nonpayable"},{"type":"function","name":"starterTokenAmount","inputs":[],"outputs":[{"name":"","type":"uint256","internalType":"uint256"}],"stateMutability":"view"},{"type":"function","name":"starterWaterAmount","inputs":[],"outputs":[{"name":"","type":"uint256","internalType":"uint256"}],"stateMutability":"view"},{"type":"function","name":"supportsInterface","inputs":[{"name":"interfaceId","type":"bytes4","internalType":"bytes4"}],"outputs":[{"name":"","type":"bool","internalType":"bool"}],"stateMutability":"view"},{"type":"function","name":"totalPlayers","inputs":[],"outputs":[{"name":"","type":"uint256","internalType":"uint256"}],"stateMutability":"view"},{"type":"function","name":"unpause","inputs":[],"outputs":[],"stateMutability":"nonpayable"},{"type":"function","name":"updateStarterPackConfig","inputs":[{"name":"_starterTokenAmount","type":"uint256","internalType":"uint256"},{"name":"_starterWaterAmount","type":"uint256","internalType":"uint256"},{"name":"_referralReward","type":"uint256","internalType":"uint256"}],"outputs":[],"stateMutability":"nonpayable"},{"type":"function","name":"usernameToWallet","inputs":[{"name":"","type":"string","internalType":"string"}],"outputs":[{"name":"","type":"address","internalType":"address"}],"stateMutability":"view"},{"type":"function","name":"waterToken","inputs":[],"outputs":[{"name":"","type":"address","internalType":"address"}],"stateMutability":"view"},{"type":"event","name":"DefaultReferrerUpdated","inputs":[{"name":"oldReferrer","type":"string","indexed":false,"internalType":"string"},{"name":"newReferrer","type":"string","indexed":false,"internalType":"string"}],"anonymous":false},{"type":"event","name":"HarvestCommitted","inputs":[{"name":"player","type":"address","indexed":true,"internalType":"address"},{"name":"orangeAmount","type":"uint256","indexed":false,"internalType":"uint256"},{"name":"timestamp","type":"uint64","indexed":false,"internalType":"uint64"}],"anonymous":false},{"type":"event","name":"LevelUp","inputs":[{"name":"player","type":"address","indexed":true,"internalType":"address"},{"name":"newLevel","type":"uint32","indexed":false,"internalType":"uint32"}],"anonymous":false},{"type":"event","name":"Paused","inputs":[{"name":"account","type":"address","indexed":false,"internalType":"address"}],"anonymous":false},{"type":"event","name":"PlayerRegistered","inputs":[{"name":"player","type":"address","indexed":true,"internalType":"address"},{"name":"username","type":"string","indexed":false,"internalType":"string"},{"name":"referralCode","type":"string","indexed":false,"internalType":"string"},{"name":"referredBy","type":"address","indexed":true,"internalType":"address"}],"anonymous":false},{"type":"event","name":"ReferralRewarded","inputs":[{"name":"referrer","type":"address","indexed":true,"internalType":"address"},{"name":"referee","type":"address","indexed":true,"internalType":"address"},{"name":"rewardAmount","type":"uint256","indexed":false,"internalType":"uint256"}],"anonymous":false},{"type":"event","name":"RoleAdminChanged","inputs":[{"name":"role","type":"bytes32","indexed":true,"internalType":"bytes32"},{"name":"previousAdminRole","type":"bytes32","indexed":true,"internalType":"bytes32"},{"name":"newAdminRole","type":"bytes32","indexed":true,"internalType":"bytes32"}],"anonymous":false},{"type":"event","name":"RoleGranted","inputs":[{"name":"role","type":"bytes32","indexed":true,"internalType":"bytes32"},{"name":"account","type":"address","indexed":true,"internalType":"address"},{"name":"sender","type":"address","indexed":true,"internalType":"address"}],"anonymous":false},{"type":"event","name":"RoleRevoked","inputs":[{"name":"role","type":"bytes32","indexed":true,"internalType":"bytes32"},{"name":"account","type":"address","indexed":true,"internalType":"address"},{"name":"sender","type":"address","indexed":true,"internalType":"address"}],"anonymous":false},{"type":"event","name":"StarterPackClaimed","inputs":[{"name":"player","type":"address","indexed":true,"internalType":"address"},{"name":"landId","type":"uint256","indexed":false,"internalType":"uint256"},{"name":"botId","type":"uint256","indexed":false,"internalType":"uint256"},{"name":"tokenAmount","type":"uint256","indexed":false,"internalType":"uint256"},{"name":"waterAmount","type":"uint256","indexed":false,"internalType":"uint256"}],"anonymous":false},{"type":"event","name":"Unpaused","inputs":[{"name":"account","type":"address","indexed":false,"internalType":"address"}],"anonymous":false},{"type":"error","name":"AccessControlBadConfirmation","inputs":[]},{"type":"error","name":"AccessControlUnauthorizedAccount","inputs":[{"name":"account","type":"address","internalType":"address"},{"name":"neededRole","type":"bytes32","internalType":"bytes32"}]},{"type":"error","name":"EnforcedPause","inputs":[]},{"type":"error","name":"ExpectedPause","inputs":[]}],"bytecode":{"object":"0x60406080815234620004a25762002d7f803803806200001e81620004a6565b92833981019060c081830312620004a2576200003a81620004cc565b906020926200004b848301620004cc565b9062000059868401620004cc565b906200006860608501620004cc565b946200007760808601620004cc565b60a08601516001600160401b0396919291878211620004a2570196601f9484868a011215620004a2578851888111620002ec57601f1999620000bf8289018c168d01620004a6565b968288528c8383010111620004a2578b905f5b8381106200048d5750505f91870101526802b5e3af16b188000060065568056bc75e2d6310000060075568015af1d78b58c400006008556001600160a01b0390838216156200043d5781881615620003ed5781169182156200039e578116938415620003505716918215620003005780620001516200016492620004e1565b506200015d8162000551565b50620005f1565b50600195865490610100600160a81b039060081b1690610100600160a81b03191617865560018060a01b03199182600254161760025581600354161760035560045416176004558051938411620002ec5760059586548481811c91168015620002e1575b82821014620002cd5783811162000287575b5080928511600114620002225750839450908392915f9462000216575b50501b915f199060031b1c19161790555b516126b390816200068c8239f35b015192505f80620001f7565b929484908116875f52845f20945f905b888383106200026c575050501062000253575b505050811b01905562000208565b01515f1960f88460031b161c191690555f808062000245565b85870151885590960195948501948793509081019062000232565b875f52815f20848088018a1c820192848910620002c3575b01891c019085905b828110620002b7575050620001da565b5f8155018590620002a7565b925081926200029f565b634e487b7160e01b5f52602260045260245ffd5b90607f1690620001c8565b634e487b7160e01b5f52604160045260245ffd5b8a5162461bcd60e51b8152600481018b9052602360248201527f47616d6552656769737472793a207761746572206973207a65726f206164647260448201526265737360e81b6064820152608490fd5b8b5162461bcd60e51b8152600481018c9052602160248201527f47616d6552656769737472793a20626f74206973207a65726f206164647265736044820152607360f81b6064820152608490fd5b8b5162461bcd60e51b8152600481018c9052602260248201527f47616d6552656769737472793a206c616e64206973207a65726f206164647265604482015261737360f01b6064820152608490fd5b8b5162461bcd60e51b8152600481018c9052602360248201527f47616d6552656769737472793a20746f6b656e206973207a65726f206164647260448201526265737360e81b6064820152608490fd5b8b5162461bcd60e51b8152600481018c9052602360248201527f47616d6552656769737472793a2061646d696e206973207a65726f206164647260448201526265737360e81b6064820152608490fd5b8181018301518982018401528d9201620000d2565b5f80fd5b6040519190601f01601f191682016001600160401b03811183821017620002ec57604052565b51906001600160a01b0382168203620004a257565b6001600160a01b03165f8181525f8051602062002d5f833981519152602052604090205460ff166200054c575f8181525f8051602062002d5f83398151915260205260408120805460ff191660011790553391905f8051602062002d3f8339815191528180a4600190565b505f90565b6001600160a01b03165f8181527f7d7ffb7a348e1c6a02869081a26547b49160dd3df72d1d75a570eb9b698292ec60205260409020547fa49807205ce4d355092ef5a8a18f56e8913cf4a201fbe287825b095693c21775919060ff16620005eb57815f525f60205260405f20815f5260205260405f20600160ff1982541617905533915f8051602062002d3f8339815191525f80a4600190565b50505f90565b6001600160a01b03165f8181527f4f306b4d0458e2cd68141231489da32956509686005b70d3cf229dfd69ed84b460205260409020547f1d93c87416ca7b54f0fb8323167b72760e8e2ec93d48660953897a150f97a8b4919060ff16620005eb57815f525f60205260405f20815f5260205260405f20600160ff1982541617905533915f8051602062002d3f8339815191525f80a460019056fe6080806040526004361015610012575f80fd5b5f905f3560e01c90816301ffc9a71461203d5750806307ed5c82146120155780631aa7867814611ff8578063248a9ca314611fcc57806324acbd6914611f945780632f2ff15d14611f5857806336568abe14611f0f57806339d022e114611ee75780633f4ba83a14611e7e5780634cd08d03146112625780634d683674146112445780634fd66eae1461118f57806352f46149146111625780635c975abb1461113f5780636462462314610f2e5780636ed059ff14610f0557806375b238fc14610eca5780638456cb5914610e705780638a5e3a4814610e075780638e2801e814610d9e57806391b3312514610d6a57806391d1485414610d21578063a217fddf14610d05578063a34b46fe14610a45578063a367463314610986578063a697cb0e146108d1578063ad1def1e14610896578063ae6d907314610852578063aefc7cd7146107f7578063b37732a614610756578063bf38029f14610738578063c07b528a146106ff578063c3c5a547146106d1578063c68c6146146106a2578063cdafbbb614610639578063d50f898914610534578063d547741f146104f3578063e96df20a14610489578063f60cdcf61461046b578063f69c6dec146104015763f800e866146101e1575f80fd5b346103fe57602090816003193601126103fe576001600160401b03916004358381116103fa57610215903690600401612126565b905f80525f815260405f20335f52815260ff60405f205416156103dc5761023a6121d4565b9082519485116103c857600590610251825461219c565b601f8111610369575b5080601f87116001146102c75750948085967f769a061f68dc9db393890324457f0cbba0fe7f7c399ffd105a024e40651de71496916102bc575b508160011b915f199060031b1c19161790555b6102b660405192839283612418565b0390a180f35b90508401515f610294565b90601f1987168387527f036b6384b5eca791c62761152d0c79bb0604c104a5fb6f4eb0703f3154bb3db09287905b8282106103515750509187917f769a061f68dc9db393890324457f0cbba0fe7f7c399ffd105a024e40651de714979860019410610339575b5050811b0190556102a7565b8601515f1960f88460031b161c191690555f8061032d565b80600185968294968b015181550195019301906102f5565b8286527f036b6384b5eca791c62761152d0c79bb0604c104a5fb6f4eb0703f3154bb3db0601f8801841c8101918389106103be575b601f01841c01905b8181106103b3575061025a565b8681556001016103a6565b909150819061039e565b634e487b7160e01b84526041600452602484fd5b60405163e2517d3f60e01b81523360048201525f6024820152604490fd5b8280fd5b80fd5b50346103fe5760203660031901126103fe57600435906001600160401b0382116103fe5760206104343660048501612126565b81610448604051928381519384920161217b565b600b90820190815281900382019020546040516001600160a01b03909116158152f35b50346103fe57806003193601126103fe576020601054604051908152f35b50346103fe5760203660031901126103fe57600435906001600160401b0382116103fe5760206104bc3660048501612126565b816104d0604051928381519384920161217b565b600c90820190815281900382019020546040516001600160a01b03909116158152f35b50346103fe5760403660031901126103fe576105306004356105136120a6565b908084528360205261052b6001604086200154612550565b6125ed565b5080f35b50346103fe576020806003193601126106355760a0916040610554612090565b918060808351610563816120bc565b6060815260608782015282858201528260608201520152600180861b03809316815260098452209160405192610598846120bc565b6105a181612297565b845260026105b160018301612297565b918386019283520154916040850193808416855261061a6001600160401b0393610607606089019486888c1c16865260ff60808b019860e01c16151588526040519a8b9a828c5251918b015260c08a0190612337565b9051888203601f190160408a0152612337565b94511660608601525116608084015251151560a08301520390f35b5080fd5b50346103fe5760203660031901126103fe576080906040906001600160a01b03610661612090565b168152600a60205220600181549101546001600160401b039060405192835263ffffffff81166020840152818160201c16604084015260601c166060820152f35b50346103fe5760603660031901126103fe576106bc6124f5565b60043560065560243560075560443560085580f35b50346103fe5760203660031901126103fe5760206106f56106f0612090565b6124d0565b6040519015158152f35b50346103fe5760203660031901126103fe576020906040906001600160a01b03610727612090565b168152600e83522054604051908152f35b50346103fe57806003193601126103fe576020600754604051908152f35b50346103fe5760203660031901126103fe576107c0906001600160a01b039060409082610781612090565b1681526009602052209060ff61079683612297565b926107ce60026107a860018401612297565b9201549160405196879660a0885260a0880190612337565b908682036020880152612337565b92811660408501526001600160401b038160a01c16606085015260e01c16151560808301520390f35b50346103fe5760403660031901126103fe57610811612090565b6001600160a01b039081168252600d60205260408220805460243593908410156103fe5750602092610842916123e1565b9190546040519260031b1c168152f35b50346103fe5760203660031901126103fe5760043590600f548210156103fe57602061087d83612398565b905460405160039290921b1c6001600160a01b03168152f35b50346103fe57806003193601126103fe5760206040517f1d93c87416ca7b54f0fb8323167b72760e8e2ec93d48660953897a150f97a8b48152f35b50346103fe57602080600319360112610635576108ec612090565b6108fd6108f8826124d0565b612440565b60018060a01b03809116808452600a93600a6020526040812054906001956001958295601054965b87811061093757602089604051908152f35b80826109438c93612398565b90549060031b1c16888114159081610972575b50610962575b01610925565b9861096c906123f6565b9861095c565b90508652848452866040872054115f610956565b50346103fe57602090816003193601126103fe576001600160a01b03806109ab612090565b1691828152600984528160026040832001541692600d855260408220604051908194859288835491828152019286528886209186905b8a838310610a28578a87610a1e60408c8c6109fe858d0386612105565b8152600e865220549160606040519586958652850152606084019061235c565b9060408301520390f35b8454821686528996509094019360019384019391909101906109e1565b50346103fe57602090816003193601126103fe5760105460043581811115610cfe57505b610a72816124a5565b91610a806040519384612105565b818352610a8c826124a5565b601f19929083013685870137610aa1816124a5565b90610aaf6040519283612105565b808252610abb816124a5565b91848782019301368437610ace826124a5565b91610adc6040519384612105565b808352610ae8816124a5565b8389019601368737845b818110610c915750845b818110610b91575050908691610b209760405198899860608a5260608a019061235c565b91888303828a01525191828152019390855b818110610b7a5750505085830360408701525180835291810193925b828110610b5d57505050500390f35b835163ffffffff1685528695509381019392810192600101610b4e565b825186528998509484019491840191600101610b32565b6001989594969798808201808311610c7d575b838110610bbb575050600101979695939497610afc565b80610bc78392876124bc565b51610bd285886124bc565b5110610bdf575b01610ba4565b6001600160a01b03610c16858e83610bf786836124bc565b511693610c0483836124bc565b5116610c1086836124bc565b526124bc565b52610c2181876124bc565b51610c2c85886124bc565b51610c3783896124bc565b52610c4285886124bc565b5263ffffffff80610c53838a6124bc565b511690610c60868a6124bc565b5116610c6c838a6124bc565b52610c7785896124bc565b52610bd9565b634e487b7160e01b87526011600452602487fd5b80610ca36001929a979698999a612398565b838060a01b0391549060031b1c1680610cbc838d6124bc565b52808752600a908189526040882054610cd584886124bc565b528752875263ffffffff8260408820015416610cf182876124bc565b5201979695939497610af2565b9050610a69565b50346103fe57806003193601126103fe57602090604051908152f35b50346103fe5760403660031901126103fe576040610d3d6120a6565b91600435815280602052209060018060a01b03165f52602052602060ff60405f2054166040519015158152f35b50346103fe57806003193601126103fe57610d9a610d866121d4565b604051918291602083526020830190612337565b0390f35b50346103fe5760203660031901126103fe57600435906001600160401b0382116103fe576020610dd13660048501612126565b81610de5604051928381519384920161217b565b600c90820190815281900382019020546040516001600160a01b039091168152f35b50346103fe5760203660031901126103fe57600435906001600160401b0382116103fe576020610e3a3660048501612126565b81610e4e604051928381519384920161217b565b600b90820190815281900382019020546040516001600160a01b039091168152f35b50346103fe57806003193601126103fe57610e896124f5565b610e9161265f565b600160ff19815416176001557f62e78cea01bee320cd4e420270b5ea74000d11b0c9f74754ebdbfc544b05a2586020604051338152a180f35b50346103fe57806003193601126103fe5760206040517fa49807205ce4d355092ef5a8a18f56e8913cf4a201fbe287825b095693c217758152f35b50346103fe57806003193601126103fe576002546040516001600160a01b039091168152602090f35b50346103fe5760403660031901126103fe57610f48612090565b335f9081527f4f306b4d0458e2cd68141231489da32956509686005b70d3cf229dfd69ed84b4602090815260409091205460243592907f1d93c87416ca7b54f0fb8323167b72760e8e2ec93d48660953897a150f97a8b49060ff16156111215750610fb56108f8826124d0565b60018060a01b031691828452600a825260408420610fd4828254612498565b90556001600160401b0380421690848652600a845260016040872001906110208383906bffffffffffffffff0000000082549160201b16906bffffffffffffffff000000001916179055565b80825460601c16908114610c7d57815467ffffffffffffffff60601b1916600190910160601b67ffffffffffffffff60601b1617905583917f4d0e22cb10afea398779bf654cd427d174feba36357c6fc531559314321960b89160409190825191825285820152a2818352600a8152683635c9adc5dea00000604084205404906001820180921161110d5763ffffffff809216838552600a825260016040862001805493841682116110d0578580f35b817f1d8ed0d9fe58f54d4b33312b362a91844a992e6eac548cc29a0950ebc03eeeab9463ffffffff1916179055604051908152a25f808080808580f35b634e487b7160e01b84526011600452602484fd5b6044906040519063e2517d3f60e01b82523360048301526024820152fd5b50346103fe57806003193601126103fe57602060ff600154166040519015158152f35b50346103fe57806003193601126103fe5760015460405160089190911c6001600160a01b03168152602090f35b50346103fe576020806003193601126106355760406080926111af612090565b81606084516111bd816120d7565b82815286810183905285810183905201526001600160a01b03168152600a83522060405190916111ec826120d7565b600183549384845201549063ffffffff928181019184841683526001600160401b0394859384606060408601958289871c168752019660601c1686526040519788525116908601525116604084015251166060820152f35b50346103fe57806003193601126103fe576020600854604051908152f35b503461197e57606036600319011261197e576004356001600160401b03811161197e57611293903690600401612126565b6024356001600160401b03811161197e576112b2903690600401612126565b906044356001600160401b03811161197e576112d2903690600401612126565b916112db61265f565b82825115611e39576014835111611df457335f52600960205261130160405f205461219c565b611db057815115611d61576010825111611d1057604051835161132881836020880161217b565b600b9082019081528190036020019020546001600160a01b0316611ccb57604051825161135981836020870161217b565b600c9082019081528190036020019020546001600160a01b0316611c7c575f935f91511580611c69575b611c57575b80519081611b69575b5050506040516113a0816120bc565b82815281602082015260018060a01b03841660408201526001600160401b03421660608201525f6080820152335f52600960205260405f2081518051906001600160401b0382116119345781906113f7845461219c565b601f8111611b1c575b50602090601f8311600114611ab4575f92611aa9575b50508160011b915f199060031b1c19161781555b60208201518051906001600160401b0382116119345761144d600184015461219c565b601f8111611a65575b50602090601f83116001146119f65760029392915f91836119eb575b50508160011b915f199060031b1c19161760018201555b019060018060a01b03604082015116908254916001600160401b0360a01b606083015160a01b1691608060ff60e01b910151151560e01b169262ffffff60e81b1617171790556115816040516114de816120d7565b5f81526001600160401b0360208201916001835261155982604083015f815263ffffffff600160608601955f8752335f52600a60205260405f20905181550196511663ffffffff19875416178655511684906bffffffffffffffff0000000082549160201b16906bffffffffffffffff000000001916179055565b51825467ffffffffffffffff60601b1916911660601b67ffffffffffffffff60601b16179055565b6040516020818451611596818385890161217b565b8101600b8152030190206bffffffffffffffffffffffff60a01b90338282541617905560405160208184516115ce818385890161217b565b8101600c815203019020903390825416179055600f5491680100000000000000009283811015611934578060016116089201600f55612398565b81546001600160a01b0360039290921b91821b19163390911b179055601054611630906123f6565b6010557f08b616c18a93f000a3fb14b5d7580277a6bd6f9dfa29e91273aad9949a6f3f6f6040518061166d60018060a01b03881695339583612418565b0390a3335f526009602052600260405f2001805460ff8160e01c1615611691578480f35b60ff60e01b1916600160e01b179055600354604051630348ab1560e51b8082523360048301525f602483018190529192909160209184916044918391906001600160a01b03165af1918215611973575f926119b6575b509060205f92604460018060a01b036004541691604051958693849283523360048401528160248401525af1918215611973575f92611982575b5060025460075492906001600160a01b0316803b1561197e576040516340c10f1960e01b8082523360048301526024820195909552905f908290604490829084905af1801561197357611960575b50600154600654879160081c6001600160a01b0316803b156103fa57604051868152336004820152602481019290925282908290604490829084905af1801561192557611948575b5050600654600754916040519384526020840152604083015260608201527f94e9ef2fadd8a89cc63727f3461acfe183c5cbf9ae0ca3c455fc84a606c3190860803392a26001600160a01b03831661180e57808480f35b6001600160a01b0383168452600d60205260408420805492831015611934578261183e91600187950181556123e1565b81546001600160a01b0360039290921b82811b199091163390911b179091556008549084168352600e602052604083208054909161187b91612498565b90556001546008805491901c6001600160a01b03169190823b15611930576040519182526001600160a01b038516600483015260248201529082908290604490829084905af1801561192557611911575b505060085460405190815233916001600160a01b0316907fb2dee5f49e7a09a5d7c95cd4dd5dc6410eea65d4e14519d6d3a6e14c8cf0e0e990602090a35f8080808480f35b61191a906120f2565b61063557815f6118cc565b6040513d84823e3d90fd5b8380fd5b634e487b7160e01b5f52604160045260245ffd5b611951906120f2565b61195c57855f6117b7565b8580fd5b61196b9196506120f2565b5f945f61176f565b6040513d5f823e3d90fd5b5f80fd5b9091506020813d6020116119ae575b8161199e60209383612105565b8101031261197e5751905f611721565b3d9150611991565b91506020823d6020116119e3575b816119d160209383612105565b8101031261197e5790519060206116e7565b3d91506119c4565b015190505f80611472565b90600184015f5260205f20915f5b601f1985168110611a4d575091839160019360029695601f19811610611a35575b505050811b016001820155611489565b01515f1960f88460031b161c191690555f8080611a25565b91926020600181928685015181550194019201611a04565b600184015f5260205f20601f840160051c810160208510611aa2575b601f830160051c82018110611a97575050611456565b5f8155600101611a81565b5080611a81565b015190505f80611416565b9250835f5260205f20905f935b601f1984168510611b01576001945083601f19811610611ae9575b505050811b01815561142a565b01515f1960f88460031b161c191690555f8080611adc565b81810151835560209485019460019093019290910190611ac1565b909150835f5260205f20601f840160051c810160208510611b62575b90849392915b601f830160051c82018110611b54575050611400565b5f8155859450600101611b3e565b5080611b38565b602092955081611b7f916040519485910161217b565b600c9082019081528190036020019020546001600160a01b03169215611ba8575b5f8080611391565b8215611c0657338303611ba05760405162461bcd60e51b815260206004820152602360248201527f47616d6552656769737472793a2063616e6e6f7420726566657220796f75727360448201526232b63360e91b6064820152608490fd5b60405162461bcd60e51b815260206004820152602360248201527f47616d6552656769737472793a20696e76616c696420726566657272657220636044820152626f646560e81b6064820152608490fd5b5050611c616121d4565b600190611388565b50611c7560055461219c565b1515611383565b60405162461bcd60e51b815260206004820152602160248201527f47616d6552656769737472793a20726566657272616c20636f64652074616b656044820152603760f91b6064820152608490fd5b60405162461bcd60e51b815260206004820152601c60248201527f47616d6552656769737472793a20757365726e616d652074616b656e000000006044820152606490fd5b60405162461bcd60e51b8152602060048201526024808201527f47616d6552656769737472793a20726566657272616c20636f646520746f6f206044820152636c6f6e6760e01b6064820152608490fd5b60405162461bcd60e51b815260206004820152602160248201527f47616d6552656769737472793a20726566657272616c20636f646520656d70746044820152607960f81b6064820152608490fd5b606460405162461bcd60e51b815260206004820152602060248201527f47616d6552656769737472793a20616c726561647920726567697374657265646044820152fd5b60405162461bcd60e51b815260206004820152601f60248201527f47616d6552656769737472793a20757365726e616d6520746f6f206c6f6e67006044820152606490fd5b60405162461bcd60e51b815260206004820152601c60248201527f47616d6552656769737472793a20757365726e616d6520656d707479000000006044820152606490fd5b3461197e575f36600319011261197e57611e966124f5565b60015460ff811615611ed55760ff19166001557f5db9ee0a495bf2e6ff9c91a7834c1ba4fdd244a5e8aa4e537bd38aeae4b073aa6020604051338152a1005b604051638dfc202b60e01b8152600490fd5b3461197e575f36600319011261197e576003546040516001600160a01b039091168152602090f35b3461197e57604036600319011261197e57611f286120a6565b336001600160a01b03821603611f4657611f44906004356125ed565b005b60405163334bd91960e11b8152600490fd5b3461197e57604036600319011261197e57611f44600435611f776120a6565b90805f525f602052611f8f600160405f200154612550565b612571565b3461197e57602036600319011261197e576001600160a01b03611fb5612090565b165f52600d602052602060405f2054604051908152f35b3461197e57602036600319011261197e576004355f525f6020526020600160405f200154604051908152f35b3461197e575f36600319011261197e576020600654604051908152f35b3461197e575f36600319011261197e576004546040516001600160a01b039091168152602090f35b3461197e57602036600319011261197e576004359063ffffffff60e01b821680920361197e57602091637965db0b60e01b811490811561207f575b5015158152f35b6301ffc9a760e01b14905083612078565b600435906001600160a01b038216820361197e57565b602435906001600160a01b038216820361197e57565b60a081019081106001600160401b0382111761193457604052565b608081019081106001600160401b0382111761193457604052565b6001600160401b03811161193457604052565b90601f801991011681019081106001600160401b0382111761193457604052565b81601f8201121561197e578035906001600160401b038211611934576040519261215a601f8401601f191660200185612105565b8284526020838301011161197e57815f926020809301838601378301015290565b5f5b83811061218c5750505f910152565b818101518382015260200161217d565b90600182811c921680156121ca575b60208310146121b657565b634e487b7160e01b5f52602260045260245ffd5b91607f16916121ab565b604051905f82600554916121e78361219c565b808352926020906001908181169081156122735750600114612214575b505061221292500383612105565b565b91509260055f527f036b6384b5eca791c62761152d0c79bb0604c104a5fb6f4eb0703f3154bb3db0935f925b82841061225b57506122129450505081016020015f80612204565b85548885018301529485019487945092810192612240565b9150506020925061221294915060ff191682840152151560051b8201015f80612204565b9060405191825f82546122a98161219c565b908184526020946001916001811690815f1461231557506001146122d7575b50505061221292500383612105565b5f90815285812095935091905b8183106122fd57505061221293508201015f80806122c8565b855488840185015294850194879450918301916122e4565b9250505061221294925060ff191682840152151560051b8201015f80806122c8565b906020916123508151809281855285808601910161217b565b601f01601f1916010190565b9081518082526020808093019301915f5b82811061237b575050505090565b83516001600160a01b03168552938101939281019260010161236d565b600f548110156123cd57600f5f527f8d1108e10bcb7c27dddfc02ed9d693a074039d026cf4ea4240b40f7d581ac80201905f90565b634e487b7160e01b5f52603260045260245ffd5b80548210156123cd575f5260205f2001905f90565b5f1981146124045760010190565b634e487b7160e01b5f52601160045260245ffd5b909161242f61243d93604084526040840190612337565b916020818403910152612337565b90565b1561244757565b60405162461bcd60e51b815260206004820152602360248201527f47616d6552656769737472793a20706c61796572206e6f7420726567697374656044820152621c995960ea1b6064820152608490fd5b9190820180921161240457565b6001600160401b0381116119345760051b60200190565b80518210156123cd5760209160051b010190565b6001600160a01b03165f908152600960205260409020546124f09061219c565b151590565b335f9081527f7d7ffb7a348e1c6a02869081a26547b49160dd3df72d1d75a570eb9b698292ec60205260409020547fa49807205ce4d355092ef5a8a18f56e8913cf4a201fbe287825b095693c217759060ff16156111215750565b805f525f60205260405f20335f5260205260ff60405f205416156111215750565b90815f525f60205260405f209060018060a01b031690815f5260205260ff60405f205416155f146125e757815f525f60205260405f20815f5260205260405f20600160ff1982541617905533917f2f8788117e7eff1d82e926ec794901d17c78024a50270940304540a733656f0d5f80a4600190565b50505f90565b90815f525f60205260405f209060018060a01b031690815f5260205260ff60405f2054165f146125e757815f525f60205260405f20815f5260205260405f2060ff19815416905533917ff6391f5c32d9c69d2a47ea670b442974b53935d1edc7fd64eb21e047a839171b5f80a4600190565b60ff6001541661266b57565b60405163d93c066560e01b8152600490fdfea264697066735822122082eec9e30ec3562b37881efd076296f4b46723bf1609c30c026df688cb42427264736f6c634300081800332f8788117e7eff1d82e926ec794901d17c78024a50270940304540a733656f0dad3228b676f7d3cd4284a5443f17f1962b36e491b30a40b2405849e597ba5fb5","linkReferences":{}},"methodIdentifiers":{"ADMIN_ROLE()":"75b238fc","DEFAULT_ADMIN_ROLE()":"a217fddf","GAME_MASTER_ROLE()":"ad1def1e","botNFT()":"07ed5c82","commitHarvest(address,uint256)":"64624623","defaultReferrer()":"91b33125","getLeaderboard(uint256)":"a34b46fe","getPlayerProfile(address)":"d50f8989","getPlayerRank(address)":"a697cb0e","getPlayerStats(address)":"4fd66eae","getReferralCount(address)":"24acbd69","getReferralData(address)":"a3674633","getRoleAdmin(bytes32)":"248a9ca3","grantRole(bytes32,address)":"2f2ff15d","hasRole(bytes32,address)":"91d14854","isReferralCodeAvailable(string)":"e96df20a","isRegistered(address)":"c3c5a547","isUsernameAvailable(string)":"f69c6dec","landNFT()":"39d022e1","mockOrangeToken()":"52f46149","pause()":"8456cb59","paused()":"5c975abb","playerList(uint256)":"ae6d9073","playerProfiles(address)":"b37732a6","playerStats(address)":"cdafbbb6","referralCodeToWallet(string)":"8e2801e8","referralEarnings(address)":"c07b528a","referralReward()":"4d683674","referredPlayers(address,uint256)":"aefc7cd7","register(string,string,string)":"4cd08d03","renounceRole(bytes32,address)":"36568abe","revokeRole(bytes32,address)":"d547741f","setDefaultReferrer(string)":"f800e866","starterTokenAmount()":"1aa78678","starterWaterAmount()":"bf38029f","supportsInterface(bytes4)":"01ffc9a7","totalPlayers()":"f60cdcf6","unpause()":"3f4ba83a","updateStarterPackConfig(uint256,uint256,uint256)":"c68c6146","usernameToWallet(string)":"8a5e3a48","waterToken()":"6ed059ff"},"id":94}