{"abi":[{"type":"constructor","inputs":[{"name":"admin","type":"address","internalType":"address"},{"name":"_gameRegistry","type":"address","internalType":"address"},{"name":"_mockOrangeToken","type":"address","internalType":"address"}],"stateMutability":"nonpayable"},{"type":"function","name":"DEFAULT_ADMIN_ROLE","inputs":[],"outputs":[{"name":"","type":"bytes32","internalType":"bytes32"}],"stateMutability":"view"},{"type":"function","name":"PAUSER_ROLE","inputs":[],"outputs":[{"name":"","type":"bytes32","internalType":"bytes32"}],"stateMutability":"view"},{"type":"function","name":"SETTLER_ROLE","inputs":[],"outputs":[{"name":"","type":"bytes32","internalType":"bytes32"}],"stateMutability":"view"},{"type":"function","name":"batchCommitHarvests","inputs":[{"name":"players","type":"address[]","internalType":"address[]"},{"name":"orangeAmounts","type":"uint256[]","internalType":"uint256[]"}],"outputs":[],"stateMutability":"nonpayable"},{"type":"function","name":"canCommit","inputs":[{"name":"player","type":"address","internalType":"address"}],"outputs":[{"name":"","type":"bool","internalType":"bool"}],"stateMutability":"view"},{"type":"function","name":"commitCooldown","inputs":[],"outputs":[{"name":"","type":"uint256","internalType":"uint256"}],"stateMutability":"view"},{"type":"function","name":"commitHarvest","inputs":[{"name":"player","type":"address","internalType":"address"},{"name":"orangeAmount","type":"uint256","internalType":"uint256"}],"outputs":[],"stateMutability":"nonpayable"},{"type":"function","name":"gameRegistry","inputs":[],"outputs":[{"name":"","type":"address","internalType":"address"}],"stateMutability":"view"},{"type":"function","name":"getGlobalStats","inputs":[],"outputs":[{"name":"commits","type":"uint256","internalType":"uint256"},{"name":"orangesSettled","type":"uint256","internalType":"uint256"}],"stateMutability":"view"},{"type":"function","name":"getPlayerRecord","inputs":[{"name":"player","type":"address","internalType":"address"}],"outputs":[{"name":"totalOranges","type":"uint256","internalType":"uint256"},{"name":"totalHarvests","type":"uint256","internalType":"uint256"},{"name":"lastCommit","type":"uint256","internalType":"uint256"},{"name":"canCommitNow","type":"bool","internalType":"bool"}],"stateMutability":"view"},{"type":"function","name":"getRoleAdmin","inputs":[{"name":"role","type":"bytes32","internalType":"bytes32"}],"outputs":[{"name":"","type":"bytes32","internalType":"bytes32"}],"stateMutability":"view"},{"type":"function","name":"getTimeUntilNextCommit","inputs":[{"name":"player","type":"address","internalType":"address"}],"outputs":[{"name":"","type":"uint256","internalType":"uint256"}],"stateMutability":"view"},{"type":"function","name":"grantRole","inputs":[{"name":"role","type":"bytes32","internalType":"bytes32"},{"name":"account","type":"address","internalType":"address"}],"outputs":[],"stateMutability":"nonpayable"},{"type":"function","name":"hasRole","inputs":[{"name":"role","type":"bytes32","internalType":"bytes32"},{"name":"account","type":"address","internalType":"address"}],"outputs":[{"name":"","type":"bool","internalType":"bool"}],"stateMutability":"view"},{"type":"function","name":"lastCommitTime","inputs":[{"name":"","type":"address","internalType":"address"}],"outputs":[{"name":"","type":"uint256","internalType":"uint256"}],"stateMutability":"view"},{"type":"function","name":"maxHarvestPerCommit","inputs":[],"outputs":[{"name":"","type":"uint256","internalType":"uint256"}],"stateMutability":"view"},{"type":"function","name":"mockOrangeToken","inputs":[],"outputs":[{"name":"","type":"address","internalType":"address"}],"stateMutability":"view"},{"type":"function","name":"pause","inputs":[],"outputs":[],"stateMutability":"nonpayable"},{"type":"function","name":"paused","inputs":[],"outputs":[{"name":"","type":"bool","internalType":"bool"}],"stateMutability":"view"},{"type":"function","name":"playerHarvests","inputs":[{"name":"","type":"address","internalType":"address"}],"outputs":[{"name":"totalOranges","type":"uint256","internalType":"uint256"},{"name":"totalHarvests","type":"uint256","internalType":"uint256"},{"name":"lastCommitTime","type":"uint256","internalType":"uint256"}],"stateMutability":"view"},{"type":"function","name":"renounceRole","inputs":[{"name":"role","type":"bytes32","internalType":"bytes32"},{"name":"callerConfirmation","type":"address","internalType":"address"}],"outputs":[],"stateMutability":"nonpayable"},{"type":"function","name":"revokeRole","inputs":[{"name":"role","type":"bytes32","internalType":"bytes32"},{"name":"account","type":"address","internalType":"address"}],"outputs":[],"stateMutability":"nonpayable"},{"type":"function","name":"selfCommitHarvest","inputs":[{"name":"orangeAmount","type":"uint256","internalType":"uint256"}],"outputs":[],"stateMutability":"nonpayable"},{"type":"function","name":"setCommitCooldown","inputs":[{"name":"newCooldown","type":"uint256","internalType":"uint256"}],"outputs":[],"stateMutability":"nonpayable"},{"type":"function","name":"setMaxHarvestPerCommit","inputs":[{"name":"newMax","type":"uint256","internalType":"uint256"}],"outputs":[],"stateMutability":"nonpayable"},{"type":"function","name":"supportsInterface","inputs":[{"name":"interfaceId","type":"bytes4","internalType":"bytes4"}],"outputs":[{"name":"","type":"bool","internalType":"bool"}],"stateMutability":"view"},{"type":"function","name":"totalCommits","inputs":[],"outputs":[{"name":"","type":"uint256","internalType":"uint256"}],"stateMutability":"view"},{"type":"function","name":"totalOrangesSettled","inputs":[],"outputs":[{"name":"","type":"uint256","internalType":"uint256"}],"stateMutability":"view"},{"type":"function","name":"unpause","inputs":[],"outputs":[],"stateMutability":"nonpayable"},{"type":"event","name":"BatchHarvestCommitted","inputs":[{"name":"playerCount","type":"uint256","indexed":false,"internalType":"uint256"},{"name":"totalOranges","type":"uint256","indexed":false,"internalType":"uint256"},{"name":"timestamp","type":"uint256","indexed":false,"internalType":"uint256"}],"anonymous":false},{"type":"event","name":"CommitCooldownUpdated","inputs":[{"name":"oldCooldown","type":"uint256","indexed":false,"internalType":"uint256"},{"name":"newCooldown","type":"uint256","indexed":false,"internalType":"uint256"}],"anonymous":false},{"type":"event","name":"HarvestCommitted","inputs":[{"name":"player","type":"address","indexed":true,"internalType":"address"},{"name":"orangeAmount","type":"uint256","indexed":false,"internalType":"uint256"},{"name":"totalOranges","type":"uint256","indexed":false,"internalType":"uint256"},{"name":"timestamp","type":"uint256","indexed":false,"internalType":"uint256"}],"anonymous":false},{"type":"event","name":"MaxHarvestUpdated","inputs":[{"name":"oldMax","type":"uint256","indexed":false,"internalType":"uint256"},{"name":"newMax","type":"uint256","indexed":false,"internalType":"uint256"}],"anonymous":false},{"type":"event","name":"Paused","inputs":[{"name":"account","type":"address","indexed":false,"internalType":"address"}],"anonymous":false},{"type":"event","name":"RoleAdminChanged","inputs":[{"name":"role","type":"bytes32","indexed":true,"internalType":"bytes32"},{"name":"previousAdminRole","type":"bytes32","indexed":true,"internalType":"bytes32"},{"name":"newAdminRole","type":"bytes32","indexed":true,"internalType":"bytes32"}],"anonymous":false},{"type":"event","name":"RoleGranted","inputs":[{"name":"role","type":"bytes32","indexed":true,"internalType":"bytes32"},{"name":"account","type":"address","indexed":true,"internalType":"address"},{"name":"sender","type":"address","indexed":true,"internalType":"address"}],"anonymous":false},{"type":"event","name":"RoleRevoked","inputs":[{"name":"role","type":"bytes32","indexed":true,"internalType":"bytes32"},{"name":"account","type":"address","indexed":true,"internalType":"address"},{"name":"sender","type":"address","indexed":true,"internalType":"address"}],"anonymous":false},{"type":"event","name":"Unpaused","inputs":[{"name":"account","type":"address","indexed":false,"internalType":"address"}],"anonymous":false},{"type":"error","name":"AccessControlBadConfirmation","inputs":[]},{"type":"error","name":"AccessControlUnauthorizedAccount","inputs":[{"name":"account","type":"address","internalType":"address"},{"name":"neededRole","type":"bytes32","internalType":"bytes32"}]},{"type":"error","name":"EnforcedPause","inputs":[]},{"type":"error","name":"ExpectedPause","inputs":[]},{"type":"error","name":"ReentrancyGuardReentrantCall","inputs":[]}],"bytecode":{"object":"0x6080346200024257601f62001c3f38819003918201601f191683019291906001600160401b0384118385101762000246578160609284926040968752833981010312620002425762000051816200025a565b906200006d8362000065602084016200025a565b92016200025a565b60017f9b779b17422d0df92223018b32b4d1fa46e071723d6817e2486d003becc55f00556001600160a01b039083821615620001ed5781831615620001915716918215620001325780620000c5620000d8926200026f565b50620000d181620002df565b506200037f565b5060018054610100600160a81b03191660089290921b610100600160a81b0316919091179055600280546001600160a01b031916919091179055603c600555683635c9adc5dea00000600655516117e590816200041a8239f35b835162461bcd60e51b815260206004820152603260248201527f48617276657374536574746c656d656e743a206d6f636b4f72616e6765546f6b604482015271656e206973207a65726f206164647265737360701b6064820152608490fd5b845162461bcd60e51b815260206004820152602f60248201527f48617276657374536574746c656d656e743a2067616d6552656769737472792060448201526e6973207a65726f206164647265737360881b6064820152608490fd5b845162461bcd60e51b815260206004820152602860248201527f48617276657374536574746c656d656e743a2061646d696e206973207a65726f604482015267206164647265737360c01b6064820152608490fd5b5f80fd5b634e487b7160e01b5f52604160045260245ffd5b51906001600160a01b03821682036200024257565b6001600160a01b03165f8181525f8051602062001c1f833981519152602052604090205460ff16620002da575f8181525f8051602062001c1f83398151915260205260408120805460ff191660011790553391905f8051602062001bff8339815191528180a4600190565b505f90565b6001600160a01b03165f8181527ff7c9542c591017a21c74b6f3fab6263c7952fc0aaf9db4c22a2a04ddc7f8674f60205260409020547f65d7a28e3265b37a6474929f336521b332c1681b933f6cb9f3376673440d862a919060ff166200037957815f525f60205260405f20815f5260205260405f20600160ff1982541617905533915f8051602062001bff8339815191525f80a4600190565b50505f90565b6001600160a01b03165f8181527fa5c179faa98d86951875f38e98a405912d7f90d5dfc4d9d9c0ab0ae0d8aa85a060205260409020547f6666bf5bfee463d10a7fc50448047f8a53b7762d7e28fbc5c643182785f3fd3f919060ff166200037957815f525f60205260405f20815f5260205260405f20600160ff1982541617905533915f8051602062001bff8339815191525f80a460019056fe6080806040526004361015610012575f80fd5b5f905f3560e01c90816301ffc9a714611250575080630f8b330214610f655780631ad76c1e14610f47578063248a9ca314610f1b57806325208f9614610eef5780632f2ff15d14610eb257806336568abe14610e6a5780633754e8bc14610dbc5780633f4ba83a14610d5157806343f45a5014610cf357806344d6ee2b14610cd557806352f4614914610cac5780635c975abb14610c8957806364624623146109da5780636b4169c3146109b55780636baa7889146109135780636d85465e146108f55780637445e85c146108ba5780638456cb591461086057806391d1485414610817578063a217fddf146107fb578063b278e358146107b2578063d21b4c52146106fd578063d547741f146106bc578063d911e39b1461069e578063da09075514610671578063dcecf5cf146101d3578063e63ab1e9146101985763ed06d2281461015d575f80fd5b34610195576020366003190112610195576020906040906001600160a01b036101846112a3565b168152600483522054604051908152f35b80fd5b503461019557806003193601126101955760206040517f65d7a28e3265b37a6474929f336521b332c1681b933f6cb9f3376673440d862a8152f35b50346101955760403660031901126101955767ffffffffffffffff6004358181116104e3576102069036906004016112cf565b90916024359081116104cb576102209036906004016112cf565b90610229611645565b610231611516565b610239611534565b8183036106215782156105dc576064831161058c578491855b8481106102da57867f7214e93604c89edd3ea8774bcdab0611b606d50ac187941b6c601e13c1a3ac2b86866102898260075461139a565b6007556102988160085461139a565b6008556040805192835260208301919091524290820152606090a160017f9b779b17422d0df92223018b32b4d1fa46e071723d6817e2486d003becc55f005580f35b6102e58186886114f2565b35936001600160a01b0385168503610588576103028284866114f2565b356103176001600160a01b0387161515611449565b8015158061057c575b1561052d5760015460405163c3c5a54760e01b81526001600160a01b0388811660048301528b94926020918391602491839160081c165afa80156104e75761036f9185916104fe575b50611495565b6001600160a01b0387168352600460205260408320546005546103919161139a565b42106104f257816103f29160018060a01b03891685526003602052604085206103bb83825461139a565b8155600181016103cb81546113fe565b9055426002919091018190556001600160a01b038a1686526004602052604086205561139a565b6002549096906001600160a01b0316803b156104cb576040516340c10f1960e01b81526001600160a01b0383166004820152602481018490529084908290604490829084905af19081156104e75784916104cf575b505060015460081c6001600160a01b031691823b156104cb57604051636462462360e01b81526001600160a01b0392909216600483015260248201529082908290604490829084905af180156104c0576104a8575b50506001905b01610252565b6104b19061134c565b6104bc57865f61049c565b8680fd5b6040513d84823e3d90fd5b8380fd5b6104d89061134c565b6104e357825f610447565b8280fd5b6040513d86823e3d90fd5b955050506001906104a2565b610520915060203d602011610526575b6105188183611360565b810190611382565b5f610369565b503d61050e565b60405162461bcd60e51b815260206004820152602160248201527f48617276657374536574746c656d656e743a20696e76616c696420616d6f756e6044820152601d60fa1b6064820152608490fd5b50600654811115610320565b8780fd5b60405162461bcd60e51b815260206004820152602260248201527f48617276657374536574746c656d656e743a20626174636820746f6f206c6172604482015261676560f01b6064820152608490fd5b60405162461bcd60e51b815260206004820152601e60248201527f48617276657374536574746c656d656e743a20656d70747920626174636800006044820152606490fd5b60405162461bcd60e51b815260206004820152602260248201527f48617276657374536574746c656d656e743a206c656e677468206d69736d61746044820152610c6d60f31b6064820152608490fd5b503461019557806003193601126101955760015460405160089190911c6001600160a01b03168152602090f35b50346101955780600319360112610195576020600554604051908152f35b5034610195576040366003190112610195576106f96004356106dc6112b9565b90808452836020526106f460016040862001546116a0565b61173d565b5080f35b5034610195576020366003190112610195576001600160a01b0361071f6112a3565b169081815260036020526040812060405191606083019383851067ffffffffffffffff86111761079e57604080926107839260809783528554968781526002600188015497886020840152015495869101528152600460205220546005549061139a565b42101591604051938452602084015260408301526060820152f35b634e487b7160e01b5f52604160045260245ffd5b5034610195576020366003190112610195576020906107f0906040906001600160a01b036107de6112a3565b1681526004845220546005549061139a565b421015604051908152f35b5034610195578060031936011261019557602090604051908152f35b50346101955760403660031901126101955760406108336112b9565b91600435815280602052209060018060a01b03165f52602052602060ff60405f2054166040519015158152f35b50346101955780600319360112610195576108796115cc565b610881611516565b600160ff19815416176001557f62e78cea01bee320cd4e420270b5ea74000d11b0c9f74754ebdbfc544b05a2586020604051338152a180f35b503461019557806003193601126101955760206040517f6666bf5bfee463d10a7fc50448047f8a53b7762d7e28fbc5c643182785f3fd3f8152f35b50346101955780600319360112610195576020600654604051908152f35b503461019557602036600319011261019557600435610930611576565b80156109705760407f195ef703fb8c4bdefbe14a095992a03e052b6523834893d88d34b0bb00c1104391600654908060065582519182526020820152a180f35b60405162461bcd60e51b815260206004820152601e60248201527f48617276657374536574746c656d656e743a20696e76616c6964206d617800006044820152606490fd5b5034610195578060031936011261019557604060075460085482519182526020820152f35b5034610195576040366003190112610195576109f46112a3565b6024356109ff611645565b610a07611516565b610a0f611534565b6001600160a01b0382811692909190610a29841515611449565b610a34821515611300565b6006548211610c38578490836001546040519063c3c5a54760e01b8252876004830152816024816020998a9460081c165afa80156104e757610a7c918591610c215750611495565b85835260048552610a9f610a9760408520546005549061139a565b4210156113a7565b8583526003855260046040842095610ab886885461139a565b875560018701610ac881546113fe565b905542600288015587855252426040842055610ae56007546113fe565b600755610af48460085461139a565b6008558060025416803b156104cb576040516340c10f1960e01b81526001600160a01b0384166004820152602481018690529084908290604490829084905af19081156104e7578491610c0d575b505060015460081c16803b156104e357604051636462462360e01b81526001600160a01b039290921660048301526024820184905282908290604490829084905af180156104c057610bf9575b5050905460408051928352602083019190915242908201527fd4f3291618919df15beeada1d819187b677221a3a6878d9fadf4d949da91b5f59080606081015b0390a260017f9b779b17422d0df92223018b32b4d1fa46e071723d6817e2486d003becc55f005580f35b610c029061134c565b6104cb57835f610b8f565b610c169061134c565b6104e357825f610b42565b6105209150873d8911610526576105188183611360565b60405162461bcd60e51b815260206004820152602360248201527f48617276657374536574746c656d656e743a20616d6f756e7420746f6f206c6160448201526272676560e81b6064820152608490fd5b5034610195578060031936011261019557602060ff600154166040519015158152f35b50346101955780600319360112610195576002546040516001600160a01b039091168152602090f35b50346101955780600319360112610195576020600754604051908152f35b5034610195576020366003190112610195576040906001600160a01b03610d186112a3565b1681526003602052208054610d4d60026001840154930154604051938493846040919493926060820195825260208201520152565b0390f35b5034610195578060031936011261019557610d6a6115cc565b60015460ff811615610daa5760ff19166001557f5db9ee0a495bf2e6ff9c91a7834c1ba4fdd244a5e8aa4e537bd38aeae4b073aa6020604051338152a180f35b604051638dfc202b60e01b8152600490fd5b503461019557602036600319011261019557600435610dd9611576565b8015610e195760407f6f4c5da7eeb2e277ac2362fce5b2ecf8d1ea2bc321c7e5170b8a047f968ef15e91600554908060055582519182526020820152a180f35b60405162461bcd60e51b815260206004820152602360248201527f48617276657374536574746c656d656e743a20696e76616c696420636f6f6c6460448201526237bbb760e91b6064820152608490fd5b503461019557604036600319011261019557610e846112b9565b336001600160a01b03821603610ea0576106f99060043561173d565b60405163334bd91960e11b8152600490fd5b5034610195576040366003190112610195576106f9600435610ed26112b9565b9080845283602052610eea60016040862001546116a0565b6116c1565b5034610195576020366003190112610195576020610f13610f0e6112a3565b61140c565b604051908152f35b503461019557602036600319011261019557600160406020926004358152808452200154604051908152f35b50346101955780600319360112610195576020600854604051908152f35b503461116c5760208060031936011261116c5760043590610f84611516565b610f8c611534565b610f97821515611300565b600a6006540482116111f05760015460405163c3c5a54760e01b81523360048201526001600160a01b039183908290602490829060081c86165afa908115611161575f916111d3575b501561118457335f526004825260405f205460055490600a820291808304600a14901517156111705761101691610a979161139a565b335f5260038252600460405f209261102f85855461139a565b84556001840161103f81546113fe565b9055426002850155335f52524260405f205561105c6007546113fe565b60075561106b8360085461139a565b6008558060025416803b1561116c576040516340c10f1960e01b815233600482015260248101859052905f908290604490829084905af180156111615761114e575b50839060015460081c16803b1561114a57604051636462462360e01b8152336004820152602481018590529082908290604490829084905af180156104c057611136575b505054604080519283526020830191909152429082015233907fd4f3291618919df15beeada1d819187b677221a3a6878d9fadf4d949da91b5f5908060608101610bcf565b61113f9061134c565b6104e357825f6110f1565b5080fd5b61115991945061134c565b5f925f6110ad565b6040513d5f823e3d90fd5b5f80fd5b634e487b7160e01b5f52601160045260245ffd5b60405162461bcd60e51b815260048101839052602160248201527f48617276657374536574746c656d656e743a206e6f74207265676973746572656044820152601960fa1b6064820152608490fd5b6111ea9150833d8511610526576105188183611360565b5f610fe0565b6084906040519062461bcd60e51b82526004820152603360248201527f48617276657374536574746c656d656e743a20616d6f756e7420746f6f206c616044820152721c99d948199bdc881cd95b198b58dbdb5b5a5d606a1b6064820152fd5b3461116c57602036600319011261116c576004359063ffffffff60e01b821680920361116c57602091637965db0b60e01b8114908115611292575b5015158152f35b6301ffc9a760e01b1490508361128b565b600435906001600160a01b038216820361116c57565b602435906001600160a01b038216820361116c57565b9181601f8401121561116c5782359167ffffffffffffffff831161116c576020808501948460051b01011161116c57565b1561130757565b60405162461bcd60e51b815260206004820152601e60248201527f48617276657374536574746c656d656e743a207a65726f20616d6f756e7400006044820152606490fd5b67ffffffffffffffff811161079e57604052565b90601f8019910116810190811067ffffffffffffffff82111761079e57604052565b9081602091031261116c5751801515810361116c5790565b9190820180921161117057565b156113ae57565b60405162461bcd60e51b815260206004820152602260248201527f48617276657374536574746c656d656e743a20636f6f6c646f776e2061637469604482015261766560f01b6064820152608490fd5b5f1981146111705760010190565b6001600160a01b03165f9081526004602052604090205460055461142f9161139a565b80421015611444574281039081116111705790565b505f90565b1561145057565b60405162461bcd60e51b815260206004820152601f60248201527f48617276657374536574746c656d656e743a207a65726f2061646472657373006044820152606490fd5b1561149c57565b60405162461bcd60e51b815260206004820152602860248201527f48617276657374536574746c656d656e743a20706c61796572206e6f7420726560448201526719da5cdd195c995960c21b6064820152608490fd5b91908110156115025760051b0190565b634e487b7160e01b5f52603260045260245ffd5b60ff6001541661152257565b60405163d93c066560e01b8152600490fd5b7f9b779b17422d0df92223018b32b4d1fa46e071723d6817e2486d003becc55f0060028154146115645760029055565b604051633ee5aeb560e01b8152600490fd5b335f9081527fad3228b676f7d3cd4284a5443f17f1962b36e491b30a40b2405849e597ba5fb5602052604090205460ff16156115ae57565b60405163e2517d3f60e01b81523360048201525f6024820152604490fd5b335f9081527ff7c9542c591017a21c74b6f3fab6263c7952fc0aaf9db4c22a2a04ddc7f8674f60205260409020547f65d7a28e3265b37a6474929f336521b332c1681b933f6cb9f3376673440d862a9060ff16156116275750565b6044906040519063e2517d3f60e01b82523360048301526024820152fd5b335f9081527fa5c179faa98d86951875f38e98a405912d7f90d5dfc4d9d9c0ab0ae0d8aa85a060205260409020547f6666bf5bfee463d10a7fc50448047f8a53b7762d7e28fbc5c643182785f3fd3f9060ff16156116275750565b805f525f60205260405f20335f5260205260ff60405f205416156116275750565b90815f525f60205260405f209060018060a01b031690815f5260205260ff60405f205416155f1461173757815f525f60205260405f20815f5260205260405f20600160ff1982541617905533917f2f8788117e7eff1d82e926ec794901d17c78024a50270940304540a733656f0d5f80a4600190565b50505f90565b90815f525f60205260405f209060018060a01b031690815f5260205260ff60405f2054165f1461173757815f525f60205260405f20815f5260205260405f2060ff19815416905533917ff6391f5c32d9c69d2a47ea670b442974b53935d1edc7fd64eb21e047a839171b5f80a460019056fea2646970667358221220bdaf0feaac2d492c8de8762c3a929ceb6564ec11f029d0dc05e634377178abc664736f6c634300081800332f8788117e7eff1d82e926ec794901d17c78024a50270940304540a733656f0dad3228b676f7d3cd4284a5443f17f1962b36e491b30a40b2405849e597ba5fb5","linkReferences":{}},"methodIdentifiers":{"DEFAULT_ADMIN_ROLE()":"a217fddf","PAUSER_ROLE()":"e63ab1e9","SETTLER_ROLE()":"7445e85c","batchCommitHarvests(address[],uint256[])":"dcecf5cf","canCommit(address)":"b278e358","commitCooldown()":"d911e39b","commitHarvest(address,uint256)":"64624623","gameRegistry()":"da090755","getGlobalStats()":"6b4169c3","getPlayerRecord(address)":"d21b4c52","getRoleAdmin(bytes32)":"248a9ca3","getTimeUntilNextCommit(address)":"25208f96","grantRole(bytes32,address)":"2f2ff15d","hasRole(bytes32,address)":"91d14854","lastCommitTime(address)":"ed06d228","maxHarvestPerCommit()":"6d85465e","mockOrangeToken()":"52f46149","pause()":"8456cb59","paused()":"5c975abb","playerHarvests(address)":"43f45a50","renounceRole(bytes32,address)":"36568abe","revokeRole(bytes32,address)":"d547741f","selfCommitHarvest(uint256)":"0f8b3302","setCommitCooldown(uint256)":"3754e8bc","setMaxHarvestPerCommit(uint256)":"6baa7889","supportsInterface(bytes4)":"01ffc9a7","totalCommits()":"44d6ee2b","totalOrangesSettled()":"1ad76c1e","unpause()":"3f4ba83a"},"id":95}