{"abi":[{"type":"constructor","inputs":[{"name":"admin","type":"address","internalType":"address"},{"name":"baseURI","type":"string","internalType":"string"},{"name":"_mockOrangeToken","type":"address","internalType":"address"},{"name":"_expansionCost","type":"uint256","internalType":"uint256"}],"stateMutability":"nonpayable"},{"type":"function","name":"DEFAULT_ADMIN_ROLE","inputs":[],"outputs":[{"name":"","type":"bytes32","internalType":"bytes32"}],"stateMutability":"view"},{"type":"function","name":"MINTER_ROLE","inputs":[],"outputs":[{"name":"","type":"bytes32","internalType":"bytes32"}],"stateMutability":"view"},{"type":"function","name":"PAUSER_ROLE","inputs":[],"outputs":[{"name":"","type":"bytes32","internalType":"bytes32"}],"stateMutability":"view"},{"type":"function","name":"addBotToLand","inputs":[{"name":"tokenId","type":"uint256","internalType":"uint256"},{"name":"botId","type":"uint256","internalType":"uint256"}],"outputs":[],"stateMutability":"nonpayable"},{"type":"function","name":"approve","inputs":[{"name":"to","type":"address","internalType":"address"},{"name":"tokenId","type":"uint256","internalType":"uint256"}],"outputs":[],"stateMutability":"nonpayable"},{"type":"function","name":"balanceOf","inputs":[{"name":"owner","type":"address","internalType":"address"}],"outputs":[{"name":"","type":"uint256","internalType":"uint256"}],"stateMutability":"view"},{"type":"function","name":"expandLand","inputs":[{"name":"tokenId","type":"uint256","internalType":"uint256"}],"outputs":[],"stateMutability":"nonpayable"},{"type":"function","name":"expansionCost","inputs":[],"outputs":[{"name":"","type":"uint256","internalType":"uint256"}],"stateMutability":"view"},{"type":"function","name":"getApproved","inputs":[{"name":"tokenId","type":"uint256","internalType":"uint256"}],"outputs":[{"name":"","type":"address","internalType":"address"}],"stateMutability":"view"},{"type":"function","name":"getAssignedBots","inputs":[{"name":"tokenId","type":"uint256","internalType":"uint256"}],"outputs":[{"name":"","type":"uint256[]","internalType":"uint256[]"}],"stateMutability":"view"},{"type":"function","name":"getLandData","inputs":[{"name":"tokenId","type":"uint256","internalType":"uint256"}],"outputs":[{"name":"","type":"tuple","internalType":"struct LandNFT.LandData","components":[{"name":"landType","type":"uint8","internalType":"enum LandNFT.LandType"},{"name":"capacity","type":"uint8","internalType":"uint8"},{"name":"expansions","type":"uint8","internalType":"uint8"},{"name":"creationTimestamp","type":"uint64","internalType":"uint64"}]}],"stateMutability":"view"},{"type":"function","name":"getOwnerLands","inputs":[{"name":"owner","type":"address","internalType":"address"}],"outputs":[{"name":"","type":"uint256[]","internalType":"uint256[]"}],"stateMutability":"view"},{"type":"function","name":"getRoleAdmin","inputs":[{"name":"role","type":"bytes32","internalType":"bytes32"}],"outputs":[{"name":"","type":"bytes32","internalType":"bytes32"}],"stateMutability":"view"},{"type":"function","name":"grantRole","inputs":[{"name":"role","type":"bytes32","internalType":"bytes32"},{"name":"account","type":"address","internalType":"address"}],"outputs":[],"stateMutability":"nonpayable"},{"type":"function","name":"hasRole","inputs":[{"name":"role","type":"bytes32","internalType":"bytes32"},{"name":"account","type":"address","internalType":"address"}],"outputs":[{"name":"","type":"bool","internalType":"bool"}],"stateMutability":"view"},{"type":"function","name":"isApprovedForAll","inputs":[{"name":"owner","type":"address","internalType":"address"},{"name":"operator","type":"address","internalType":"address"}],"outputs":[{"name":"","type":"bool","internalType":"bool"}],"stateMutability":"view"},{"type":"function","name":"landData","inputs":[{"name":"","type":"uint256","internalType":"uint256"}],"outputs":[{"name":"landType","type":"uint8","internalType":"enum LandNFT.LandType"},{"name":"capacity","type":"uint8","internalType":"uint8"},{"name":"expansions","type":"uint8","internalType":"uint8"},{"name":"creationTimestamp","type":"uint64","internalType":"uint64"}],"stateMutability":"view"},{"type":"function","name":"mint","inputs":[{"name":"to","type":"address","internalType":"address"},{"name":"landType","type":"uint8","internalType":"enum LandNFT.LandType"}],"outputs":[{"name":"","type":"uint256","internalType":"uint256"}],"stateMutability":"nonpayable"},{"type":"function","name":"mockOrangeToken","inputs":[],"outputs":[{"name":"","type":"address","internalType":"address"}],"stateMutability":"view"},{"type":"function","name":"name","inputs":[],"outputs":[{"name":"","type":"string","internalType":"string"}],"stateMutability":"view"},{"type":"function","name":"ownerOf","inputs":[{"name":"tokenId","type":"uint256","internalType":"uint256"}],"outputs":[{"name":"","type":"address","internalType":"address"}],"stateMutability":"view"},{"type":"function","name":"pause","inputs":[],"outputs":[],"stateMutability":"nonpayable"},{"type":"function","name":"paused","inputs":[],"outputs":[{"name":"","type":"bool","internalType":"bool"}],"stateMutability":"view"},{"type":"function","name":"removeBotFromLand","inputs":[{"name":"tokenId","type":"uint256","internalType":"uint256"},{"name":"botId","type":"uint256","internalType":"uint256"}],"outputs":[],"stateMutability":"nonpayable"},{"type":"function","name":"renounceRole","inputs":[{"name":"role","type":"bytes32","internalType":"bytes32"},{"name":"callerConfirmation","type":"address","internalType":"address"}],"outputs":[],"stateMutability":"nonpayable"},{"type":"function","name":"revokeRole","inputs":[{"name":"role","type":"bytes32","internalType":"bytes32"},{"name":"account","type":"address","internalType":"address"}],"outputs":[],"stateMutability":"nonpayable"},{"type":"function","name":"safeTransferFrom","inputs":[{"name":"from","type":"address","internalType":"address"},{"name":"to","type":"address","internalType":"address"},{"name":"tokenId","type":"uint256","internalType":"uint256"}],"outputs":[],"stateMutability":"nonpayable"},{"type":"function","name":"safeTransferFrom","inputs":[{"name":"from","type":"address","internalType":"address"},{"name":"to","type":"address","internalType":"address"},{"name":"tokenId","type":"uint256","internalType":"uint256"},{"name":"data","type":"bytes","internalType":"bytes"}],"outputs":[],"stateMutability":"nonpayable"},{"type":"function","name":"setApprovalForAll","inputs":[{"name":"operator","type":"address","internalType":"address"},{"name":"approved","type":"bool","internalType":"bool"}],"outputs":[],"stateMutability":"nonpayable"},{"type":"function","name":"setBaseURI","inputs":[{"name":"newBaseURI","type":"string","internalType":"string"}],"outputs":[],"stateMutability":"nonpayable"},{"type":"function","name":"setExpansionCost","inputs":[{"name":"newCost","type":"uint256","internalType":"uint256"}],"outputs":[],"stateMutability":"nonpayable"},{"type":"function","name":"supportsInterface","inputs":[{"name":"interfaceId","type":"bytes4","internalType":"bytes4"}],"outputs":[{"name":"","type":"bool","internalType":"bool"}],"stateMutability":"view"},{"type":"function","name":"symbol","inputs":[],"outputs":[{"name":"","type":"string","internalType":"string"}],"stateMutability":"view"},{"type":"function","name":"tokenOfOwnerByIndex","inputs":[{"name":"owner","type":"address","internalType":"address"},{"name":"index","type":"uint256","internalType":"uint256"}],"outputs":[{"name":"","type":"uint256","internalType":"uint256"}],"stateMutability":"view"},{"type":"function","name":"tokenURI","inputs":[{"name":"tokenId","type":"uint256","internalType":"uint256"}],"outputs":[{"name":"","type":"string","internalType":"string"}],"stateMutability":"view"},{"type":"function","name":"transferFrom","inputs":[{"name":"from","type":"address","internalType":"address"},{"name":"to","type":"address","internalType":"address"},{"name":"tokenId","type":"uint256","internalType":"uint256"}],"outputs":[],"stateMutability":"nonpayable"},{"type":"function","name":"unpause","inputs":[],"outputs":[],"stateMutability":"nonpayable"},{"type":"event","name":"Approval","inputs":[{"name":"owner","type":"address","indexed":true,"internalType":"address"},{"name":"approved","type":"address","indexed":true,"internalType":"address"},{"name":"tokenId","type":"uint256","indexed":true,"internalType":"uint256"}],"anonymous":false},{"type":"event","name":"ApprovalForAll","inputs":[{"name":"owner","type":"address","indexed":true,"internalType":"address"},{"name":"operator","type":"address","indexed":true,"internalType":"address"},{"name":"approved","type":"bool","indexed":false,"internalType":"bool"}],"anonymous":false},{"type":"event","name":"BaseURIUpdated","inputs":[{"name":"newBaseURI","type":"string","indexed":false,"internalType":"string"}],"anonymous":false},{"type":"event","name":"BatchMetadataUpdate","inputs":[{"name":"_fromTokenId","type":"uint256","indexed":false,"internalType":"uint256"},{"name":"_toTokenId","type":"uint256","indexed":false,"internalType":"uint256"}],"anonymous":false},{"type":"event","name":"ExpansionCostUpdated","inputs":[{"name":"newCost","type":"uint256","indexed":false,"internalType":"uint256"}],"anonymous":false},{"type":"event","name":"LandExpanded","inputs":[{"name":"tokenId","type":"uint256","indexed":true,"internalType":"uint256"},{"name":"newCapacity","type":"uint8","indexed":false,"internalType":"uint8"},{"name":"expansionCount","type":"uint8","indexed":false,"internalType":"uint8"}],"anonymous":false},{"type":"event","name":"LandMinted","inputs":[{"name":"owner","type":"address","indexed":true,"internalType":"address"},{"name":"tokenId","type":"uint256","indexed":true,"internalType":"uint256"},{"name":"landType","type":"uint8","indexed":false,"internalType":"enum LandNFT.LandType"},{"name":"capacity","type":"uint8","indexed":false,"internalType":"uint8"}],"anonymous":false},{"type":"event","name":"MetadataUpdate","inputs":[{"name":"_tokenId","type":"uint256","indexed":false,"internalType":"uint256"}],"anonymous":false},{"type":"event","name":"Paused","inputs":[{"name":"account","type":"address","indexed":false,"internalType":"address"}],"anonymous":false},{"type":"event","name":"RoleAdminChanged","inputs":[{"name":"role","type":"bytes32","indexed":true,"internalType":"bytes32"},{"name":"previousAdminRole","type":"bytes32","indexed":true,"internalType":"bytes32"},{"name":"newAdminRole","type":"bytes32","indexed":true,"internalType":"bytes32"}],"anonymous":false},{"type":"event","name":"RoleGranted","inputs":[{"name":"role","type":"bytes32","indexed":true,"internalType":"bytes32"},{"name":"account","type":"address","indexed":true,"internalType":"address"},{"name":"sender","type":"address","indexed":true,"internalType":"address"}],"anonymous":false},{"type":"event","name":"RoleRevoked","inputs":[{"name":"role","type":"bytes32","indexed":true,"internalType":"bytes32"},{"name":"account","type":"address","indexed":true,"internalType":"address"},{"name":"sender","type":"address","indexed":true,"internalType":"address"}],"anonymous":false},{"type":"event","name":"Transfer","inputs":[{"name":"from","type":"address","indexed":true,"internalType":"address"},{"name":"to","type":"address","indexed":true,"internalType":"address"},{"name":"tokenId","type":"uint256","indexed":true,"internalType":"uint256"}],"anonymous":false},{"type":"event","name":"Unpaused","inputs":[{"name":"account","type":"address","indexed":false,"internalType":"address"}],"anonymous":false},{"type":"error","name":"AccessControlBadConfirmation","inputs":[]},{"type":"error","name":"AccessControlUnauthorizedAccount","inputs":[{"name":"account","type":"address","internalType":"address"},{"name":"neededRole","type":"bytes32","internalType":"bytes32"}]},{"type":"error","name":"ERC721IncorrectOwner","inputs":[{"name":"sender","type":"address","internalType":"address"},{"name":"tokenId","type":"uint256","internalType":"uint256"},{"name":"owner","type":"address","internalType":"address"}]},{"type":"error","name":"ERC721InsufficientApproval","inputs":[{"name":"operator","type":"address","internalType":"address"},{"name":"tokenId","type":"uint256","internalType":"uint256"}]},{"type":"error","name":"ERC721InvalidApprover","inputs":[{"name":"approver","type":"address","internalType":"address"}]},{"type":"error","name":"ERC721InvalidOperator","inputs":[{"name":"operator","type":"address","internalType":"address"}]},{"type":"error","name":"ERC721InvalidOwner","inputs":[{"name":"owner","type":"address","internalType":"address"}]},{"type":"error","name":"ERC721InvalidReceiver","inputs":[{"name":"receiver","type":"address","internalType":"address"}]},{"type":"error","name":"ERC721InvalidSender","inputs":[{"name":"sender","type":"address","internalType":"address"}]},{"type":"error","name":"ERC721NonexistentToken","inputs":[{"name":"tokenId","type":"uint256","internalType":"uint256"}]},{"type":"error","name":"EnforcedPause","inputs":[]},{"type":"error","name":"ExpectedPause","inputs":[]}],"bytecode":{"object":"0x608060405234620005e65762002d3c803803806200001d816200061e565b928339810190608081830312620005e657620000398162000644565b6020828101519091906001600160401b0390818111620005e657840192601f90868286011215620005e6578451838111620005ea57601f199562000083828501881684016200061e565b98828a52838383010111620005e65782905f5b838110620005d15750505f91890101526060620000b66040880162000644565b96015194620000c4620005fe565b96601088526f13dc985b99d94811985c9b4813185b9960821b83890152620000eb620005fe565b90600491828152631310539160e21b858201528951878111620004d8575f549a60019b8c81811c91168015620005c6575b88821014620005b35790818984931162000560575b508790898311600114620004f7575f92620004eb575b50505f19600383901b1c1916908b1b175f555b805190878211620004d8578a548b81811c91168015620004cd575b87821014620004ba5790818884931162000467575b508690888311600114620003fe575f92620003f2575b50505f19600383901b1c1916908a1b1789555b6001600160a01b039087821615620003ae57169586156200036a5780620001de620001f19262000659565b50620001ea81620006c9565b506200076a565b5088519485116200035757600954908882811c921680156200034c575b84831014620003395750838111620002f0575b50819284116001146200028757505081929394955f926200027b575b50505f19600383901b1c191690841b176009555b600f80546001600160a01b031916919091179055600e55600a556040516124f69081620008068239f35b015190505f806200023d565b83929192169660095f52825f20925f905b898210620002d85750508387989795969710620002bf575b505050811b0160095562000251565b01515f1960f88460031b161c191690555f8080620002b0565b80898596829496860151815501950193019062000298565b60095f52825f208480870160051c8201928588106200032f575b0160051c019088905b8281106200032357505062000221565b5f815501889062000313565b925081926200030a565b602290634e487b7160e01b5f525260245ffd5b91607f16916200020e565b604190634e487b7160e01b5f525260245ffd5b60405162461bcd60e51b8152808301859052601e60248201527f4c616e644e46543a20746f6b656e206973207a65726f206164647265737300006044820152606490fd5b60405162461bcd60e51b8152808401869052601e60248201527f4c616e644e46543a2061646d696e206973207a65726f206164647265737300006044820152606490fd5b015190505f80620001a0565b90868d941691845f52885f20925f5b8a8282106200044757505084116200042e575b505050811b018955620001b3565b01515f1960f88460031b161c191690555f808062000420565b91929395968291958786015181550195019301908e95949392916200040d565b9091508b5f52865f208880850160051c820192898610620004b0575b918e91869594930160051c01915b828110620004a15750506200018a565b5f81558594508e910162000491565b9250819262000483565b602285634e487b7160e01b5f525260245ffd5b90607f169062000175565b604184634e487b7160e01b5f525260245ffd5b015190505f8062000147565b90878e9416915f8052895f20925f5b8b82821062000540575050841162000527575b505050811b015f556200015a565b01515f1960f88460031b161c191690555f808062000519565b91929395968291958786015181550195019301908f959493929162000506565b9091505f8052875f208980850160051c8201928a8610620005a9575b918f91869594930160051c01915b8281106200059a57505062000131565b5f81558594508f91016200058a565b925081926200057c565b602286634e487b7160e01b5f525260245ffd5b90607f16906200011c565b8181018301518b820184015284920162000096565b5f80fd5b634e487b7160e01b5f52604160045260245ffd5b60408051919082016001600160401b03811183821017620005ea57604052565b6040519190601f01601f191682016001600160401b03811183821017620005ea57604052565b51906001600160a01b0382168203620005e657565b6001600160a01b03165f8181525f8051602062002d1c833981519152602052604090205460ff16620006c4575f8181525f8051602062002d1c83398151915260205260408120805460ff191660011790553391905f8051602062002cfc8339815191528180a4600190565b505f90565b6001600160a01b03165f8181527fa4bfd7afe708e2e87e7f0e2ad9b4d545417e0f795f57b5c5ab5d799c565a04f460205260409020547f9f2df0fed2c77648de5860a4cc508cd0818c85b8b8a1ab4ceeef8d981c8956a6919060ff166200076457815f52600760205260405f20815f5260205260405f20600160ff1982541617905533915f8051602062002cfc8339815191525f80a4600190565b50505f90565b6001600160a01b03165f8181527f270c7cc4331b1445974c76712d9bb2afa8846ba0435cde7d1460f79fd91c04bd60205260409020547f65d7a28e3265b37a6474929f336521b332c1681b933f6cb9f3376673440d862a919060ff166200076457815f52600760205260405f20815f5260205260405f20600160ff1982541617905533915f8051602062002cfc8339815191525f80a460019056fe6080604081815260049182361015610015575f80fd5b5f3560e01c90816301ffc9a7146115ce5750806306fdde0314611521578063081812fc146114e9578063095ea7b31461140e578063187ab5b91461139b57806323b872dd14611384578063248a9ca31461135a5780632f2ff15d146113325780632f745c591461130a57806336568abe146112c65780633f4ba83a1461125f57806342842e0e1461123157806352f461491461120957806355f804b3146110285780635c975abb146110055780636352211e14610fd6578063691562a014610b8e57806370a0823114610b6257806379fed7fc14610b445780638456cb5914610aeb57806391d1485414610aa757806395d89b41146109c457806399e10d1e146109ad578063a2002e3014610960578063a217fddf14610946578063a22cb465146108ab578063ab9e611f146107e2578063b88d4fde14610777578063b95aa42f1461071b578063bf5172d714610679578063c87b56dd14610643578063cb9bd5ea146103f7578063d5391393146103bd578063d547741f14610383578063e63ab1e914610349578063e985e9c5146102fb5763eb4a83a5146101b6575f80fd5b346102f7576101c43661180e565b9190805f526020906002825260018060a01b03835f2054166101e7811515611c2f565b331480156102b9575b6101f990611c7b565b805f52600d8252825f2054600b835260ff845f205460081c1611156102765790600d915f52525f208054926801000000000000000084101561026357508261024991600161026195018155611cc7565b90919082549060031b91821b915f19901b1916179055565b005b604190634e487b7160e01b5f525260245ffd5b825162461bcd60e51b8152808601839052601960248201527f4c616e644e46543a206c616e64206174206361706163697479000000000000006044820152606490fd5b507f9f2df0fed2c77648de5860a4cc508cd0818c85b8b8a1ab4ceeef8d981c8956a65f9081526007835283812033825283528390205460ff166101f0565b5f80fd5b50346102f757806003193601126102f7576020906103176116b2565b61031f6116c8565b9060018060a01b038091165f5260058452825f2091165f52825260ff815f20541690519015158152f35b50346102f7575f3660031901126102f757602090517f65d7a28e3265b37a6474929f336521b332c1681b933f6cb9f3376673440d862a8152f35b50346102f757806003193601126102f75761026191356103b860016103a66116c8565b93835f5260076020525f200154611f62565b612002565b50346102f7575f3660031901126102f757602090517f9f2df0fed2c77648de5860a4cc508cd0818c85b8b8a1ab4ceeef8d981c8956a68152f35b50346102f757602090816003193601126102f757823591610416612076565b61041f83611e59565b6001600160a01b039190339083160361060c57600e5480156105c957845f52600b8252835f209060ff93600585845460101c16101561058657600f5486516323b872dd60e01b8152338a82015230602482015260448101939093528491839160649183915f91165af1801561057c57610549575b50600283825460081c160183811161053657815461ff00191660089190911b61ff001617815582815460101c1695838714610523575061050b60017f256db48d79937053a97190acae1e812dd29b839ca7e57b4d1b4f869ff0059485969701829062ff000082549160101b169062ff00001916179055565b5491835192818160081c16845260101c1690820152a2005b601190634e487b7160e01b5f525260245ffd5b601187634e487b7160e01b5f525260245ffd5b8281813d8311610575575b61055e818361179a565b810103126102f75751801515036102f7575f610493565b503d610554565b85513d5f823e3d90fd5b855162461bcd60e51b8152808901859052601f60248201527f4c616e644e46543a206d617820657870616e73696f6e732072656163686564006044820152606490fd5b835162461bcd60e51b8152808701839052601e60248201527f4c616e644e46543a20657870616e73696f6e206e6f7420656e61626c656400006044820152606490fd5b8460649184519162461bcd60e51b835282015260126024820152712630b73227232a1d103737ba1037bbb732b960711b6044820152fd5b50346102f75760203660031901126102f7576106626106759235612245565b905191829160208352602083019061168d565b0390f35b50346102f75760209060206003193601126102f7576106966116b2565b916106a083611bf9565b906106aa82611e41565b936106b78451958661179a565b828552601f196106c684611e41565b013660208701375f5b8381106106e35784518061067588826116de565b6106ed8183611b43565b865182101561070857600582901b87018401526001016106cf565b603288634e487b7160e01b5f525260245ffd5b50346102f75760203660031901126102f757608091355f52600b60205267ffffffffffffffff815f20548251926107558460ff8416611824565b60ff8260081c16602085015260ff8260101c169084015260181c166060820152f35b82346102f75760803660031901126102f7576107916116b2565b6107996116c8565b6044359060643567ffffffffffffffff81116102f757366023820112156102f757610261948160246107d0933693013591016117d8565b926107dc838383611940565b336120ba565b50346102f7576020806003193601126102f757608092355f606084516108078161174e565b828152828582015282868201520152805f526002825261083360018060a01b03845f2054161515611c2f565b5f52600b8152815f20918051926108498461174e565b549061085860ff831685611bed565b60ff83850193818460081c16855282860190828560101c1682528267ffffffffffffffff968760608a019760181c1687526108968651809a51611824565b51169087015251169084015251166060820152f35b50346102f757806003193601126102f7576108c46116b2565b90602435918215158093036102f7576001600160a01b03169283156109315750335f526005602052805f20835f52602052805f2060ff1981541660ff8416179055519081527f17307eab39ab6107e8899845ad3d59bd9653f200f220920489ca2b5937696c3160203392a3005b836024925191630b61174360e31b8352820152fd5b50346102f7575f3660031901126102f757602090515f8152f35b5090346102f75760203660031901126102f7577f3746a648697ccaa876b2f941be68c81be8719e4ecb484988b3aed431695436359160209135906109a2611f0c565b81600e5551908152a1005b346102f7576102616109be3661180e565b90611cf0565b50346102f7575f3660031901126102f7578051905f9082600192600154936109eb85611845565b90818452602095866001821691825f14610a85575050600114610a2a575b50506106759291610a1b91038561179a565b5192828493845283019061168d565b9085925060015f527fb10e2d527612073b26eecdfd717e6a320cf44b4afac2b0732d9fcbe2b7fa0cf6915f925b828410610a6d5750505082010181610a1b610a09565b8054848a018601528895508794909301928101610a57565b60ff19168682015292151560051b85019092019250839150610a1b9050610a09565b50346102f757806003193601126102f757602091610ac36116c8565b90355f5260078352815f209060018060a01b03165f52825260ff815f20541690519015158152f35b50346102f7575f3660031901126102f75760207f62e78cea01bee320cd4e420270b5ea74000d11b0c9f74754ebdbfc544b05a25891610b28611e93565b610b30612076565b600160ff19600854161760085551338152a1005b50346102f7575f3660031901126102f757602090600e549051908152f35b50346102f75760203660031901126102f757602090610b87610b826116b2565b611bf9565b9051908152f35b50346102f757806003193601126102f757610ba76116b2565b90602491823560038110156102f7577f9f2df0fed2c77648de5860a4cc508cd0818c85b8b8a1ab4ceeef8d981c8956a691825f5260209560078752845f20335f52875260ff9384865f20541615610fba5750610c01612076565b6001600160a01b0395828716948515610f7857600281861611610f3657600a5497610c2b89611b21565b600a55610c3786612094565b94888a898d6002845196610c4a8861177e565b5f8852610c55612076565b845f52818352855f205416918215159586610f05575b845f52600382525f2060018154019055845f52528c5f20826001600160601b0360a01b8254161790557fddf252ad1be2c89b69c2b068fc378daa952ba7f163c4a11628f55a4df523b3ef5f80a4610ef0573b610dd2575b50865192610ccf8461174e565b610cd98685611bed565b818a8501951694858152888501915f8352606086019467ffffffffffffffff421686528b5f52600b8d528a5f209651916003831015610dc1575050838a9693610d6c828e9c9b9895610d84957fc02793cc308e2db21b680de3d9ac6ceeba0aecdce4f91aec571928973e3a87289c9960ff198a541691161788555116869061ff0082549160081b169061ff001916179055565b51845462ff00001916911660101b62ff000016178355565b516affffffffffffffff00000082549160181b16906affffffffffffffff0000001916179055610db683518093611824565b88820152a351908152f35b602190634e487b7160e01b5f52525ffd5b92899593839a5f839b9795610e148c9b9c519485938493630a85bd0160e11b9889865233908601528401528a604484015260806064840152608483019061168d565b03815f8d5af15f9181610eb0575b50610e7c575050505050503d5f14610e74573d90610e3f826117bc565b91610e4c8451938461179a565b82523d5f8284013e5b81519182610e71575050505191633250574960e11b8352820152fd5b01fd5b606090610e55565b63ffffffff60e09b94969a95979b9998991b1603610e9a575f610cc2565b508551633250574960e11b815291820185905290fd5b9091508781813d8311610ee9575b610ec8818361179a565b810103126102f757516001600160e01b0319811681036102f757905f610e22565b503d610ebe565b88516339e3563760e11b81525f818701528490fd5b5f86815260046020526040812080546001600160a01b03191690558481526003835281902080545f19019055610c6b565b865162461bcd60e51b81528084018a9052601a818401527f4c616e644e46543a20696e76616c6964206c616e6420747970650000000000006044820152606490fd5b865162461bcd60e51b81528084018a9052601d818401527f4c616e644e46543a206d696e7420746f207a65726f20616464726573730000006044820152606490fd5b604492508686519263e2517d3f60e01b84523390840152820152fd5b50346102f75760203660031901126102f757610ff460209235611e59565b90516001600160a01b039091168152f35b50346102f7575f3660031901126102f75760209060ff6008541690519015158152f35b5090346102f7576020806003193601126102f75767ffffffffffffffff9282358481116102f757366023820112156102f75761106d90369060248187013591016117d8565b92611076611f0c565b8351948511610263575061108b600954611845565b601f81116111a7575b508193601f81116001146111035790816110f3927f6741b2fc379fad678116fe3d4d4b9a1a184ab53ba36b86ad0fa66340b1ab41ad965f916110f8575b508160011b915f199060031b1c1916176009555192828493845283019061168d565b0390a1005b90508501515f6110d1565b601f1981169460095f527f6e1540171b6c0c960b71a7020d9f60077f6af931a8bbf590da0223dacf75c7af955f5b8181106111905750917f6741b2fc379fad678116fe3d4d4b9a1a184ab53ba36b86ad0fa66340b1ab41ad96600192826110f3969510611178575b5050811b01600955610a1b565b8701515f1960f88460031b161c191690555f8061116b565b868301518855600190970196918501918501611131565b60095f527f6e1540171b6c0c960b71a7020d9f60077f6af931a8bbf590da0223dacf75c7af601f860160051c8101918487106111ff575b601f0160051c01905b8181106111f45750611094565b5f81556001016111e7565b90915081906111de565b50346102f7575f3660031901126102f757600f5490516001600160a01b039091168152602090f35b50346102f7576102619061124436611719565b919251926112518461177e565b5f84526107dc838383611940565b50346102f7575f3660031901126102f757611278611e93565b6008549160ff8316156112b8577f5db9ee0a495bf2e6ff9c91a7834c1ba4fdd244a5e8aa4e537bd38aeae4b073aa6020838560ff191660085551338152a1005b9051638dfc202b60e01b8152fd5b50346102f757806003193601126102f7576112df6116c8565b90336001600160a01b038316036112fb57506102619135612002565b5163334bd91960e11b81529050fd5b50346102f757806003193601126102f757602090610b876113296116b2565b60243590611b43565b50346102f757806003193601126102f757610261913561135560016103a66116c8565b611f84565b50346102f75760203660031901126102f757602091355f52600782526001815f2001549051908152f35b346102f75761026161139536611719565b91611940565b5090346102f75760209060206003193601126102f757355f52600d602052815f209180519182602085549182815201945f5260205f20915f905b8282106113f75761067586866113ed828b038361179a565b51918291826116de565b8354875295860195600193840193909101906113d5565b50346102f757806003193601126102f7576114276116b2565b9160243561143481611e59565b331515806114d6575b806114af575b611499576001600160a01b039485169482918691167f8c5be1e5ebec7d5bd14f71427d1e84f3dd0314c0f7b2291e5b200ac8c7c3b9255f80a45f526020525f20906001600160601b0360a01b8254161790555f80f35b835163a9fbf51f60e01b81523381850152602490fd5b5060018060a01b0381165f526005602052835f20335f5260205260ff845f20541615611443565b506001600160a01b03811633141561143d565b50346102f75760203660031901126102f757816020923561150981611e59565b505f52825260018060a01b03815f2054169051908152f35b50346102f7575f3660031901126102f7578051905f90825f549261154484611845565b808352602094600190866001821691825f14610a855750506001146115755750506106759291610a1b91038561179a565b5f80805286935091907f290decd9548b62a8d60345a988386fc84ba6bc95484008f6362f93160ef3e5635b8284106115b65750505082010181610a1b610a09565b8054848a0186015288955087949093019281016115a0565b83346102f75760203660031901126102f757359063ffffffff60e01b82168092036102f757602091637965db0b60e01b811490811561160f575b5015158152f35b632483248360e11b811491508115611629575b5083611608565b6380ac58cd60e01b81149150811561165b575b811561164a575b5083611622565b6301ffc9a760e01b14905083611643565b635b5e139f60e01b8114915061163c565b5f5b83811061167d5750505f910152565b818101518382015260200161166e565b906020916116a68151809281855285808601910161166c565b601f01601f1916010190565b600435906001600160a01b03821682036102f757565b602435906001600160a01b03821682036102f757565b60209060206040818301928281528551809452019301915f5b828110611705575050505090565b8351855293810193928101926001016116f7565b60609060031901126102f7576001600160a01b039060043582811681036102f7579160243590811681036102f7579060443590565b6080810190811067ffffffffffffffff82111761176a57604052565b634e487b7160e01b5f52604160045260245ffd5b6020810190811067ffffffffffffffff82111761176a57604052565b90601f8019910116810190811067ffffffffffffffff82111761176a57604052565b67ffffffffffffffff811161176a57601f01601f191660200190565b9291926117e4826117bc565b916117f2604051938461179a565b8294818452818301116102f7578281602093845f960137010152565b60409060031901126102f7576004359060243590565b9060038210156118315752565b634e487b7160e01b5f52602160045260245ffd5b90600182811c92168015611873575b602083101461185f57565b634e487b7160e01b5f52602260045260245ffd5b91607f1691611854565b604051905f826009549161189083611845565b8083529260209060019081811690811561191c57506001146118bd575b50506118bb9250038361179a565b565b91509260095f527f6e1540171b6c0c960b71a7020d9f60077f6af931a8bbf590da0223dacf75c7af935f925b82841061190457506118bb9450505081016020015f806118ad565b855488850183015294850194879450928101926118e9565b915050602092506118bb94915060ff191682840152151560051b8201015f806118ad565b6001600160a01b039182169290918315611ac65761195c612076565b815f52602092600284528260409583875f2054169533151580611a34575b5060029087611a03575b825f5260038152885f2060018154019055835f5252865f20816001600160601b0360a01b825416179055857fddf252ad1be2c89b69c2b068fc378daa952ba7f163c4a11628f55a4df523b3ef5f80a416928383036119e25750505050565b6064945051926364283d7b60e01b8452600484015260248301526044820152fd5b5f84815260046020526040812080546001600160a01b03191690558881526003825289902080545f19019055611984565b9192509080611a85575b15611a4c579084915f61197a565b868587611a69576024915190637e27328960e01b82526004820152fd5b604491519063177e802f60e01b82523360048301526024820152fd5b503386148015611aaa575b80611a3e5750845f52600481523384885f20541614611a3e565b50855f5260058152865f20335f52815260ff875f205416611a90565b604051633250574960e11b81525f6004820152602490fd5b60809060208152602260208201527f4c616e644e46543a206f776e657220696e646578206f7574206f6620626f756e604082015261647360f01b60608201520190565b5f198114611b2f5760010190565b634e487b7160e01b5f52601160045260245ffd5b9091611b4e82611bf9565b831015611bd4575f90600193600193600a54945b858110611b865760405162461bcd60e51b815280611b8260048201611ade565b0390fd5b5f818152600260205260409020548791906001600160a01b03848116911614611bb0575b01611b62565b949050828114611bca57611bc48791611b21565b94611baa565b5050509250905090565b60405162461bcd60e51b815280611b8260048201611ade565b60038210156118315752565b6001600160a01b03168015611c17575f52600360205260405f205490565b6040516322718ad960e21b81525f6004820152602490fd5b15611c3657565b60405162461bcd60e51b815260206004820152601b60248201527f4c616e644e46543a206c616e6420646f65736e277420657869737400000000006044820152606490fd5b15611c8257565b60405162461bcd60e51b815260206004820152601760248201527f4c616e644e46543a206e6f7420617574686f72697a65640000000000000000006044820152606490fd5b8054821015611cdc575f5260205f2001905f90565b634e487b7160e01b5f52603260045260245ffd5b5f818152600260205260409020546001600160a01b0316611d12811515611c2f565b33148015611e0a575b611d2490611c7b565b5f52600d60205260405f20905f5b825480821015611dc5578290611d488386611cc7565b929054600393841b1c14611d60575050600101611d32565b909392505f1991828201918211611b2f57610249611d81611d8e9386611cc7565b905490871b1c9185611cc7565b81548015611db157810192611da38484611cc7565b81939154921b1b1916905555565b634e487b7160e01b5f52603160045260245ffd5b60405162461bcd60e51b815260206004820152601e60248201527f4c616e644e46543a20626f74206e6f7420666f756e64206f6e206c616e6400006044820152606490fd5b50335f9081527fa4bfd7afe708e2e87e7f0e2ad9b4d545417e0f795f57b5c5ab5d799c565a04f4602052604090205460ff16611d1b565b67ffffffffffffffff811161176a5760051b60200190565b5f818152600260205260409020546001600160a01b0316908115611e7b575090565b60249060405190637e27328960e01b82526004820152fd5b335f9081527f270c7cc4331b1445974c76712d9bb2afa8846ba0435cde7d1460f79fd91c04bd60205260409020547f65d7a28e3265b37a6474929f336521b332c1681b933f6cb9f3376673440d862a9060ff1615611eee5750565b6044906040519063e2517d3f60e01b82523360048301526024820152fd5b335f9081527f6d5257204ebe7d88fd91ae87941cb2dd9d8062b64ae5a2bd2d28ec40b9fbf6df602052604090205460ff1615611f4457565b60405163e2517d3f60e01b81523360048201525f6024820152604490fd5b805f52600760205260405f20335f5260205260ff60405f20541615611eee5750565b90815f52600760205260405f209060018060a01b031690815f5260205260ff60405f205416155f14611ffc57815f52600760205260405f20815f5260205260405f20600160ff1982541617905533917f2f8788117e7eff1d82e926ec794901d17c78024a50270940304540a733656f0d5f80a4600190565b50505f90565b90815f52600760205260405f209060018060a01b031690815f5260205260ff60405f2054165f14611ffc57815f52600760205260405f20815f5260205260405f2060ff19815416905533917ff6391f5c32d9c69d2a47ea670b442974b53935d1edc7fd64eb21e047a839171b5f80a4600190565b60ff6008541661208257565b60405163d93c066560e01b8152600490fd5b60038110156118315780156120b4576001146120af57600890565b600590565b50600390565b9293909193843b6120cd575b5050505050565b604051630a85bd0160e11b8082526001600160a01b03958616600483015293851660248201526044810191909152608060648201526020959490931693929085908290819061212090608483019061168d565b03815f885af15f91816121c4575b5061218d575050503d5f14612185573d91612148836117bc565b92612156604051948561179a565b83523d5f8285013e5b8251928361218057604051633250574960e11b815260048101849052602490fd5b019050fd5b60609161215f565b9193506001600160e01b0319909116036121ac57505f808080806120c6565b60249060405190633250574960e11b82526004820152fd5b9091508581813d83116121fd575b6121dc818361179a565b810103126102f757516001600160e01b0319811681036102f757905f61212e565b503d6121d2565b60206118bb919392936040519481612225879351809286808701910161166c565b82016122398251809386808501910161166c565b0103808552018361179a565b61224e81611e59565b50805f5260206006815260405f20916040515f938181549561226f87611845565b92838352600197876001821691825f146124a0575050600114612462575b5061229a9250038261179a565b6122a261187d565b80511561245a57815161244c5750506122ba81611e59565b506122c361187d565b8051909390156124365781905f7a184f03e93ff9f4daa797ed6e38ed64bf6a1f0100000000000000008381811015612428575b5050846d04ee2d6d415b85acef81000000008086101561241c575b5050662386f26fc100008085101561240f575b506305f5e10080851015612402575b50612710808510156123f5575b5060648410156123e7575b602190600a809510156123df575b9081600184959493019661236c886117bc565b9761237a604051998a61179a565b808952612389601f19916117bc565b01903690890137860101905b6123aa575b505050506123a791612204565b90565b5f19019083906f181899199a1a9b1b9c1cb0b131b232b360811b8282061a8353049182156123da57919082612395565b61239a565b600101612359565b60649093049260020161234b565b600491940493015f612340565b600891940493015f612333565b601091940493015f612324565b9094049301845f612311565b049350604090505f806122f6565b505050506040516124468161177e565b5f815290565b915091506123a79250612204565b509250505090565b9150505f528184805f20875f915b85831061248757505061229a93508201015f61228d565b8091929450548385880101520191018590878593612470565b60ff19168582015261229a95151560051b85010192505f915061228d905056fea2646970667358221220e460a23cb19a0af0138e65d0b9a39e0700adf73319b57f184db2ff73780c20a664736f6c634300081800332f8788117e7eff1d82e926ec794901d17c78024a50270940304540a733656f0d6d5257204ebe7d88fd91ae87941cb2dd9d8062b64ae5a2bd2d28ec40b9fbf6df","linkReferences":{}},"methodIdentifiers":{"DEFAULT_ADMIN_ROLE()":"a217fddf","MINTER_ROLE()":"d5391393","PAUSER_ROLE()":"e63ab1e9","addBotToLand(uint256,uint256)":"eb4a83a5","approve(address,uint256)":"095ea7b3","balanceOf(address)":"70a08231","expandLand(uint256)":"cb9bd5ea","expansionCost()":"79fed7fc","getApproved(uint256)":"081812fc","getAssignedBots(uint256)":"187ab5b9","getLandData(uint256)":"ab9e611f","getOwnerLands(address)":"bf5172d7","getRoleAdmin(bytes32)":"248a9ca3","grantRole(bytes32,address)":"2f2ff15d","hasRole(bytes32,address)":"91d14854","isApprovedForAll(address,address)":"e985e9c5","landData(uint256)":"b95aa42f","mint(address,uint8)":"691562a0","mockOrangeToken()":"52f46149","name()":"06fdde03","ownerOf(uint256)":"6352211e","pause()":"8456cb59","paused()":"5c975abb","removeBotFromLand(uint256,uint256)":"99e10d1e","renounceRole(bytes32,address)":"36568abe","revokeRole(bytes32,address)":"d547741f","safeTransferFrom(address,address,uint256)":"42842e0e","safeTransferFrom(address,address,uint256,bytes)":"b88d4fde","setApprovalForAll(address,bool)":"a22cb465","setBaseURI(string)":"55f804b3","setExpansionCost(uint256)":"a2002e30","supportsInterface(bytes4)":"01ffc9a7","symbol()":"95d89b41","tokenOfOwnerByIndex(address,uint256)":"2f745c59","tokenURI(uint256)":"c87b56dd","transferFrom(address,address,uint256)":"23b872dd","unpause()":"3f4ba83a"},"id":96}