{"abi":[{"type":"constructor","inputs":[{"name":"admin","type":"address","internalType":"address"},{"name":"_mockOrangeToken","type":"address","internalType":"address"},{"name":"_landNFT","type":"address","internalType":"address"},{"name":"_botNFT","type":"address","internalType":"address"},{"name":"_waterToken","type":"address","internalType":"address"},{"name":"_treasury","type":"address","internalType":"address"}],"stateMutability":"nonpayable"},{"type":"function","name":"DEFAULT_ADMIN_ROLE","inputs":[],"outputs":[{"name":"","type":"bytes32","internalType":"bytes32"}],"stateMutability":"view"},{"type":"function","name":"PAUSER_ROLE","inputs":[],"outputs":[{"name":"","type":"bytes32","internalType":"bytes32"}],"stateMutability":"view"},{"type":"function","name":"PRICE_MANAGER_ROLE","inputs":[],"outputs":[{"name":"","type":"bytes32","internalType":"bytes32"}],"stateMutability":"view"},{"type":"function","name":"botNFT","inputs":[],"outputs":[{"name":"","type":"address","internalType":"address"}],"stateMutability":"view"},{"type":"function","name":"botPrices","inputs":[{"name":"","type":"uint8","internalType":"enum Marketplace.BotType"}],"outputs":[{"name":"","type":"uint256","internalType":"uint256"}],"stateMutability":"view"},{"type":"function","name":"buyBot","inputs":[{"name":"botType","type":"uint8","internalType":"enum Marketplace.BotType"}],"outputs":[{"name":"tokenId","type":"uint256","internalType":"uint256"}],"stateMutability":"nonpayable"},{"type":"function","name":"buyLand","inputs":[{"name":"landType","type":"uint8","internalType":"enum Marketplace.LandType"}],"outputs":[{"name":"tokenId","type":"uint256","internalType":"uint256"}],"stateMutability":"nonpayable"},{"type":"function","name":"buyWater","inputs":[{"name":"package","type":"uint8","internalType":"enum Marketplace.WaterPackage"}],"outputs":[],"stateMutability":"nonpayable"},{"type":"function","name":"getBotPrices","inputs":[],"outputs":[{"name":"prices","type":"uint256[3]","internalType":"uint256[3]"}],"stateMutability":"view"},{"type":"function","name":"getLandPrices","inputs":[],"outputs":[{"name":"prices","type":"uint256[3]","internalType":"uint256[3]"}],"stateMutability":"view"},{"type":"function","name":"getRoleAdmin","inputs":[{"name":"role","type":"bytes32","internalType":"bytes32"}],"outputs":[{"name":"","type":"bytes32","internalType":"bytes32"}],"stateMutability":"view"},{"type":"function","name":"getUserStats","inputs":[{"name":"user","type":"address","internalType":"address"}],"outputs":[{"name":"purchases","type":"uint256","internalType":"uint256"},{"name":"lastPurchase","type":"uint256","internalType":"uint256"}],"stateMutability":"view"},{"type":"function","name":"getWaterPackages","inputs":[],"outputs":[{"name":"prices","type":"uint256[3]","internalType":"uint256[3]"},{"name":"amounts","type":"uint256[3]","internalType":"uint256[3]"}],"stateMutability":"view"},{"type":"function","name":"grantRole","inputs":[{"name":"role","type":"bytes32","internalType":"bytes32"},{"name":"account","type":"address","internalType":"address"}],"outputs":[],"stateMutability":"nonpayable"},{"type":"function","name":"hasRole","inputs":[{"name":"role","type":"bytes32","internalType":"bytes32"},{"name":"account","type":"address","internalType":"address"}],"outputs":[{"name":"","type":"bool","internalType":"bool"}],"stateMutability":"view"},{"type":"function","name":"landNFT","inputs":[],"outputs":[{"name":"","type":"address","internalType":"address"}],"stateMutability":"view"},{"type":"function","name":"landPrices","inputs":[{"name":"","type":"uint8","internalType":"enum Marketplace.LandType"}],"outputs":[{"name":"","type":"uint256","internalType":"uint256"}],"stateMutability":"view"},{"type":"function","name":"lastPurchaseTime","inputs":[{"name":"","type":"address","internalType":"address"}],"outputs":[{"name":"","type":"uint256","internalType":"uint256"}],"stateMutability":"view"},{"type":"function","name":"mockOrangeToken","inputs":[],"outputs":[{"name":"","type":"address","internalType":"address"}],"stateMutability":"view"},{"type":"function","name":"pause","inputs":[],"outputs":[],"stateMutability":"nonpayable"},{"type":"function","name":"paused","inputs":[],"outputs":[{"name":"","type":"bool","internalType":"bool"}],"stateMutability":"view"},{"type":"function","name":"renounceRole","inputs":[{"name":"role","type":"bytes32","internalType":"bytes32"},{"name":"callerConfirmation","type":"address","internalType":"address"}],"outputs":[],"stateMutability":"nonpayable"},{"type":"function","name":"revokeRole","inputs":[{"name":"role","type":"bytes32","internalType":"bytes32"},{"name":"account","type":"address","internalType":"address"}],"outputs":[],"stateMutability":"nonpayable"},{"type":"function","name":"setBotPrice","inputs":[{"name":"botType","type":"uint8","internalType":"enum Marketplace.BotType"},{"name":"newPrice","type":"uint256","internalType":"uint256"}],"outputs":[],"stateMutability":"nonpayable"},{"type":"function","name":"setLandPrice","inputs":[{"name":"landType","type":"uint8","internalType":"enum Marketplace.LandType"},{"name":"newPrice","type":"uint256","internalType":"uint256"}],"outputs":[],"stateMutability":"nonpayable"},{"type":"function","name":"setTreasury","inputs":[{"name":"newTreasury","type":"address","internalType":"address"}],"outputs":[],"stateMutability":"nonpayable"},{"type":"function","name":"setWaterPackage","inputs":[{"name":"package","type":"uint8","internalType":"enum Marketplace.WaterPackage"},{"name":"newPrice","type":"uint256","internalType":"uint256"},{"name":"newAmount","type":"uint256","internalType":"uint256"}],"outputs":[],"stateMutability":"nonpayable"},{"type":"function","name":"supportsInterface","inputs":[{"name":"interfaceId","type":"bytes4","internalType":"bytes4"}],"outputs":[{"name":"","type":"bool","internalType":"bool"}],"stateMutability":"view"},{"type":"function","name":"totalPurchases","inputs":[],"outputs":[{"name":"","type":"uint256","internalType":"uint256"}],"stateMutability":"view"},{"type":"function","name":"totalRevenue","inputs":[],"outputs":[{"name":"","type":"uint256","internalType":"uint256"}],"stateMutability":"view"},{"type":"function","name":"treasury","inputs":[],"outputs":[{"name":"","type":"address","internalType":"address"}],"stateMutability":"view"},{"type":"function","name":"unpause","inputs":[],"outputs":[],"stateMutability":"nonpayable"},{"type":"function","name":"userPurchases","inputs":[{"name":"","type":"address","internalType":"address"}],"outputs":[{"name":"","type":"uint256","internalType":"uint256"}],"stateMutability":"view"},{"type":"function","name":"waterAmounts","inputs":[{"name":"","type":"uint8","internalType":"enum Marketplace.WaterPackage"}],"outputs":[{"name":"","type":"uint256","internalType":"uint256"}],"stateMutability":"view"},{"type":"function","name":"waterPrices","inputs":[{"name":"","type":"uint8","internalType":"enum Marketplace.WaterPackage"}],"outputs":[{"name":"","type":"uint256","internalType":"uint256"}],"stateMutability":"view"},{"type":"function","name":"waterToken","inputs":[],"outputs":[{"name":"","type":"address","internalType":"address"}],"stateMutability":"view"},{"type":"event","name":"BotPurchased","inputs":[{"name":"buyer","type":"address","indexed":true,"internalType":"address"},{"name":"botType","type":"uint8","indexed":false,"internalType":"enum Marketplace.BotType"},{"name":"tokenId","type":"uint256","indexed":false,"internalType":"uint256"},{"name":"price","type":"uint256","indexed":false,"internalType":"uint256"}],"anonymous":false},{"type":"event","name":"LandPurchased","inputs":[{"name":"buyer","type":"address","indexed":true,"internalType":"address"},{"name":"landType","type":"uint8","indexed":false,"internalType":"enum Marketplace.LandType"},{"name":"tokenId","type":"uint256","indexed":false,"internalType":"uint256"},{"name":"price","type":"uint256","indexed":false,"internalType":"uint256"}],"anonymous":false},{"type":"event","name":"Paused","inputs":[{"name":"account","type":"address","indexed":false,"internalType":"address"}],"anonymous":false},{"type":"event","name":"PriceUpdated","inputs":[{"name":"assetType","type":"string","indexed":false,"internalType":"string"},{"name":"assetIndex","type":"uint256","indexed":true,"internalType":"uint256"},{"name":"oldPrice","type":"uint256","indexed":false,"internalType":"uint256"},{"name":"newPrice","type":"uint256","indexed":false,"internalType":"uint256"}],"anonymous":false},{"type":"event","name":"RoleAdminChanged","inputs":[{"name":"role","type":"bytes32","indexed":true,"internalType":"bytes32"},{"name":"previousAdminRole","type":"bytes32","indexed":true,"internalType":"bytes32"},{"name":"newAdminRole","type":"bytes32","indexed":true,"internalType":"bytes32"}],"anonymous":false},{"type":"event","name":"RoleGranted","inputs":[{"name":"role","type":"bytes32","indexed":true,"internalType":"bytes32"},{"name":"account","type":"address","indexed":true,"internalType":"address"},{"name":"sender","type":"address","indexed":true,"internalType":"address"}],"anonymous":false},{"type":"event","name":"RoleRevoked","inputs":[{"name":"role","type":"bytes32","indexed":true,"internalType":"bytes32"},{"name":"account","type":"address","indexed":true,"internalType":"address"},{"name":"sender","type":"address","indexed":true,"internalType":"address"}],"anonymous":false},{"type":"event","name":"TreasuryUpdated","inputs":[{"name":"oldTreasury","type":"address","indexed":true,"internalType":"address"},{"name":"newTreasury","type":"address","indexed":true,"internalType":"address"}],"anonymous":false},{"type":"event","name":"Unpaused","inputs":[{"name":"account","type":"address","indexed":false,"internalType":"address"}],"anonymous":false},{"type":"event","name":"WaterPurchased","inputs":[{"name":"buyer","type":"address","indexed":true,"internalType":"address"},{"name":"package","type":"uint8","indexed":false,"internalType":"enum Marketplace.WaterPackage"},{"name":"amount","type":"uint256","indexed":false,"internalType":"uint256"},{"name":"price","type":"uint256","indexed":false,"internalType":"uint256"}],"anonymous":false},{"type":"error","name":"AccessControlBadConfirmation","inputs":[]},{"type":"error","name":"AccessControlUnauthorizedAccount","inputs":[{"name":"account","type":"address","internalType":"address"},{"name":"neededRole","type":"bytes32","internalType":"bytes32"}]},{"type":"error","name":"EnforcedPause","inputs":[]},{"type":"error","name":"ExpectedPause","inputs":[]},{"type":"error","name":"ReentrancyGuardReentrantCall","inputs":[]},{"type":"error","name":"SafeERC20FailedOperation","inputs":[{"name":"token","type":"address","internalType":"address"}]}],"bytecode":{"object":"0x6080346200043557601f62001be838819003918201601f191683019291906001600160401b0384118385101762000439578160c09284926040968752833981010312620004355762000051816200044d565b602091620000618382016200044d565b916200006f8583016200044d565b916200007e606082016200044d565b936200009b60a062000093608085016200044d565b93016200044d565b60017f9b779b17422d0df92223018b32b4d1fa46e071723d6817e2486d003becc55f00819055949091906001600160a01b039085821615620003e557818316156200039557811696871562000346578116938415620002f8578116928315620002a85716938415620002555780620001176200012a9262000462565b506200012381620004d2565b5062000572565b50845490610100600160a81b039060081b1690610100600160a81b03191617845560018060a01b0319916002958387541617865582600354161760035581600454161760045560055416176005555f805260068352600968056bc75e2d631000009384865f2055825f52680d8d726b7177a80000865f2055835f52681b1ae4d6e2ef500000865f20555f805260078152680821ab0d4414980000865f2055825f526815af1d78b58c400000865f2055835f52682b5e3af16b18800000865f20555f805260088152674563918244f40000865f2055825f526801158e460913d00000865f2055835f526801e5b8fa8fe2ac0000865f20555f805252678ac7230489e80000845f20555f526802b5e3af16b1880000835f20555f52815f20555161159b90816200060d8239f35b885162461bcd60e51b815260048101899052602660248201527f4d61726b6574706c6163653a207a65726f206164647265737320666f7220747260448201526565617375727960d01b6064820152608490fd5b895162461bcd60e51b8152600481018a9052602360248201527f4d61726b6574706c6163653a207a65726f206164647265737320666f722077616044820152623a32b960e91b6064820152608490fd5b895162461bcd60e51b8152600481018a9052602160248201527f4d61726b6574706c6163653a207a65726f206164647265737320666f7220626f6044820152601d60fa1b6064820152608490fd5b895162461bcd60e51b8152600481018a9052602260248201527f4d61726b6574706c6163653a207a65726f206164647265737320666f72206c616044820152611b9960f21b6064820152608490fd5b895162461bcd60e51b8152600481018a9052602360248201527f4d61726b6574706c6163653a207a65726f206164647265737320666f7220746f60448201526235b2b760e91b6064820152608490fd5b895162461bcd60e51b8152600481018a9052602360248201527f4d61726b6574706c6163653a207a65726f206164647265737320666f7220616460448201526236b4b760e91b6064820152608490fd5b5f80fd5b634e487b7160e01b5f52604160045260245ffd5b51906001600160a01b03821682036200043557565b6001600160a01b03165f8181525f8051602062001bc8833981519152602052604090205460ff16620004cd575f8181525f8051602062001bc883398151915260205260408120805460ff191660011790553391905f8051602062001ba88339815191528180a4600190565b505f90565b6001600160a01b03165f8181527ff7c9542c591017a21c74b6f3fab6263c7952fc0aaf9db4c22a2a04ddc7f8674f60205260409020547f65d7a28e3265b37a6474929f336521b332c1681b933f6cb9f3376673440d862a919060ff166200056c57815f525f60205260405f20815f5260205260405f20600160ff1982541617905533915f8051602062001ba88339815191525f80a4600190565b50505f90565b6001600160a01b03165f8181527f9d3d98451b345b45ff50af9e3af5ef3d429772e3b256eac22f1b87f9143d4f3e60205260409020547f3515f38d031dcbca5f1dac4c5afc1efca2020e42efdd9c5806ae7e963d18435a919060ff166200056c57815f525f60205260405f20815f5260205260405f20600160ff1982541617905533915f8051602062001ba88339815191525f80a460019056fe60806040818152600480361015610014575f80fd5b5f925f3560e01c90816301ffc9a7146110ac5750806307ed5c82146110845780632190293314610fdd578063227a14c114610fa6578063248a9ca314610f7c5780632abd2b7414610ecb5780632f2ff15d14610e9157806331aab75914610e5757806332abbcb314610e1d57806336568abe14610dd657806339d022e114610dae57806339f65c0914610d775780633f4ba83a14610d0f5780633fd7755314610c5f5780634e29c2e214610ac75780634e43603a14610a8457806352f4614914610a585780635962a94114610a3a5780635c975abb14610a175780635eaf05cc146109dd57806361d027b3146109b55780636ed059ff1461098d57806375897c8d146109535780638456cb59146108fb57806391d14854146108b7578063a217fddf1461089d578063b2b9a8d7146106ff578063bf2d9e0b146106e0578063c5f41ba01461067f578063cd77e43114610559578063d547741f1461051b578063dbdbcf4f14610377578063dd9747f814610314578063e62752ad146102db578063e63ab1e91461029c5763f0f44260146101ac575f80fd5b34610298576020366003190112610298576101c5611125565b905f80525f602052825f20335f5260205260ff835f2054161561027b576001600160a01b03918216928315610238575050600554826bffffffffffffffffffffffff60a01b821617600555167f4ab5be82436d353e61ca18726e984e561f5c1cc7c6d38b29d2553c790434705a8380a380f35b906020606492519162461bcd60e51b8352820152601960248201527f4d61726b6574706c6163653a207a65726f2061646472657373000000000000006044820152fd5b60449083519063e2517d3f60e01b825233908201525f6024820152fd5b8280fd5b5050346102d757816003193601126102d757602090517f65d7a28e3265b37a6474929f336521b332c1681b933f6cb9f3376673440d862a8152f35b5080fd5b50346102985760203660031901126102985735600381101561029857602092816103058493611151565b81526008845220549051908152f35b5050346102d757816003193601126102d757906103758280606094519361033a8561116f565b8536863780805260066020528181205485526001815260066020528181205460208601526002815260066020522054818401525180926110fe565bf35b509190346102d75760209283600319360112610298578035906003821015610517576103a16113fc565b6103a961141a565b6103b282611151565b81845260078552828420549081156104d4578560018060a01b036103e5848260015460081c168360055416903390611449565b60035416916103f385611151565b604460ff86169161040383611151565b8888519586948593630348ab1560e51b8552339085015261042381611151565b60248401525af19485156104c95794610496575b5061044281336114f4565b82519161044e81611151565b82528385830152828201527f256742aa2301e21ced7ae40d905c4ec10e370f9fb61c27e6b067e512dd1f64e560603392a260015f805160206115468339815191525551908152f35b9093508481813d83116104c2575b6104ae818361119f565b810103126104be5751925f610437565b5f80fd5b503d6104a4565b8451903d90823e3d90fd5b835162461bcd60e51b8152908101869052601d60248201527f4d61726b6574706c6163653a20696e76616c696420626f7420747970650000006044820152606490fd5b8380fd5b5090346102985780600319360112610298576105559135610550600161053f61113b565b9383875286602052862001546112ed565b61138a565b5080f35b5034610298576060366003190112610298578035916003831015610517576024359060443592610587611219565b6105928315156111c1565b831561063157509160a0917fb9eff63454e8f3e7e3a0591926665ec3da6f4d9d4072630ddac1bb0b9836d506936105c886611151565b858752600860205280872054926105de87611151565b868852600860205282828920556105f487611151565b86885260096020528188205561060986611151565b8051926060845260056060850152642bb0ba32b960d91b60808501526020840152820152a280f35b6020608492519162461bcd60e51b83528201526024808201527f4d61726b6574706c6163653a20616d6f756e74206d75737420626520706f73696044820152637469766560e01b6064820152fd5b5050346102d757816003193601126102d75790610375828060609451936106a58561116f565b8536863780805260076020528181205485526001815260076020528181205460208601526002815260076020522054818401525180926110fe565b5050346102d757816003193601126102d757602090600b549051908152f35b50346104be5760203660031901126104be5780359160038310156104be576107256113fc565b61072d61141a565b61073683611151565b825f526008602052805f20549161074c84611151565b835f526009602052815f205490831561084f5760018060a01b0361077f858260015460081c168360055416903390611449565b81541690813b156104be575f809260448651809581936340c10f1960e01b835233878401528860248401525af1801561084557610813575b50506107c383336114f4565b8151936107cf81611151565b845260208401528201527f05a936d1072a9461d521f0a5d950784261a332519bba89f21910b4094fb5d04260603392a260015f805160206115468339815191525580f35b9091955067ffffffffffffffff8211610832575081525f935f806107b7565b604190634e487b7160e01b5f525260245ffd5b84513d5f823e3d90fd5b608490602084519162461bcd60e51b8352820152602260248201527f4d61726b6574706c6163653a20696e76616c6964207761746572207061636b61604482015261676560f01b6064820152fd5b82346104be575f3660031901126104be57602090515f8152f35b5090346104be57806003193601126104be576020916108d461113b565b90355f525f8352815f209060018060a01b03165f52825260ff815f20541690519015158152f35b82346104be575f3660031901126104be5760207f62e78cea01bee320cd4e420270b5ea74000d11b0c9f74754ebdbfc544b05a25891610938611292565b6109406113fc565b600160ff198154161760015551338152a1005b50346104be5760203660031901126104be57359060038210156104be578161097c602093611151565b5f5260068252805f20549051908152f35b5090346104be575f3660031901126104be57905490516001600160a01b039091168152602090f35b82346104be575f3660031901126104be5760055490516001600160a01b039091168152602090f35b50346104be5760203660031901126104be57359060038210156104be5781610a06602093611151565b5f5260078252805f20549051908152f35b82346104be575f3660031901126104be5760209060ff6001541690519015158152f35b82346104be575f3660031901126104be57602090600a549051908152f35b82346104be575f3660031901126104be57600154905160089190911c6001600160a01b03168152602090f35b82346104be5760203660031901126104be576001600160a01b03610aa6611125565b165f52600c602052805f2054600d602052815f205482519182526020820152f35b50346104be57602091826003193601126104be57813560038110156104be57610aee6113fc565b610af661141a565b610aff81611151565b805f5260068452815f20548015610c1c578460018060a01b03610b31838260015460081c168360055416903390611449565b6002541694610b3f84611151565b604460ff851691610b4f83611151565b5f87519889948593630348ab1560e51b85523390850152610b6f81611151565b60248401525af1938415610c12575f94610be3575b50610b8f81336114f4565b825191610b9b81611151565b82528385830152828201527f0fb1b249b097a10057818d9057f242c5c5da9040e3e0aa148757d31042076f0b60603392a260015f805160206115468339815191525551908152f35b9093508481813d8311610c0b575b610bfb818361119f565b810103126104be57519285610b84565b503d610bf1565b83513d5f823e3d90fd5b825162461bcd60e51b8152808501869052601e60248201527f4d61726b6574706c6163653a20696e76616c6964206c616e64207479706500006044820152606490fd5b50346104be57816003193601126104be57359060038210156104be5760a07fb9eff63454e8f3e7e3a0591926665ec3da6f4d9d4072630ddac1bb0b9836d50691602435610caa611219565b610cb58115156111c1565b610cbe85611151565b845f526007602052815f205491610cd486611151565b855f52600760205281815f2055610cea86611151565b805192606084526003606085015262109bdd60ea1b60808501526020840152820152a2005b5090346104be575f3660031901126104be57610d29611292565b6001549160ff831615610d69577f5db9ee0a495bf2e6ff9c91a7834c1ba4fdd244a5e8aa4e537bd38aeae4b073aa6020838560ff191660015551338152a1005b9051638dfc202b60e01b8152fd5b82346104be5760203660031901126104be576020906001600160a01b03610d9c611125565b165f52600c8252805f20549051908152f35b82346104be575f3660031901126104be5760025490516001600160a01b039091168152602090f35b5090346104be57806003193601126104be57610df061113b565b90336001600160a01b03831603610e0e5750610e0c913561138a565b005b5163334bd91960e11b81529050fd5b50346104be5760203660031901126104be57359060038210156104be5781610e46602093611151565b5f5260098252805f20549051908152f35b82346104be575f3660031901126104be57602090517f3515f38d031dcbca5f1dac4c5afc1efca2020e42efdd9c5806ae7e963d18435a8152f35b5090346104be57806003193601126104be57610e0c9135610ec66001610eb561113b565b93835f525f6020525f2001546112ed565b61130e565b50346104be57816003193601126104be5780359160038310156104be577fb9eff63454e8f3e7e3a0591926665ec3da6f4d9d4072630ddac1bb0b9836d5069160a09160243590610f19611219565b610f248215156111c1565b610f2d86611151565b855f526006602052805f2054610f4287611151565b865f52600660205282825f2055610f5887611151565b8151936060855260608501526313185b9960e21b60808501526020840152820152a2005b5090346104be5760203660031901126104be57602091355f525f82526001815f2001549051908152f35b82346104be5760203660031901126104be576020906001600160a01b03610fcb611125565b165f52600d8252805f20549051908152f35b82346104be575f3660031901126104be578061037560c09251916110008361116f565b606036843761107a8151916110148361116f565b60603684375f80526009602060088152825f2054875260015f5260088152825f20548188015260025f5260088152825f2054838801525f8052818152825f2054855260015f52818152825f20548186015260025f5252805f2054818401525180946110fe565b60608301906110fe565b82346104be575f3660031901126104be5760035490516001600160a01b039091168152602090f35b82346104be5760203660031901126104be57359063ffffffff60e01b82168092036104be57602091637965db0b60e01b81149081156110ed575b5015158152f35b6301ffc9a760e01b149050836110e6565b5f915b6003831061110e57505050565b600190825181526020809101920192019190611101565b600435906001600160a01b03821682036104be57565b602435906001600160a01b03821682036104be57565b6003111561115b57565b634e487b7160e01b5f52602160045260245ffd5b6060810190811067ffffffffffffffff82111761118b57604052565b634e487b7160e01b5f52604160045260245ffd5b90601f8019910116810190811067ffffffffffffffff82111761118b57604052565b156111c857565b60405162461bcd60e51b815260206004820152602360248201527f4d61726b6574706c6163653a207072696365206d75737420626520706f73697460448201526269766560e81b6064820152608490fd5b335f9081527f9d3d98451b345b45ff50af9e3af5ef3d429772e3b256eac22f1b87f9143d4f3e60205260409020547f3515f38d031dcbca5f1dac4c5afc1efca2020e42efdd9c5806ae7e963d18435a9060ff16156112745750565b6044906040519063e2517d3f60e01b82523360048301526024820152fd5b335f9081527ff7c9542c591017a21c74b6f3fab6263c7952fc0aaf9db4c22a2a04ddc7f8674f60205260409020547f65d7a28e3265b37a6474929f336521b332c1681b933f6cb9f3376673440d862a9060ff16156112745750565b805f525f60205260405f20335f5260205260ff60405f205416156112745750565b90815f525f60205260405f209060018060a01b031690815f5260205260ff60405f205416155f1461138457815f525f60205260405f20815f5260205260405f20600160ff1982541617905533917f2f8788117e7eff1d82e926ec794901d17c78024a50270940304540a733656f0d5f80a4600190565b50505f90565b90815f525f60205260405f209060018060a01b031690815f5260205260ff60405f2054165f1461138457815f525f60205260405f20815f5260205260405f2060ff19815416905533917ff6391f5c32d9c69d2a47ea670b442974b53935d1edc7fd64eb21e047a839171b5f80a4600190565b60ff6001541661140857565b60405163d93c066560e01b8152600490fd5b5f8051602061154683398151915260028154146114375760029055565b604051633ee5aeb560e01b8152600490fd5b6040516323b872dd60e01b5f9081526001600160a01b03938416600452938316602452604494909452909160209060648180855af160015f51148116156114b3575b836040525f6060521561149d57505050565b635274afe760e01b835216600482015260249150fd5b60018115166114c957813b15153d15161661148b565b833d5f823e3d90fd5b5f1981146114e05760010190565b634e487b7160e01b5f52601160045260245ffd5b90611500600a546114d2565b600a55600b549081018091116114e057600b556001600160a01b03165f818152600c602052604090208054611534906114d2565b90555f52600d6020524260405f205556fe9b779b17422d0df92223018b32b4d1fa46e071723d6817e2486d003becc55f00a2646970667358221220115fa484330ed81d2a6708ac182e57810c08b5905fa85b2ec8a47c62f603093e64736f6c634300081800332f8788117e7eff1d82e926ec794901d17c78024a50270940304540a733656f0dad3228b676f7d3cd4284a5443f17f1962b36e491b30a40b2405849e597ba5fb5","linkReferences":{}},"methodIdentifiers":{"DEFAULT_ADMIN_ROLE()":"a217fddf","PAUSER_ROLE()":"e63ab1e9","PRICE_MANAGER_ROLE()":"31aab759","botNFT()":"07ed5c82","botPrices(uint8)":"5eaf05cc","buyBot(uint8)":"dbdbcf4f","buyLand(uint8)":"4e29c2e2","buyWater(uint8)":"b2b9a8d7","getBotPrices()":"c5f41ba0","getLandPrices()":"dd9747f8","getRoleAdmin(bytes32)":"248a9ca3","getUserStats(address)":"4e43603a","getWaterPackages()":"21902933","grantRole(bytes32,address)":"2f2ff15d","hasRole(bytes32,address)":"91d14854","landNFT()":"39d022e1","landPrices(uint8)":"75897c8d","lastPurchaseTime(address)":"227a14c1","mockOrangeToken()":"52f46149","pause()":"8456cb59","paused()":"5c975abb","renounceRole(bytes32,address)":"36568abe","revokeRole(bytes32,address)":"d547741f","setBotPrice(uint8,uint256)":"3fd77553","setLandPrice(uint8,uint256)":"2abd2b74","setTreasury(address)":"f0f44260","setWaterPackage(uint8,uint256,uint256)":"cd77e431","supportsInterface(bytes4)":"01ffc9a7","totalPurchases()":"5962a941","totalRevenue()":"bf2d9e0b","treasury()":"61d027b3","unpause()":"3f4ba83a","userPurchases(address)":"39f65c09","waterAmounts(uint8)":"32abbcb3","waterPrices(uint8)":"e62752ad","waterToken()":"6ed059ff"},"id":97}