{"abi":[{"type":"constructor","inputs":[{"name":"admin","type":"address","internalType":"address"}],"stateMutability":"nonpayable"},{"type":"function","name":"DAILY_MINT_AMOUNT","inputs":[],"outputs":[{"name":"","type":"uint256","internalType":"uint256"}],"stateMutability":"view"},{"type":"function","name":"DEFAULT_ADMIN_ROLE","inputs":[],"outputs":[{"name":"","type":"bytes32","internalType":"bytes32"}],"stateMutability":"view"},{"type":"function","name":"MINTER_ROLE","inputs":[],"outputs":[{"name":"","type":"bytes32","internalType":"bytes32"}],"stateMutability":"view"},{"type":"function","name":"MINT_COOLDOWN","inputs":[],"outputs":[{"name":"","type":"uint256","internalType":"uint256"}],"stateMutability":"view"},{"type":"function","name":"PAUSER_ROLE","inputs":[],"outputs":[{"name":"","type":"bytes32","internalType":"bytes32"}],"stateMutability":"view"},{"type":"function","name":"STARTER_BONUS","inputs":[],"outputs":[{"name":"","type":"uint256","internalType":"uint256"}],"stateMutability":"view"},{"type":"function","name":"allowance","inputs":[{"name":"owner","type":"address","internalType":"address"},{"name":"spender","type":"address","internalType":"address"}],"outputs":[{"name":"","type":"uint256","internalType":"uint256"}],"stateMutability":"view"},{"type":"function","name":"approve","inputs":[{"name":"spender","type":"address","internalType":"address"},{"name":"value","type":"uint256","internalType":"uint256"}],"outputs":[{"name":"","type":"bool","internalType":"bool"}],"stateMutability":"nonpayable"},{"type":"function","name":"balanceOf","inputs":[{"name":"account","type":"address","internalType":"address"}],"outputs":[{"name":"","type":"uint256","internalType":"uint256"}],"stateMutability":"view"},{"type":"function","name":"burn","inputs":[{"name":"amount","type":"uint256","internalType":"uint256"}],"outputs":[],"stateMutability":"nonpayable"},{"type":"function","name":"canMintDaily","inputs":[{"name":"player","type":"address","internalType":"address"}],"outputs":[{"name":"","type":"bool","internalType":"bool"}],"stateMutability":"view"},{"type":"function","name":"dailyMint","inputs":[],"outputs":[],"stateMutability":"nonpayable"},{"type":"function","name":"decimals","inputs":[],"outputs":[{"name":"","type":"uint8","internalType":"uint8"}],"stateMutability":"view"},{"type":"function","name":"getLastMintTimestamp","inputs":[{"name":"player","type":"address","internalType":"address"}],"outputs":[{"name":"","type":"uint256","internalType":"uint256"}],"stateMutability":"view"},{"type":"function","name":"getRoleAdmin","inputs":[{"name":"role","type":"bytes32","internalType":"bytes32"}],"outputs":[{"name":"","type":"bytes32","internalType":"bytes32"}],"stateMutability":"view"},{"type":"function","name":"getTimeUntilNextMint","inputs":[{"name":"player","type":"address","internalType":"address"}],"outputs":[{"name":"","type":"uint256","internalType":"uint256"}],"stateMutability":"view"},{"type":"function","name":"grantRole","inputs":[{"name":"role","type":"bytes32","internalType":"bytes32"},{"name":"account","type":"address","internalType":"address"}],"outputs":[],"stateMutability":"nonpayable"},{"type":"function","name":"hasReceivedStarter","inputs":[{"name":"player","type":"address","internalType":"address"}],"outputs":[{"name":"","type":"bool","internalType":"bool"}],"stateMutability":"view"},{"type":"function","name":"hasRole","inputs":[{"name":"role","type":"bytes32","internalType":"bytes32"},{"name":"account","type":"address","internalType":"address"}],"outputs":[{"name":"","type":"bool","internalType":"bool"}],"stateMutability":"view"},{"type":"function","name":"mint","inputs":[{"name":"to","type":"address","internalType":"address"},{"name":"amount","type":"uint256","internalType":"uint256"}],"outputs":[],"stateMutability":"nonpayable"},{"type":"function","name":"name","inputs":[],"outputs":[{"name":"","type":"string","internalType":"string"}],"stateMutability":"view"},{"type":"function","name":"pause","inputs":[],"outputs":[],"stateMutability":"nonpayable"},{"type":"function","name":"paused","inputs":[],"outputs":[{"name":"","type":"bool","internalType":"bool"}],"stateMutability":"view"},{"type":"function","name":"registerPlayer","inputs":[{"name":"player","type":"address","internalType":"address"}],"outputs":[],"stateMutability":"nonpayable"},{"type":"function","name":"renounceRole","inputs":[{"name":"role","type":"bytes32","internalType":"bytes32"},{"name":"callerConfirmation","type":"address","internalType":"address"}],"outputs":[],"stateMutability":"nonpayable"},{"type":"function","name":"revokeRole","inputs":[{"name":"role","type":"bytes32","internalType":"bytes32"},{"name":"account","type":"address","internalType":"address"}],"outputs":[],"stateMutability":"nonpayable"},{"type":"function","name":"supportsInterface","inputs":[{"name":"interfaceId","type":"bytes4","internalType":"bytes4"}],"outputs":[{"name":"","type":"bool","internalType":"bool"}],"stateMutability":"view"},{"type":"function","name":"symbol","inputs":[],"outputs":[{"name":"","type":"string","internalType":"string"}],"stateMutability":"view"},{"type":"function","name":"totalSupply","inputs":[],"outputs":[{"name":"","type":"uint256","internalType":"uint256"}],"stateMutability":"view"},{"type":"function","name":"transfer","inputs":[{"name":"to","type":"address","internalType":"address"},{"name":"value","type":"uint256","internalType":"uint256"}],"outputs":[{"name":"","type":"bool","internalType":"bool"}],"stateMutability":"nonpayable"},{"type":"function","name":"transferFrom","inputs":[{"name":"from","type":"address","internalType":"address"},{"name":"to","type":"address","internalType":"address"},{"name":"value","type":"uint256","internalType":"uint256"}],"outputs":[{"name":"","type":"bool","internalType":"bool"}],"stateMutability":"nonpayable"},{"type":"function","name":"unpause","inputs":[],"outputs":[],"stateMutability":"nonpayable"},{"type":"event","name":"Approval","inputs":[{"name":"owner","type":"address","indexed":true,"internalType":"address"},{"name":"spender","type":"address","indexed":true,"internalType":"address"},{"name":"value","type":"uint256","indexed":false,"internalType":"uint256"}],"anonymous":false},{"type":"event","name":"DailyMintClaimed","inputs":[{"name":"player","type":"address","indexed":true,"internalType":"address"},{"name":"amount","type":"uint256","indexed":false,"internalType":"uint256"}],"anonymous":false},{"type":"event","name":"Paused","inputs":[{"name":"account","type":"address","indexed":false,"internalType":"address"}],"anonymous":false},{"type":"event","name":"PlayerRegistered","inputs":[{"name":"player","type":"address","indexed":true,"internalType":"address"},{"name":"starterAmount","type":"uint256","indexed":false,"internalType":"uint256"}],"anonymous":false},{"type":"event","name":"RoleAdminChanged","inputs":[{"name":"role","type":"bytes32","indexed":true,"internalType":"bytes32"},{"name":"previousAdminRole","type":"bytes32","indexed":true,"internalType":"bytes32"},{"name":"newAdminRole","type":"bytes32","indexed":true,"internalType":"bytes32"}],"anonymous":false},{"type":"event","name":"RoleGranted","inputs":[{"name":"role","type":"bytes32","indexed":true,"internalType":"bytes32"},{"name":"account","type":"address","indexed":true,"internalType":"address"},{"name":"sender","type":"address","indexed":true,"internalType":"address"}],"anonymous":false},{"type":"event","name":"RoleRevoked","inputs":[{"name":"role","type":"bytes32","indexed":true,"internalType":"bytes32"},{"name":"account","type":"address","indexed":true,"internalType":"address"},{"name":"sender","type":"address","indexed":true,"internalType":"address"}],"anonymous":false},{"type":"event","name":"Transfer","inputs":[{"name":"from","type":"address","indexed":true,"internalType":"address"},{"name":"to","type":"address","indexed":true,"internalType":"address"},{"name":"value","type":"uint256","indexed":false,"internalType":"uint256"}],"anonymous":false},{"type":"event","name":"Unpaused","inputs":[{"name":"account","type":"address","indexed":false,"internalType":"address"}],"anonymous":false},{"type":"error","name":"AccessControlBadConfirmation","inputs":[]},{"type":"error","name":"AccessControlUnauthorizedAccount","inputs":[{"name":"account","type":"address","internalType":"address"},{"name":"neededRole","type":"bytes32","internalType":"bytes32"}]},{"type":"error","name":"ERC20InsufficientAllowance","inputs":[{"name":"spender","type":"address","internalType":"address"},{"name":"allowance","type":"uint256","internalType":"uint256"},{"name":"needed","type":"uint256","internalType":"uint256"}]},{"type":"error","name":"ERC20InsufficientBalance","inputs":[{"name":"sender","type":"address","internalType":"address"},{"name":"balance","type":"uint256","internalType":"uint256"},{"name":"needed","type":"uint256","internalType":"uint256"}]},{"type":"error","name":"ERC20InvalidApprover","inputs":[{"name":"approver","type":"address","internalType":"address"}]},{"type":"error","name":"ERC20InvalidReceiver","inputs":[{"name":"receiver","type":"address","internalType":"address"}]},{"type":"error","name":"ERC20InvalidSender","inputs":[{"name":"sender","type":"address","internalType":"address"}]},{"type":"error","name":"ERC20InvalidSpender","inputs":[{"name":"spender","type":"address","internalType":"address"}]},{"type":"error","name":"EnforcedPause","inputs":[]},{"type":"error","name":"ExpectedPause","inputs":[]},{"type":"error","name":"MintCooldownActive","inputs":[]},{"type":"error","name":"StarterAlreadyClaimed","inputs":[]},{"type":"error","name":"ZeroAddressNotAllowed","inputs":[]}],"bytecode":{"object":"0x608034620003a957601f1990601f906001600160401b0362001704388190038481018616840183811185821017620002b857849282916040528339602093849181010312620003a95751936001600160a01b03851691828603620003a95762000067620003ad565b94600d86526c4d6f636b4f72616e676544414f60981b858701526200008b620003ad565b9560078752664d4f52414e474560c81b86880152805191838311620002b85760039283546001938482811c921680156200039e575b8a8310146200038a57818484931162000337575b508990848311600114620002d8575f92620002cc575b50505f1982861b1c191690831b1783555b8751938411620002b85760049788548381811c91168015620002ad575b898210146200029a5782811162000252575b5087918511600114620001ed57849550908492915f95620001e1575b50501b925f19911b1c19161783555b156200018f576200017e836200016b81620003cd565b5062000177816200043d565b50620004de565b5060405161114a90816200057a8239f35b60405162461bcd60e51b815291820152602660248201527f4d6f636b4f72616e6765546f6b656e3a2061646d696e206973207a65726f206160448201526564647265737360d01b606482015260849150fd5b015193505f8062000146565b929194841692885f5284885f20945f5b8a898383106200023a575050501062000220575b50505050811b01835562000155565b01519060f8845f19921b161c191690555f80808062000211565b868601518955909701969485019488935001620001fd565b895f52885f208380880160051c8201928b891062000290575b0160051c019084905b828110620002845750506200012a565b5f815501849062000274565b925081926200026b565b60228a634e487b7160e01b5f525260245ffd5b90607f169062000118565b634e487b7160e01b5f52604160045260245ffd5b015190505f80620000ea565b908886941691875f528b5f20925f5b8d82821062000320575050841162000308575b505050811b018355620000fb565b01515f1983881b60f8161c191690555f8080620002fa565b8385015186558997909501949384019301620002e7565b909150855f52895f208480850160051c8201928c861062000380575b918791869594930160051c01915b82811062000371575050620000d4565b5f815585945087910162000361565b9250819262000353565b634e487b7160e01b5f52602260045260245ffd5b91607f1691620000c0565b5f80fd5b60408051919082016001600160401b03811183821017620002b857604052565b6001600160a01b03165f8181525f80516020620016e4833981519152602052604090205460ff1662000438575f8181525f80516020620016e483398151915260205260408120805460ff191660011790553391905f80516020620016c48339815191528180a4600190565b505f90565b6001600160a01b03165f8181527f3195c024b2ddd6d9b8f6c836aa52f67fe69376c8903d009b80229b3ce4425f5160205260409020547f9f2df0fed2c77648de5860a4cc508cd0818c85b8b8a1ab4ceeef8d981c8956a6919060ff16620004d857815f52600660205260405f20815f5260205260405f20600160ff1982541617905533915f80516020620016c48339815191525f80a4600190565b50505f90565b6001600160a01b03165f8181527fe09f975e15f8f53f24cbbc282b13c40b84df485fcdb8d3997fa103dc5a4ef84160205260409020547f65d7a28e3265b37a6474929f336521b332c1681b933f6cb9f3376673440d862a919060ff16620004d857815f52600660205260405f20815f5260205260405f20600160ff1982541617905533915f80516020620016c48339815191525f80a460019056fe6080604090808252600480361015610015575f80fd5b5f3560e01c91826301ffc9a714610cd65750816306fdde0314610bfb578163095ea7b314610b5357816318160ddd14610b3557816323b872dd14610a43578163248a9ca314610a1957816327f92326146109ed5781632f2ff15d146109c5578163313ce567146109aa57816336568abe146109665781633f4ba83a146108ff57816340c10f191461087057816342966c68146107c85781635c975abb146107a55781636b5cc6d9146106a557816370a082311461066f5781637b996fd614610586578163805b59f6146105635781638456cb591461050a57816391d14854146104c6578163946b88981461048a57816395d89b411461036b578163a217fddf14610351578163a5ebc8441461032e578163a9059cbb146102fe578163b9301640146102d0578163d539139314610296578163d547741f1461025a57508063dd62ed3e14610211578063e5617bba146101da578063e63ab1e9146101a05763f7ee7a4314610180575f80fd5b3461019c575f36600319011261019c5760209051620151808152f35b5f80fd5b503461019c575f36600319011261019c57602090517f65d7a28e3265b37a6474929f336521b332c1681b933f6cb9f3376673440d862a8152f35b503461019c57602036600319011261019c576020906001600160a01b036101ff610d6f565b165f5260088252805f20549051908152f35b503461019c578060031936011261019c5760209061022d610d6f565b610235610d85565b9060018060a01b038091165f5260018452825f2091165f528252805f20549051908152f35b823461019c578060031936011261019c57610294913561028f600161027d610d85565b93835f5260066020525f200154610fc2565b611062565b005b823461019c575f36600319011261019c57602090517f9f2df0fed2c77648de5860a4cc508cd0818c85b8b8a1ab4ceeef8d981c8956a68152f35b823461019c57602036600319011261019c576020906102f56102f0610d6f565b610df5565b90519015158152f35b823461019c578060031936011261019c5760209061032761031d610d6f565b6024359033610e1f565b5160018152f35b823461019c575f36600319011261019c576020905168056bc75e2d631000008152f35b823461019c575f36600319011261019c57602090515f8152f35b823461019c575f36600319011261019c578051905f835460018160011c9060018316928315610480575b602093848410811461046d5783885290811561045157506001146103fd575b505050829003601f01601f191682019267ffffffffffffffff8411838510176103ea57508291826103e6925282610d28565b0390f35b604190634e487b7160e01b5f525260245ffd5b5f878152929350837f8a35acfbc15ff81a39ae7d344fd709f28e8600b4aa8c65c6b64bfe7fe36bd19b5b83851061043d57505050508301018480806103b4565b805488860183015293019284908201610427565b60ff1916878501525050151560051b84010190508480806103b4565b602289634e487b7160e01b5f525260245ffd5b91607f1691610395565b823461019c57602036600319011261019c576020906001600160a01b036104af610d6f565b165f526007825260ff815f20541690519015158152f35b823461019c578060031936011261019c576020916104e2610d85565b90355f5260068352815f209060018060a01b03165f52825260ff815f20541690519015158152f35b823461019c575f36600319011261019c5760207f62e78cea01bee320cd4e420270b5ea74000d11b0c9f74754ebdbfc544b05a25891610547610eee565b61054f6110d6565b600160ff19600554161760055551338152a1005b823461019c575f36600319011261019c57602090516802b5e3af16b18800008152f35b823461019c575f36600319011261019c5761059f6110d6565b6105a833610df5565b1561066257335f52600860205242815f2055331561064c576105c86110d6565b60025468056bc75e2d63100000928382018092116106395750600255335f525f602052805f2082815401905580518281525f5f805160206110f583398151915260203393a3519081527f072558d27d1613a31a7a043879685ef36ff9a089a6e217e64205686374b05de560203392a2005b601190634e487b7160e01b5f525260245ffd5b905f602492519163ec442f0560e01b8352820152fd5b516374006bc160e11b8152fd5b823461019c57602036600319011261019c576020906001600160a01b03610694610d6f565b165f525f8252805f20549051908152f35b823461019c5760208060031936011261019c576106c0610d6f565b6106c8610f67565b6001600160a01b031691821561079657825f526007825260ff815f20541661078757825f5260078252805f20600160ff198254161790556107076110d6565b600254906802b5e3af16b188000091828101809111610774577f324cb0062138d65997c86cd3012489ceb351d602f2f55c7408306e8040c79f3f949550600255845f525f8352805f20828154019055845f5f805160206110f5833981519152858451868152a351908152a2005b601186634e487b7160e01b5f525260245ffd5b516376c7c04d60e11b81528390fd5b516342bcdf7f60e11b81528390fd5b823461019c575f36600319011261019c5760209060ff6005541690519015158152f35b823461019c57602036600319011261019c57813590331561085b576107eb6110d6565b335f525f602052805f20549282841061082f5750815f933385528460205203818420558160025403600255519081525f805160206110f583398151915260203392a3005b905163391434e360e21b8152339181019182526020820193909352604081019190915281906060010390fd5b51634b637e8f60e11b81525f81840152602490fd5b823461019c578060031936011261019c57610889610d6f565b9060243591610896610f67565b6001600160a01b03169283156108ea576108ae6110d6565b6002549083820180921161063957505f925f805160206110f58339815191529260209260025585855284835280852082815401905551908152a3005b5f602492519163ec442f0560e01b8352820152fd5b823461019c575f36600319011261019c57610918610eee565b6005549160ff831615610958577f5db9ee0a495bf2e6ff9c91a7834c1ba4fdd244a5e8aa4e537bd38aeae4b073aa6020838560ff191660055551338152a1005b9051638dfc202b60e01b8152fd5b823461019c578060031936011261019c5761097f610d85565b90336001600160a01b0383160361099b57506102949135611062565b5163334bd91960e11b81529050fd5b823461019c575f36600319011261019c576020905160128152f35b823461019c578060031936011261019c5761029491356109e8600161027d610d85565b610fe4565b823461019c57602036600319011261019c57602090610a12610a0d610d6f565b610d9b565b9051908152f35b823461019c57602036600319011261019c57602091355f52600682526001815f2001549051908152f35b90503461019c57606036600319011261019c57610a5e610d6f565b610a66610d85565b906044359260018060a01b038216805f526001602052855f20335f52602052855f2054915f198310610aa1575b602087610327888888610e1f565b858310610b09578115610af3573315610add57505f90815260016020908152868220338352815290869020918590039091558290610327610a93565b6024905f885191634a1406b160e11b8352820152fd5b6024905f88519163e602df0560e01b8352820152fd5b8651637dc7a0d960e11b8152339181019182526020820193909352604081018690528291506060010390fd5b823461019c575f36600319011261019c576020906002549051908152f35b823461019c578060031936011261019c57610b6c610d6f565b602435903315610be5576001600160a01b0316908115610bcf5760209350335f5260018452825f20825f52845280835f205582519081527f8c5be1e5ebec7d5bd14f71427d1e84f3dd0314c0f7b2291e5b200ac8c7c3b925843392a35160018152f35b8251634a1406b160e11b81525f81860152602490fd5b825163e602df0560e01b81525f81860152602490fd5b823461019c575f36600319011261019c578051905f60035460018160011c9060018316928315610ccc575b602093848410811461046d578388529081156104515750600114610c7657505050829003601f01601f191682019267ffffffffffffffff8411838510176103ea57508291826103e6925282610d28565b60035f908152929350837fc2575a0e9e593c00f959f8c92f12db2869c3395a3b0502d05e2516446f71f85b5b838510610cb857505050508301018480806103b4565b805488860183015293019284908201610ca2565b91607f1691610c26565b903461019c57602036600319011261019c57359063ffffffff60e01b821680920361019c57602091637965db0b60e01b8114908115610d17575b5015158152f35b6301ffc9a760e01b14905083610d10565b602080825282518183018190529093925f5b828110610d5b57505060409293505f838284010152601f8019910116010190565b818101860151848201604001528501610d3a565b600435906001600160a01b038216820361019c57565b602435906001600160a01b038216820361019c57565b610da481610df5565b610df0576001600160a01b03165f908152600860205260409020546201518080820191828111610ddc5742900301908111610ddc5790565b634e487b7160e01b5f52601160045260245ffd5b505f90565b6001600160a01b03165f90815260086020526040902054620151808101908110610ddc5742101590565b916001600160a01b03808416928315610ed65716928315610ebe57610e426110d6565b825f525f60205260405f205490828210610e8c5750815f805160206110f583398151915292602092855f525f84520360405f2055845f5260405f20818154019055604051908152a3565b60405163391434e360e21b81526001600160a01b03919091166004820152602481019190915260448101829052606490fd5b60405163ec442f0560e01b81525f6004820152602490fd5b604051634b637e8f60e11b81525f6004820152602490fd5b335f9081527fe09f975e15f8f53f24cbbc282b13c40b84df485fcdb8d3997fa103dc5a4ef84160205260409020547f65d7a28e3265b37a6474929f336521b332c1681b933f6cb9f3376673440d862a9060ff1615610f495750565b6044906040519063e2517d3f60e01b82523360048301526024820152fd5b335f9081527f3195c024b2ddd6d9b8f6c836aa52f67fe69376c8903d009b80229b3ce4425f5160205260409020547f9f2df0fed2c77648de5860a4cc508cd0818c85b8b8a1ab4ceeef8d981c8956a69060ff1615610f495750565b805f52600660205260405f20335f5260205260ff60405f20541615610f495750565b90815f52600660205260405f209060018060a01b031690815f5260205260ff60405f205416155f1461105c57815f52600660205260405f20815f5260205260405f20600160ff1982541617905533917f2f8788117e7eff1d82e926ec794901d17c78024a50270940304540a733656f0d5f80a4600190565b50505f90565b90815f52600660205260405f209060018060a01b031690815f5260205260ff60405f2054165f1461105c57815f52600660205260405f20815f5260205260405f2060ff19815416905533917ff6391f5c32d9c69d2a47ea670b442974b53935d1edc7fd64eb21e047a839171b5f80a4600190565b60ff600554166110e257565b60405163d93c066560e01b8152600490fdfeddf252ad1be2c89b69c2b068fc378daa952ba7f163c4a11628f55a4df523b3efa2646970667358221220627203eedddc16f7d40558565afac98558793bfe6851442c6ca417d6b991a97e64736f6c634300081800332f8788117e7eff1d82e926ec794901d17c78024a50270940304540a733656f0d54cdd369e4e8a8515e52ca72ec816c2101831ad1f18bf44102ed171459c9b4f8","linkReferences":{}},"methodIdentifiers":{"DAILY_MINT_AMOUNT()":"a5ebc844","DEFAULT_ADMIN_ROLE()":"a217fddf","MINTER_ROLE()":"d5391393","MINT_COOLDOWN()":"f7ee7a43","PAUSER_ROLE()":"e63ab1e9","STARTER_BONUS()":"805b59f6","allowance(address,address)":"dd62ed3e","approve(address,uint256)":"095ea7b3","balanceOf(address)":"70a08231","burn(uint256)":"42966c68","canMintDaily(address)":"b9301640","dailyMint()":"7b996fd6","decimals()":"313ce567","getLastMintTimestamp(address)":"e5617bba","getRoleAdmin(bytes32)":"248a9ca3","getTimeUntilNextMint(address)":"27f92326","grantRole(bytes32,address)":"2f2ff15d","hasReceivedStarter(address)":"946b8898","hasRole(bytes32,address)":"91d14854","mint(address,uint256)":"40c10f19","name()":"06fdde03","pause()":"8456cb59","paused()":"5c975abb","registerPlayer(address)":"6b5cc6d9","renounceRole(bytes32,address)":"36568abe","revokeRole(bytes32,address)":"d547741f","supportsInterface(bytes4)":"01ffc9a7","symbol()":"95d89b41","totalSupply()":"18160ddd","transfer(address,uint256)":"a9059cbb","transferFrom(address,address,uint256)":"23b872dd","unpause()":"3f4ba83a"},"id":98}