{"abi":[{"type":"constructor","inputs":[{"name":"admin","type":"address","internalType":"address"},{"name":"_landNFT","type":"address","internalType":"address"},{"name":"_botNFT","type":"address","internalType":"address"},{"name":"_harvestCycleDuration","type":"uint64","internalType":"uint64"}],"stateMutability":"nonpayable"},{"type":"function","name":"DEFAULT_ADMIN_ROLE","inputs":[],"outputs":[{"name":"","type":"bytes32","internalType":"bytes32"}],"stateMutability":"view"},{"type":"function","name":"GAME_MASTER_ROLE","inputs":[],"outputs":[{"name":"","type":"bytes32","internalType":"bytes32"}],"stateMutability":"view"},{"type":"function","name":"PAUSER_ROLE","inputs":[],"outputs":[{"name":"","type":"bytes32","internalType":"bytes32"}],"stateMutability":"view"},{"type":"function","name":"botNFT","inputs":[],"outputs":[{"name":"","type":"address","internalType":"address"}],"stateMutability":"view"},{"type":"function","name":"calculateHarvestAmount","inputs":[{"name":"landId","type":"uint256","internalType":"uint256"},{"name":"botId","type":"uint256","internalType":"uint256"}],"outputs":[{"name":"estimatedAmount","type":"uint256","internalType":"uint256"}],"stateMutability":"view"},{"type":"function","name":"cancelHarvest","inputs":[{"name":"landId","type":"uint256","internalType":"uint256"}],"outputs":[],"stateMutability":"nonpayable"},{"type":"function","name":"completeHarvest","inputs":[{"name":"landId","type":"uint256","internalType":"uint256"}],"outputs":[{"name":"harvestAmount","type":"uint256","internalType":"uint256"}],"stateMutability":"nonpayable"},{"type":"function","name":"getBatchPendingHarvests","inputs":[{"name":"landIds","type":"uint256[]","internalType":"uint256[]"}],"outputs":[{"name":"amounts","type":"uint256[]","internalType":"uint256[]"},{"name":"readyTimes","type":"uint64[]","internalType":"uint64[]"},{"name":"statuses","type":"bool[]","internalType":"bool[]"},{"name":"actives","type":"bool[]","internalType":"bool[]"}],"stateMutability":"view"},{"type":"function","name":"getPendingHarvest","inputs":[{"name":"landId","type":"uint256","internalType":"uint256"}],"outputs":[{"name":"amount","type":"uint256","internalType":"uint256"},{"name":"readyAt","type":"uint64","internalType":"uint64"},{"name":"isReady","type":"bool","internalType":"bool"},{"name":"isActive","type":"bool","internalType":"bool"}],"stateMutability":"view"},{"type":"function","name":"getRoleAdmin","inputs":[{"name":"role","type":"bytes32","internalType":"bytes32"}],"outputs":[{"name":"","type":"bytes32","internalType":"bytes32"}],"stateMutability":"view"},{"type":"function","name":"getTimeRemaining","inputs":[{"name":"landId","type":"uint256","internalType":"uint256"}],"outputs":[{"name":"","type":"uint256","internalType":"uint256"}],"stateMutability":"view"},{"type":"function","name":"grantRole","inputs":[{"name":"role","type":"bytes32","internalType":"bytes32"},{"name":"account","type":"address","internalType":"address"}],"outputs":[],"stateMutability":"nonpayable"},{"type":"function","name":"harvestCycleDuration","inputs":[],"outputs":[{"name":"","type":"uint64","internalType":"uint64"}],"stateMutability":"view"},{"type":"function","name":"hasRole","inputs":[{"name":"role","type":"bytes32","internalType":"bytes32"},{"name":"account","type":"address","internalType":"address"}],"outputs":[{"name":"","type":"bool","internalType":"bool"}],"stateMutability":"view"},{"type":"function","name":"isHarvestReady","inputs":[{"name":"landId","type":"uint256","internalType":"uint256"}],"outputs":[{"name":"","type":"bool","internalType":"bool"}],"stateMutability":"view"},{"type":"function","name":"landNFT","inputs":[],"outputs":[{"name":"","type":"address","internalType":"address"}],"stateMutability":"view"},{"type":"function","name":"pause","inputs":[],"outputs":[],"stateMutability":"nonpayable"},{"type":"function","name":"paused","inputs":[],"outputs":[{"name":"","type":"bool","internalType":"bool"}],"stateMutability":"view"},{"type":"function","name":"pendingHarvests","inputs":[{"name":"","type":"uint256","internalType":"uint256"}],"outputs":[{"name":"landId","type":"uint256","internalType":"uint256"},{"name":"botId","type":"uint256","internalType":"uint256"},{"name":"estimatedAmount","type":"uint256","internalType":"uint256"},{"name":"startTime","type":"uint64","internalType":"uint64"},{"name":"duration","type":"uint64","internalType":"uint64"},{"name":"active","type":"bool","internalType":"bool"}],"stateMutability":"view"},{"type":"function","name":"renounceRole","inputs":[{"name":"role","type":"bytes32","internalType":"bytes32"},{"name":"callerConfirmation","type":"address","internalType":"address"}],"outputs":[],"stateMutability":"nonpayable"},{"type":"function","name":"revokeRole","inputs":[{"name":"role","type":"bytes32","internalType":"bytes32"},{"name":"account","type":"address","internalType":"address"}],"outputs":[],"stateMutability":"nonpayable"},{"type":"function","name":"setHarvestCycleDuration","inputs":[{"name":"newDuration","type":"uint64","internalType":"uint64"}],"outputs":[],"stateMutability":"nonpayable"},{"type":"function","name":"startHarvest","inputs":[{"name":"landId","type":"uint256","internalType":"uint256"},{"name":"botId","type":"uint256","internalType":"uint256"}],"outputs":[],"stateMutability":"nonpayable"},{"type":"function","name":"supportsInterface","inputs":[{"name":"interfaceId","type":"bytes4","internalType":"bytes4"}],"outputs":[{"name":"","type":"bool","internalType":"bool"}],"stateMutability":"view"},{"type":"function","name":"unpause","inputs":[],"outputs":[],"stateMutability":"nonpayable"},{"type":"event","name":"HarvestCancelled","inputs":[{"name":"landId","type":"uint256","indexed":true,"internalType":"uint256"}],"anonymous":false},{"type":"event","name":"HarvestCompleted","inputs":[{"name":"landId","type":"uint256","indexed":true,"internalType":"uint256"},{"name":"player","type":"address","indexed":true,"internalType":"address"},{"name":"amount","type":"uint256","indexed":false,"internalType":"uint256"}],"anonymous":false},{"type":"event","name":"HarvestCycleDurationUpdated","inputs":[{"name":"oldDuration","type":"uint64","indexed":false,"internalType":"uint64"},{"name":"newDuration","type":"uint64","indexed":false,"internalType":"uint64"}],"anonymous":false},{"type":"event","name":"HarvestStarted","inputs":[{"name":"landId","type":"uint256","indexed":true,"internalType":"uint256"},{"name":"botId","type":"uint256","indexed":true,"internalType":"uint256"},{"name":"estimatedAmount","type":"uint256","indexed":false,"internalType":"uint256"},{"name":"readyAt","type":"uint64","indexed":false,"internalType":"uint64"}],"anonymous":false},{"type":"event","name":"Paused","inputs":[{"name":"account","type":"address","indexed":false,"internalType":"address"}],"anonymous":false},{"type":"event","name":"RoleAdminChanged","inputs":[{"name":"role","type":"bytes32","indexed":true,"internalType":"bytes32"},{"name":"previousAdminRole","type":"bytes32","indexed":true,"internalType":"bytes32"},{"name":"newAdminRole","type":"bytes32","indexed":true,"internalType":"bytes32"}],"anonymous":false},{"type":"event","name":"RoleGranted","inputs":[{"name":"role","type":"bytes32","indexed":true,"internalType":"bytes32"},{"name":"account","type":"address","indexed":true,"internalType":"address"},{"name":"sender","type":"address","indexed":true,"internalType":"address"}],"anonymous":false},{"type":"event","name":"RoleRevoked","inputs":[{"name":"role","type":"bytes32","indexed":true,"internalType":"bytes32"},{"name":"account","type":"address","indexed":true,"internalType":"address"},{"name":"sender","type":"address","indexed":true,"internalType":"address"}],"anonymous":false},{"type":"event","name":"Unpaused","inputs":[{"name":"account","type":"address","indexed":false,"internalType":"address"}],"anonymous":false},{"type":"error","name":"AccessControlBadConfirmation","inputs":[]},{"type":"error","name":"AccessControlUnauthorizedAccount","inputs":[{"name":"account","type":"address","internalType":"address"},{"name":"neededRole","type":"bytes32","internalType":"bytes32"}]},{"type":"error","name":"EnforcedPause","inputs":[]},{"type":"error","name":"ExpectedPause","inputs":[]}],"bytecode":{"object":"0x6080346200027057601f62001bf538819003918201601f19168301926001600160401b0392909183851183861017620002745781608092849260409788528339810103126200027057620000538162000288565b90620000626020820162000288565b9160606200007286840162000288565b9201519384169283850362000270576001600160a01b0390828216156200021d578116928315620001c85716928315620001745715620001265780620000bc620000cf926200029d565b50620000c8816200030d565b50620003ad565b50600380546001600160a01b031990811690921790556004805490911691909117905560018054610100600160481b03191660089290921b68ffffffffffffffff00169190911790555161176d9081620004488239f35b845162461bcd60e51b815260206004820152602160248201527f5265616c54696d65486172766573743a20696e76616c6964206475726174696f6044820152603760f91b6064820152608490fd5b855162461bcd60e51b815260206004820152602760248201527f5265616c54696d65486172766573743a20626f744e4654206973207a65726f206044820152666164647265737360c81b6064820152608490fd5b865162461bcd60e51b815260206004820152602860248201527f5265616c54696d65486172766573743a206c616e644e4654206973207a65726f604482015267206164647265737360c01b6064820152608490fd5b865162461bcd60e51b815260206004820152602660248201527f5265616c54696d65486172766573743a2061646d696e206973207a65726f206160448201526564647265737360d01b6064820152608490fd5b5f80fd5b634e487b7160e01b5f52604160045260245ffd5b51906001600160a01b03821682036200027057565b6001600160a01b03165f8181525f8051602062001bd5833981519152602052604090205460ff1662000308575f8181525f8051602062001bd583398151915260205260408120805460ff191660011790553391905f8051602062001bb58339815191528180a4600190565b505f90565b6001600160a01b03165f8181527f4f306b4d0458e2cd68141231489da32956509686005b70d3cf229dfd69ed84b460205260409020547f1d93c87416ca7b54f0fb8323167b72760e8e2ec93d48660953897a150f97a8b4919060ff16620003a757815f525f60205260405f20815f5260205260405f20600160ff1982541617905533915f8051602062001bb58339815191525f80a4600190565b50505f90565b6001600160a01b03165f8181527ff7c9542c591017a21c74b6f3fab6263c7952fc0aaf9db4c22a2a04ddc7f8674f60205260409020547f65d7a28e3265b37a6474929f336521b332c1681b933f6cb9f3376673440d862a919060ff16620003a757815f525f60205260405f20815f5260205260405f20600160ff1982541617905533915f8051602062001bb58339815191525f80a460019056fe6080806040526004361015610012575f80fd5b5f3560e01c90816301ffc9a714610edc5750806307ed5c8214610eb45780631a3a423914610e46578063248a9ca314610e1a5780632f2ff15d14610dec57806336568abe14610db357806339d022e114610d8b5780633f4ba83a14610d225780635c975abb14610d005780637bc961f814610cd75780638456cb5914610c7f5780638565867c14610b6d57806386a3dfbf1461097f5780638cd429911461096157806391d1485414610926578063a217fddf1461090c578063a5bd8167146108c6578063acf3032a146108a5578063ad1def1e1461087e578063b48a371614610740578063c268b69814610718578063d547741f146106e8578063e63ab1e9146106ae578063e69092ed1461041a5763f4eaff861461012f575f80fd5b346104165761013d36610f55565b906101466116f9565b6003546040516331a9108f60e11b8082526004820184905260209290916001600160a01b039184908290602490829086165afa9081156103ee575f916103f9575b508382600454169360246040518096819382528a60048301525afa9283156103ee575f936103bd575b508116913383148015610392575b6101c790610ffb565b160361033757815f526002815260ff600360405f20015460801c166102e35760407f2550354534a8b59cc6caaf0b2f124132ae46e644c8b5e16e2fc6617a8fa5c732916102148585611215565b906001600160401b036102d681421688600154898560038a5161023681610fa0565b8381528981019586528b81018b8152606082019688885284608084019760081c16875260a0830195600187525f5260028c528d5f209251835551600183015551600282015501935116916fffffffffffffffff0000000000000000845491518b1b169160ff60801b9051151560801b169260ff60801b19169070ffffffffffffffffffffffffffffffffff191617171790558260015460081c169061109e565b84519384521690820152a3005b6084906040519062461bcd60e51b82526004820152602760248201527f5265616c54696d65486172766573743a206861727665737420616c72656164796044820152662061637469766560c81b6064820152fd5b6084906040519062461bcd60e51b82526004820152602e60248201527f5265616c54696d65486172766573743a20626f7420616e64206c616e6420646960448201526d66666572656e74206f776e65727360901b6064820152fd5b505f805160206117188339815191525f9081528085526040808220338352865290205460ff166101be565b829193506103e090853d87116103e7575b6103d88183610fbb565b810190610fdc565b92906101b0565b503d6103ce565b6040513d5f823e3d90fd5b6104109150843d86116103e7576103d88183610fbb565b5f610187565b5f80fd5b34610416576020366003190112610416576001600160401b036004351161041657366023600435011215610416576001600160401b036004356004013511610416573660246004356004013560051b60043501011161041657610482600435600401356114f3565b61048f6040519182610fbb565b6004803501358082526104a1906114f3565b601f19919082013660208301376104bd600435600401356114f3565b916104cb6040519384610fbb565b6004803501358084526104dd906114f3565b013660208401376104f36004356004013561150a565b916105036004356004013561150a565b905f5b6004356004013581106105c0575060405193849360808501608086528151809152602060a087019201905f5b8181106105a7575050508481036020860152602080845192838152019301905f5b818110610585575050508161057391856105819594036040870152610f6b565b908382036060850152610f6b565b0390f35b82516001600160401b0316855287965060209485019490920191600101610553565b8251845288975060209384019390920191600101610532565b60409491929394519063a5bd816760e01b825260248160051b6004350101356004830152608082602481305afa80156103ee575f905f905f905f9061064e575b6001955061060e858a611549565b901515905261061d8487611549565b90151590526001600160401b036106348488611549565b911690526106428288611549565b52019392919093610506565b505050506080823d6080116106a6575b8161066b60809383610fbb565b81010312610416578151600192610684602082016111f3565b9161069d60606106966040850161153c565b930161153c565b90929190610600565b3d915061065e565b34610416575f3660031901126104165760206040517f65d7a28e3265b37a6474929f336521b332c1681b933f6cb9f3376673440d862a8152f35b34610416576107166106f936610f2f565b90805f525f602052610711600160405f2001546115ea565b611687565b005b3461041657602036600319011261041657602061073660043561147b565b6040519015158152f35b34610416576020366003190112610416576004356001600160401b038082169182810361041657335f9081527fad3228b676f7d3cd4284a5443f17f1962b36e491b30a40b2405849e597ba5fb5602052604090205460ff16156108605782151580610853575b15610804577f39ef21b76be37b92c6d8093b152a8a21ab85e50353e340d9bc13e687ffd102259260409268ffffffffffffffff006001549360081b1668ffffffffffffffff001984161760015583519260081c1682526020820152a1005b60405162461bcd60e51b815260206004820152602160248201527f5265616c54696d65486172766573743a20696e76616c6964206475726174696f6044820152603760f91b6064820152608490fd5b50620151808311156107a6565b60405163e2517d3f60e01b81523360048201525f6024820152604490fd5b34610416575f3660031901126104165760206040515f805160206117188339815191528152f35b346104165760206108be6108b836610f55565b90611215565b604051908152f35b346104165760203660031901126104165760806001600160401b036108ec600435611160565b929390916040519485521660208401521515604083015215156060820152f35b34610416575f3660031901126104165760206040515f8152f35b346104165761093436610f2f565b905f525f60205260405f209060018060a01b03165f52602052602060ff60405f2054166040519015158152f35b346104165760203660031901126104165760206108be6004356110cd565b34610416576020806003193601126104165760043561099c6116f9565b805f526002825260405f209060038201908154926109bf60ff8560801c16611047565b6001600160401b03806109d9818760401c1682881661109e565b164210610b1d576003546040516331a9108f60e11b815260048101859052906001600160a01b039088908390602490829085165afa9182156103ee5760019282915f91610b00575b5016953387148015610ad5575b610a3790610ffb565b60028501549760ff60801b1916905560045416920154823b15610416575f926024849260405195869384926357a4c14d60e11b845260048401525af180156103ee57610ab1575b50507fbb9b5e8456792ec7c80e5733d47c04824dcfee9a5f520b22daa762bc9819d6bc84604051858152a3604051908152f35b8111610ac1576040528480610a7e565b634e487b7160e01b5f52604160045260245ffd5b505f805160206117188339815191525f908152808a5260408082203383528b5290205460ff16610a2e565b610b1791508a3d8c116103e7576103d88183610fbb565b8a610a21565b60405162461bcd60e51b815260048101879052602260248201527f5265616c54696d65486172766573743a2068617276657374206e6f7420726561604482015261647960f01b6064820152608490fd5b346104165760208060031936011261041657602460043591610b8d6116f9565b6003546040516331a9108f60e11b815260048101859052926001600160a01b039183918591829085165afa9081156103ee576002935f92610c60575b501633148015610c35575b610bdd90610ffb565b825f52818152610bf960ff600360405f20015460801c16611047565b825f5252600360405f200160ff60801b1981541690557f7f0c734c8ec39196614bf58b956c1f955e6ffd3e745da50d667fb9807614e9395f80a2005b505f805160206117188339815191525f9081528082526040808220338352835290205460ff16610bd4565b610c78919250833d85116103e7576103d88183610fbb565b9085610bc9565b34610416575f36600319011261041657610c97611571565b610c9f6116f9565b600160ff19815416176001557f62e78cea01bee320cd4e420270b5ea74000d11b0c9f74754ebdbfc544b05a2586020604051338152a1005b34610416575f3660031901126104165760206001600160401b0360015460081c16604051908152f35b34610416575f36600319011261041657602060ff600154166040519015158152f35b34610416575f36600319011261041657610d3a611571565b60015460ff811615610d795760ff19166001557f5db9ee0a495bf2e6ff9c91a7834c1ba4fdd244a5e8aa4e537bd38aeae4b073aa6020604051338152a1005b604051638dfc202b60e01b8152600490fd5b34610416575f366003190112610416576003546040516001600160a01b039091168152602090f35b3461041657610dc136610f2f565b336001600160a01b03821603610dda5761071691611687565b60405163334bd91960e11b8152600490fd5b3461041657610716610dfd36610f2f565b90805f525f602052610e15600160405f2001546115ea565b61160b565b34610416576020366003190112610416576004355f525f6020526020600160405f200154604051908152f35b34610416576020366003190112610416576004355f52600260205260c060405f2060ff815491600181015460036002830154920154916001600160401b03916040519586526020860152604085015280821660608501528160401c16608084015260801c16151560a0820152f35b34610416575f366003190112610416576004546040516001600160a01b039091168152602090f35b34610416576020366003190112610416576004359063ffffffff60e01b821680920361041657602091637965db0b60e01b8114908115610f1e575b5015158152f35b6301ffc9a760e01b14905083610f17565b604090600319011261041657600435906024356001600160a01b03811681036104165790565b6040906003190112610416576004359060243590565b9081518082526020808093019301915f5b828110610f8a575050505090565b8351151585529381019392810192600101610f7c565b60c081019081106001600160401b03821117610ac157604052565b90601f801991011681019081106001600160401b03821117610ac157604052565b9081602091031261041657516001600160a01b03811681036104165790565b1561100257565b60405162461bcd60e51b815260206004820152601f60248201527f5265616c54696d65486172766573743a206e6f7420617574686f72697a6564006044820152606490fd5b1561104e57565b60405162461bcd60e51b815260206004820152602260248201527f5265616c54696d65486172766573743a206e6f206163746976652068617276656044820152611cdd60f21b6064820152608490fd5b9190916001600160401b03808094169116019182116110b957565b634e487b7160e01b5f52601160045260245ffd5b5f52600260205260405f206003604051916110e783610fa0565b8054835260018101546020840152600281015460408401520154906001600160401b03918281169182606082015260ff848360401c169283608084015260801c16159060a082159101526111595761113e9161109e565b1680421015611154574281039081116110b95790565b505f90565b5050505f90565b5f52600260205260405f20906040519061117982610fa0565b825482526001830154602083015260036002840154938460408501520154906001600160401b03928383169485606083015260ff60a0868660401c1693846080820152019460801c1615801585526111e357906111d6919561109e565b9283164210159151151590565b5050925050505f905f905f905f90565b51906001600160401b038216820361041657565b519060ff8216820361041657565b60048054604080516304169a4b60e11b815280840195909552602493916001600160a01b039060a09087908790829085165afa8015611471575f965f91611402575b508381149081156113f9575b501561139f5760809060035416928583518095819363b95aa42f60e01b8352888301525afa918215611395575f92611330575b5050606490600381101561131e576001810361130a5750506096925b678ac7230489e800008481029181830486036112f85761ffff16809502029381850414901517156112e7575050612710900490565b601190634e487b7160e01b5f52525ffd5b84601185634e487b7160e01b5f52525ffd5b909390600119016112b25760c893506112b2565b83602184634e487b7160e01b5f52525ffd5b9091506080813d60801161138d575b8161134c60809383610fbb565b81010312610416578051916003831015610416578161137e60609261137660206113859601611207565b508201611207565b50016111f3565b505f80611296565b3d915061133f565b50513d5f823e3d90fd5b815162461bcd60e51b8152602081860152602f818701527f5265616c54696d65486172766573743a20626f742061737369676e656420746f60448201526e08191a5999995c995b9d081b185b99608a1b6064820152608490fd5b9050155f611263565b96505060a0863d60a011611469575b8161141e60a09383610fbb565b81010312610416576003865110156104165760208601519561ffff87168703610416578281015163ffffffff81160361041657806114606060608093016111f3565b5001515f611257565b3d9150611411565b82513d5f823e3d90fd5b5f52600260205260405f2060036040519161149583610fa0565b8054835260018101546020840152600281015460408401520154906001600160401b03918281169182606082015260ff848360401c169283608084015260801c16159060a08215910152611159576114ec9161109e565b1642101590565b6001600160401b038111610ac15760051b60200190565b90611514826114f3565b6115216040519182610fbb565b8281528092611532601f19916114f3565b0190602036910137565b5190811515820361041657565b805182101561155d5760209160051b010190565b634e487b7160e01b5f52603260045260245ffd5b335f9081527ff7c9542c591017a21c74b6f3fab6263c7952fc0aaf9db4c22a2a04ddc7f8674f60205260409020547f65d7a28e3265b37a6474929f336521b332c1681b933f6cb9f3376673440d862a9060ff16156115cc5750565b6044906040519063e2517d3f60e01b82523360048301526024820152fd5b805f525f60205260405f20335f5260205260ff60405f205416156115cc5750565b90815f525f60205260405f209060018060a01b031690815f5260205260ff60405f205416155f1461168157815f525f60205260405f20815f5260205260405f20600160ff1982541617905533917f2f8788117e7eff1d82e926ec794901d17c78024a50270940304540a733656f0d5f80a4600190565b50505f90565b90815f525f60205260405f209060018060a01b031690815f5260205260ff60405f2054165f1461168157815f525f60205260405f20815f5260205260405f2060ff19815416905533917ff6391f5c32d9c69d2a47ea670b442974b53935d1edc7fd64eb21e047a839171b5f80a4600190565b60ff6001541661170557565b60405163d93c066560e01b8152600490fdfe1d93c87416ca7b54f0fb8323167b72760e8e2ec93d48660953897a150f97a8b4a26469706673582212201871b8ae86e61e92e6183da0d00a5c0e1a56c7cd37462d2db924cd43518b72ec64736f6c634300081800332f8788117e7eff1d82e926ec794901d17c78024a50270940304540a733656f0dad3228b676f7d3cd4284a5443f17f1962b36e491b30a40b2405849e597ba5fb5","linkReferences":{}},"methodIdentifiers":{"DEFAULT_ADMIN_ROLE()":"a217fddf","GAME_MASTER_ROLE()":"ad1def1e","PAUSER_ROLE()":"e63ab1e9","botNFT()":"07ed5c82","calculateHarvestAmount(uint256,uint256)":"acf3032a","cancelHarvest(uint256)":"8565867c","completeHarvest(uint256)":"86a3dfbf","getBatchPendingHarvests(uint256[])":"e69092ed","getPendingHarvest(uint256)":"a5bd8167","getRoleAdmin(bytes32)":"248a9ca3","getTimeRemaining(uint256)":"8cd42991","grantRole(bytes32,address)":"2f2ff15d","harvestCycleDuration()":"7bc961f8","hasRole(bytes32,address)":"91d14854","isHarvestReady(uint256)":"c268b698","landNFT()":"39d022e1","pause()":"8456cb59","paused()":"5c975abb","pendingHarvests(uint256)":"1a3a4239","renounceRole(bytes32,address)":"36568abe","revokeRole(bytes32,address)":"d547741f","setHarvestCycleDuration(uint64)":"b48a3716","startHarvest(uint256,uint256)":"f4eaff86","supportsInterface(bytes4)":"01ffc9a7","unpause()":"3f4ba83a"},"id":99}