{"abi":[{"type":"constructor","inputs":[{"name":"admin","type":"address","internalType":"address"}],"stateMutability":"nonpayable"},{"type":"function","name":"BURNER_ROLE","inputs":[],"outputs":[{"name":"","type":"bytes32","internalType":"bytes32"}],"stateMutability":"view"},{"type":"function","name":"DEFAULT_ADMIN_ROLE","inputs":[],"outputs":[{"name":"","type":"bytes32","internalType":"bytes32"}],"stateMutability":"view"},{"type":"function","name":"INITIAL_SUPPLY","inputs":[],"outputs":[{"name":"","type":"uint256","internalType":"uint256"}],"stateMutability":"view"},{"type":"function","name":"MINTER_ROLE","inputs":[],"outputs":[{"name":"","type":"bytes32","internalType":"bytes32"}],"stateMutability":"view"},{"type":"function","name":"PAUSER_ROLE","inputs":[],"outputs":[{"name":"","type":"bytes32","internalType":"bytes32"}],"stateMutability":"view"},{"type":"function","name":"allowance","inputs":[{"name":"owner","type":"address","internalType":"address"},{"name":"spender","type":"address","internalType":"address"}],"outputs":[{"name":"","type":"uint256","internalType":"uint256"}],"stateMutability":"view"},{"type":"function","name":"approve","inputs":[{"name":"spender","type":"address","internalType":"address"},{"name":"value","type":"uint256","internalType":"uint256"}],"outputs":[{"name":"","type":"bool","internalType":"bool"}],"stateMutability":"nonpayable"},{"type":"function","name":"balanceOf","inputs":[{"name":"account","type":"address","internalType":"address"}],"outputs":[{"name":"","type":"uint256","internalType":"uint256"}],"stateMutability":"view"},{"type":"function","name":"burn","inputs":[{"name":"amount","type":"uint256","internalType":"uint256"}],"outputs":[],"stateMutability":"nonpayable"},{"type":"function","name":"burnFrom","inputs":[{"name":"from","type":"address","internalType":"address"},{"name":"amount","type":"uint256","internalType":"uint256"}],"outputs":[],"stateMutability":"nonpayable"},{"type":"function","name":"decimals","inputs":[],"outputs":[{"name":"","type":"uint8","internalType":"uint8"}],"stateMutability":"view"},{"type":"function","name":"getRoleAdmin","inputs":[{"name":"role","type":"bytes32","internalType":"bytes32"}],"outputs":[{"name":"","type":"bytes32","internalType":"bytes32"}],"stateMutability":"view"},{"type":"function","name":"grantRole","inputs":[{"name":"role","type":"bytes32","internalType":"bytes32"},{"name":"account","type":"address","internalType":"address"}],"outputs":[],"stateMutability":"nonpayable"},{"type":"function","name":"hasRole","inputs":[{"name":"role","type":"bytes32","internalType":"bytes32"},{"name":"account","type":"address","internalType":"address"}],"outputs":[{"name":"","type":"bool","internalType":"bool"}],"stateMutability":"view"},{"type":"function","name":"mint","inputs":[{"name":"to","type":"address","internalType":"address"},{"name":"amount","type":"uint256","internalType":"uint256"}],"outputs":[],"stateMutability":"nonpayable"},{"type":"function","name":"name","inputs":[],"outputs":[{"name":"","type":"string","internalType":"string"}],"stateMutability":"view"},{"type":"function","name":"pause","inputs":[],"outputs":[],"stateMutability":"nonpayable"},{"type":"function","name":"paused","inputs":[],"outputs":[{"name":"","type":"bool","internalType":"bool"}],"stateMutability":"view"},{"type":"function","name":"renounceRole","inputs":[{"name":"role","type":"bytes32","internalType":"bytes32"},{"name":"callerConfirmation","type":"address","internalType":"address"}],"outputs":[],"stateMutability":"nonpayable"},{"type":"function","name":"revokeRole","inputs":[{"name":"role","type":"bytes32","internalType":"bytes32"},{"name":"account","type":"address","internalType":"address"}],"outputs":[],"stateMutability":"nonpayable"},{"type":"function","name":"supportsInterface","inputs":[{"name":"interfaceId","type":"bytes4","internalType":"bytes4"}],"outputs":[{"name":"","type":"bool","internalType":"bool"}],"stateMutability":"view"},{"type":"function","name":"symbol","inputs":[],"outputs":[{"name":"","type":"string","internalType":"string"}],"stateMutability":"view"},{"type":"function","name":"totalSupply","inputs":[],"outputs":[{"name":"","type":"uint256","internalType":"uint256"}],"stateMutability":"view"},{"type":"function","name":"transfer","inputs":[{"name":"to","type":"address","internalType":"address"},{"name":"value","type":"uint256","internalType":"uint256"}],"outputs":[{"name":"","type":"bool","internalType":"bool"}],"stateMutability":"nonpayable"},{"type":"function","name":"transferFrom","inputs":[{"name":"from","type":"address","internalType":"address"},{"name":"to","type":"address","internalType":"address"},{"name":"value","type":"uint256","internalType":"uint256"}],"outputs":[{"name":"","type":"bool","internalType":"bool"}],"stateMutability":"nonpayable"},{"type":"function","name":"unpause","inputs":[],"outputs":[],"stateMutability":"nonpayable"},{"type":"event","name":"Approval","inputs":[{"name":"owner","type":"address","indexed":true,"internalType":"address"},{"name":"spender","type":"address","indexed":true,"internalType":"address"},{"name":"value","type":"uint256","indexed":false,"internalType":"uint256"}],"anonymous":false},{"type":"event","name":"Paused","inputs":[{"name":"account","type":"address","indexed":false,"internalType":"address"}],"anonymous":false},{"type":"event","name":"RoleAdminChanged","inputs":[{"name":"role","type":"bytes32","indexed":true,"internalType":"bytes32"},{"name":"previousAdminRole","type":"bytes32","indexed":true,"internalType":"bytes32"},{"name":"newAdminRole","type":"bytes32","indexed":true,"internalType":"bytes32"}],"anonymous":false},{"type":"event","name":"RoleGranted","inputs":[{"name":"role","type":"bytes32","indexed":true,"internalType":"bytes32"},{"name":"account","type":"address","indexed":true,"internalType":"address"},{"name":"sender","type":"address","indexed":true,"internalType":"address"}],"anonymous":false},{"type":"event","name":"RoleRevoked","inputs":[{"name":"role","type":"bytes32","indexed":true,"internalType":"bytes32"},{"name":"account","type":"address","indexed":true,"internalType":"address"},{"name":"sender","type":"address","indexed":true,"internalType":"address"}],"anonymous":false},{"type":"event","name":"Transfer","inputs":[{"name":"from","type":"address","indexed":true,"internalType":"address"},{"name":"to","type":"address","indexed":true,"internalType":"address"},{"name":"value","type":"uint256","indexed":false,"internalType":"uint256"}],"anonymous":false},{"type":"event","name":"Unpaused","inputs":[{"name":"account","type":"address","indexed":false,"internalType":"address"}],"anonymous":false},{"type":"event","name":"WaterBurned","inputs":[{"name":"from","type":"address","indexed":true,"internalType":"address"},{"name":"amount","type":"uint256","indexed":false,"internalType":"uint256"}],"anonymous":false},{"type":"event","name":"WaterMinted","inputs":[{"name":"to","type":"address","indexed":true,"internalType":"address"},{"name":"amount","type":"uint256","indexed":false,"internalType":"uint256"}],"anonymous":false},{"type":"error","name":"AccessControlBadConfirmation","inputs":[]},{"type":"error","name":"AccessControlUnauthorizedAccount","inputs":[{"name":"account","type":"address","internalType":"address"},{"name":"neededRole","type":"bytes32","internalType":"bytes32"}]},{"type":"error","name":"ERC20InsufficientAllowance","inputs":[{"name":"spender","type":"address","internalType":"address"},{"name":"allowance","type":"uint256","internalType":"uint256"},{"name":"needed","type":"uint256","internalType":"uint256"}]},{"type":"error","name":"ERC20InsufficientBalance","inputs":[{"name":"sender","type":"address","internalType":"address"},{"name":"balance","type":"uint256","internalType":"uint256"},{"name":"needed","type":"uint256","internalType":"uint256"}]},{"type":"error","name":"ERC20InvalidApprover","inputs":[{"name":"approver","type":"address","internalType":"address"}]},{"type":"error","name":"ERC20InvalidReceiver","inputs":[{"name":"receiver","type":"address","internalType":"address"}]},{"type":"error","name":"ERC20InvalidSender","inputs":[{"name":"sender","type":"address","internalType":"address"}]},{"type":"error","name":"ERC20InvalidSpender","inputs":[{"name":"spender","type":"address","internalType":"address"}]},{"type":"error","name":"EnforcedPause","inputs":[]},{"type":"error","name":"ExpectedPause","inputs":[]}],"bytecode":{"object":"0x608034620003ac57601f1990601f906001600160401b03620015f0388190038481018616840183811185821017620002bb57849282916040528339602093849181010312620003ac5751936001600160a01b03851691828603620003ac5762000067620003b0565b94600b86526a2bb0ba32b9102a37b5b2b760a91b8587015262000089620003b0565b9560058752642ba0aa22a960d91b86880152805191838311620002bb5760039283546001938482811c92168015620003a1575b8a8310146200038d5781848493116200033a575b508990848311600114620002db575f92620002cf575b50505f1982861b1c191690831b1783555b8751938411620002bb5760049788548381811c91168015620002b0575b898210146200029d5782811162000255575b5087918511600114620001f057849550908492915f95620001e4575b50501b925f19911b1c19161783555b15620001975762000186836200016781620003d0565b50620001738162000440565b506200017f81620004e1565b506200057c565b50604051610f989081620006188239f35b60405162461bcd60e51b815291820152602160248201527f5761746572546f6b656e3a2061646d696e206973207a65726f206164647265736044820152607360f81b606482015260849150fd5b015193505f8062000142565b929194841692885f5284885f20945f5b8a898383106200023d575050501062000223575b50505050811b01835562000151565b01519060f8845f19921b161c191690555f80808062000214565b86860151895590970196948501948893500162000200565b895f52885f208380880160051c8201928b891062000293575b0160051c019084905b8281106200028757505062000126565b5f815501849062000277565b925081926200026e565b60228a634e487b7160e01b5f525260245ffd5b90607f169062000114565b634e487b7160e01b5f52604160045260245ffd5b015190505f80620000e6565b908886941691875f528b5f20925f5b8d8282106200032357505084116200030b575b505050811b018355620000f7565b01515f1983881b60f8161c191690555f8080620002fd565b8385015186558997909501949384019301620002ea565b909150855f52895f208480850160051c8201928c861062000383575b918791869594930160051c01915b82811062000374575050620000d0565b5f815585945087910162000364565b9250819262000356565b634e487b7160e01b5f52602260045260245ffd5b91607f1691620000bc565b5f80fd5b60408051919082016001600160401b03811183821017620002bb57604052565b6001600160a01b03165f8181525f80516020620015d0833981519152602052604090205460ff166200043b575f8181525f80516020620015d083398151915260205260408120805460ff191660011790553391905f80516020620015b08339815191528180a4600190565b505f90565b6001600160a01b03165f8181527f3195c024b2ddd6d9b8f6c836aa52f67fe69376c8903d009b80229b3ce4425f5160205260409020547f9f2df0fed2c77648de5860a4cc508cd0818c85b8b8a1ab4ceeef8d981c8956a6919060ff16620004db57815f52600660205260405f20815f5260205260405f20600160ff1982541617905533915f80516020620015b08339815191525f80a4600190565b50505f90565b6001600160a01b03165f8181527fe09f975e15f8f53f24cbbc282b13c40b84df485fcdb8d3997fa103dc5a4ef84160205260409020547f65d7a28e3265b37a6474929f336521b332c1681b933f6cb9f3376673440d862a919060ff16620004db57815f52600660205260405f20815f5260205260405f20600160ff1982541617905533915f80516020620015b08339815191525f80a4600190565b6001600160a01b03165f8181527f42d20fd6db25ea5a8e33f43724ad72f2ebd9488257fa78c86176b8175fc383fa60205260409020547f3c11d16cbaffd01df69ce1c404f6340ee057498f5f00246190ea54220576a848919060ff16620004db57815f52600660205260405f20815f5260205260405f20600160ff1982541617905533915f80516020620015b08339815191525f80a460019056fe6080604090808252600480361015610015575f80fd5b5f3560e01c91826301ffc9a714610b695750816306fdde0314610a8e578163095ea7b3146109e657816318160ddd146109c857816323b872dd146108d6578163248a9ca3146108ac578163282c51f3146108725781632f2ff15d1461084a5781632ff2e9dc14610827578163313ce5671461080c57816336568abe146107c85781633f4ba83a1461076157816340c10f19146105fd57816342966c68146105b25781635c975abb1461058f57816370a082311461055957816379cc6790146104405781638456cb59146103e757816391d14854146103a357816395d89b4114610284578163a217fddf1461026a578163a9059cbb1461023a578163d539139314610200578163d547741f146101c457508063dd62ed3e1461017b5763e63ab1e91461013e575f80fd5b34610177575f36600319011261017757602090517f65d7a28e3265b37a6474929f336521b332c1681b933f6cb9f3376673440d862a8152f35b5f80fd5b5034610177578060031936011261017757602090610197610c02565b61019f610c18565b9060018060a01b038091165f5260018452825f2091165f528252805f20549051908152f35b82346101775780600319360112610177576101fe91356101f960016101e7610c18565b93835f5260066020525f200154610d89565b610e29565b005b8234610177575f36600319011261017757602090517f9f2df0fed2c77648de5860a4cc508cd0818c85b8b8a1ab4ceeef8d981c8956a68152f35b8234610177578060031936011261017757602090610263610259610c02565b6024359033610c2e565b5160018152f35b8234610177575f36600319011261017757602090515f8152f35b8234610177575f366003190112610177578051905f835460018160011c9060018316928315610399575b60209384841081146103865783885290811561036a5750600114610316575b505050829003601f01601f191682019267ffffffffffffffff84118385101761030357508291826102ff925282610bbb565b0390f35b604190634e487b7160e01b5f525260245ffd5b5f878152929350837f8a35acfbc15ff81a39ae7d344fd709f28e8600b4aa8c65c6b64bfe7fe36bd19b5b83851061035657505050508301018480806102cd565b805488860183015293019284908201610340565b60ff1916878501525050151560051b84010190508480806102cd565b602289634e487b7160e01b5f525260245ffd5b91607f16916102ae565b82346101775780600319360112610177576020916103bf610c18565b90355f5260068352815f209060018060a01b03165f52825260ff815f20541690519015158152f35b8234610177575f3660031901126101775760207f62e78cea01bee320cd4e420270b5ea74000d11b0c9f74754ebdbfc544b05a25891610424610d10565b61042c610e9d565b600160ff19600554161760055551338152a1005b8234610177578060031936011261017757610459610c02565b90602435917f3c11d16cbaffd01df69ce1c404f6340ee057498f5f00246190ea54220576a848805f526006602052825f20335f5260205260ff835f2054161561053b57506104a5610e9d565b6001600160a01b0381169384156104ed5750916020916104e6827fe0aad12d9f1046edb7cbc588ab6825f7cd9fa78a4844b472e90adb911f18444395610ebb565b51908152a2005b608490602084519162461bcd60e51b8352820152602260248201527f5761746572546f6b656e3a206275726e2066726f6d207a65726f206164647265604482015261737360f01b6064820152fd5b825163e2517d3f60e01b815233818701526024810191909152604490fd5b8234610177576020366003190112610177576020906001600160a01b0361057e610c02565b165f525f8252805f20549051908152f35b8234610177575f3660031901126101775760209060ff6005541690519015158152f35b9050346101775760203660031901126101775735906105d18233610ebb565b519081527fe0aad12d9f1046edb7cbc588ab6825f7cd9fa78a4844b472e90adb911f18444360203392a2005b8234610177578060031936011261017757610616610c02565b6024357f9f2df0fed2c77648de5860a4cc508cd0818c85b8b8a1ab4ceeef8d981c8956a691825f5260209260068452845f20335f52845260ff855f205416156107435750610662610e9d565b6001600160a01b03169283156107015761067a610e9d565b6002548281018091116106ee577f7b9961e6cecc8e28985e7b8c015501f63c7843987f918ea4102b83a2cb2c3ada949550600255845f525f8352805f20828154019055845f7fddf252ad1be2c89b69c2b068fc378daa952ba7f163c4a11628f55a4df523b3ef858451868152a351908152a2005b601186634e487b7160e01b5f525260245ffd5b5162461bcd60e51b8152808501839052602481018390527f5761746572546f6b656e3a206d696e7420746f207a65726f20616464726573736044820152606490fd5b845163e2517d3f60e01b815233818801526024810191909152604490fd5b8234610177575f3660031901126101775761077a610d10565b6005549160ff8316156107ba577f5db9ee0a495bf2e6ff9c91a7834c1ba4fdd244a5e8aa4e537bd38aeae4b073aa6020838560ff191660055551338152a1005b9051638dfc202b60e01b8152fd5b82346101775780600319360112610177576107e1610c18565b90336001600160a01b038316036107fd57506101fe9135610e29565b5163334bd91960e11b81529050fd5b8234610177575f366003190112610177576020905160128152f35b8234610177575f366003190112610177576020905168056bc75e2d631000008152f35b82346101775780600319360112610177576101fe913561086d60016101e7610c18565b610dab565b8234610177575f36600319011261017757602090517f3c11d16cbaffd01df69ce1c404f6340ee057498f5f00246190ea54220576a8488152f35b823461017757602036600319011261017757602091355f52600682526001815f2001549051908152f35b905034610177576060366003190112610177576108f1610c02565b6108f9610c18565b906044359260018060a01b038216805f526001602052855f20335f52602052855f2054915f198310610934575b602087610263888888610c2e565b85831061099c57811561098657331561097057505f90815260016020908152868220338352815290869020918590039091558290610263610926565b6024905f885191634a1406b160e11b8352820152fd5b6024905f88519163e602df0560e01b8352820152fd5b8651637dc7a0d960e11b8152339181019182526020820193909352604081018690528291506060010390fd5b8234610177575f366003190112610177576020906002549051908152f35b82346101775780600319360112610177576109ff610c02565b602435903315610a78576001600160a01b0316908115610a625760209350335f5260018452825f20825f52845280835f205582519081527f8c5be1e5ebec7d5bd14f71427d1e84f3dd0314c0f7b2291e5b200ac8c7c3b925843392a35160018152f35b8251634a1406b160e11b81525f81860152602490fd5b825163e602df0560e01b81525f81860152602490fd5b8234610177575f366003190112610177578051905f60035460018160011c9060018316928315610b5f575b60209384841081146103865783885290811561036a5750600114610b0957505050829003601f01601f191682019267ffffffffffffffff84118385101761030357508291826102ff925282610bbb565b60035f908152929350837fc2575a0e9e593c00f959f8c92f12db2869c3395a3b0502d05e2516446f71f85b5b838510610b4b57505050508301018480806102cd565b805488860183015293019284908201610b35565b91607f1691610ab9565b903461017757602036600319011261017757359063ffffffff60e01b821680920361017757602091637965db0b60e01b8114908115610baa575b5015158152f35b6301ffc9a760e01b14905083610ba3565b602080825282518183018190529093925f5b828110610bee57505060409293505f838284010152601f8019910116010190565b818101860151848201604001528501610bcd565b600435906001600160a01b038216820361017757565b602435906001600160a01b038216820361017757565b916001600160a01b03808416928315610cf85716928315610ce057610c51610e9d565b825f525f60205260405f205490828210610cae5750817fddf252ad1be2c89b69c2b068fc378daa952ba7f163c4a11628f55a4df523b3ef92602092855f525f84520360405f2055845f5260405f20818154019055604051908152a3565b60405163391434e360e21b81526001600160a01b03919091166004820152602481019190915260448101829052606490fd5b60405163ec442f0560e01b81525f6004820152602490fd5b604051634b637e8f60e11b81525f6004820152602490fd5b335f9081527fe09f975e15f8f53f24cbbc282b13c40b84df485fcdb8d3997fa103dc5a4ef84160205260409020547f65d7a28e3265b37a6474929f336521b332c1681b933f6cb9f3376673440d862a9060ff1615610d6b5750565b6044906040519063e2517d3f60e01b82523360048301526024820152fd5b805f52600660205260405f20335f5260205260ff60405f20541615610d6b5750565b90815f52600660205260405f209060018060a01b031690815f5260205260ff60405f205416155f14610e2357815f52600660205260405f20815f5260205260405f20600160ff1982541617905533917f2f8788117e7eff1d82e926ec794901d17c78024a50270940304540a733656f0d5f80a4600190565b50505f90565b90815f52600660205260405f209060018060a01b031690815f5260205260ff60405f2054165f14610e2357815f52600660205260405f20815f5260205260405f2060ff19815416905533917ff6391f5c32d9c69d2a47ea670b442974b53935d1edc7fd64eb21e047a839171b5f80a4600190565b60ff60055416610ea957565b60405163d93c066560e01b8152600490fd5b91906001600160a01b038316908115610cf857610ed6610e9d565b815f525f60205260405f205493818510610f3057506020817fddf252ad1be2c89b69c2b068fc378daa952ba7f163c4a11628f55a4df523b3ef925f95968587528684520360408620558060025403600255604051908152a3565b60405163391434e360e21b81526001600160a01b03919091166004820152602481018590526044810191909152606490fdfea2646970667358221220efec93fbfe2ce5eefb9bea878440f254e52674c28d8dd964117ece4e75e464c364736f6c634300081800332f8788117e7eff1d82e926ec794901d17c78024a50270940304540a733656f0d54cdd369e4e8a8515e52ca72ec816c2101831ad1f18bf44102ed171459c9b4f8","linkReferences":{}},"methodIdentifiers":{"BURNER_ROLE()":"282c51f3","DEFAULT_ADMIN_ROLE()":"a217fddf","INITIAL_SUPPLY()":"2ff2e9dc","MINTER_ROLE()":"d5391393","PAUSER_ROLE()":"e63ab1e9","allowance(address,address)":"dd62ed3e","approve(address,uint256)":"095ea7b3","balanceOf(address)":"70a08231","burn(uint256)":"42966c68","burnFrom(address,uint256)":"79cc6790","decimals()":"313ce567","getRoleAdmin(bytes32)":"248a9ca3","grantRole(bytes32,address)":"2f2ff15d","hasRole(bytes32,address)":"91d14854","mint(address,uint256)":"40c10f19","name()":"06fdde03","pause()":"8456cb59","paused()":"5c975abb","renounceRole(bytes32,address)":"36568abe","revokeRole(bytes32,address)":"d547741f","supportsInterface(bytes4)":"01ffc9a7","symbol()":"95d89b41","totalSupply()":"18160ddd","transfer(address,uint256)":"a9059cbb","transferFrom(address,address,uint256)":"23b872dd","unpause()":"3f4ba83a"},"id":100}