{"abi":[{"type":"constructor","inputs":[],"stateMutability":"nonpayable"},{"type":"function","name":"CONSUMER_ROLE","inputs":[],"outputs":[{"name":"","type":"bytes32","internalType":"bytes32"}],"stateMutability":"view"},{"type":"function","name":"DEFAULT_ADMIN_ROLE","inputs":[],"outputs":[{"name":"","type":"bytes32","internalType":"bytes32"}],"stateMutability":"view"},{"type":"function","name":"MINTER_ROLE","inputs":[],"outputs":[{"name":"","type":"bytes32","internalType":"bytes32"}],"stateMutability":"view"},{"type":"function","name":"PAUSER_ROLE","inputs":[],"outputs":[{"name":"","type":"bytes32","internalType":"bytes32"}],"stateMutability":"view"},{"type":"function","name":"UPGRADE_INTERFACE_VERSION","inputs":[],"outputs":[{"name":"","type":"string","internalType":"string"}],"stateMutability":"view"},{"type":"function","name":"allowance","inputs":[{"name":"owner","type":"address","internalType":"address"},{"name":"spender","type":"address","internalType":"address"}],"outputs":[{"name":"","type":"uint256","internalType":"uint256"}],"stateMutability":"view"},{"type":"function","name":"approve","inputs":[{"name":"spender","type":"address","internalType":"address"},{"name":"value","type":"uint256","internalType":"uint256"}],"outputs":[{"name":"","type":"bool","internalType":"bool"}],"stateMutability":"nonpayable"},{"type":"function","name":"balanceOf","inputs":[{"name":"account","type":"address","internalType":"address"}],"outputs":[{"name":"","type":"uint256","internalType":"uint256"}],"stateMutability":"view"},{"type":"function","name":"batchMint","inputs":[{"name":"recipients","type":"address[]","internalType":"address[]"},{"name":"amounts","type":"uint256[]","internalType":"uint256[]"}],"outputs":[],"stateMutability":"nonpayable"},{"type":"function","name":"burn","inputs":[{"name":"value","type":"uint256","internalType":"uint256"}],"outputs":[],"stateMutability":"nonpayable"},{"type":"function","name":"burnFrom","inputs":[{"name":"account","type":"address","internalType":"address"},{"name":"value","type":"uint256","internalType":"uint256"}],"outputs":[],"stateMutability":"nonpayable"},{"type":"function","name":"canMintDaily","inputs":[{"name":"","type":"address","internalType":"address"}],"outputs":[{"name":"","type":"bool","internalType":"bool"}],"stateMutability":"pure"},{"type":"function","name":"consume","inputs":[{"name":"from","type":"address","internalType":"address"},{"name":"amount","type":"uint256","internalType":"uint256"}],"outputs":[],"stateMutability":"nonpayable"},{"type":"function","name":"decimals","inputs":[],"outputs":[{"name":"","type":"uint8","internalType":"uint8"}],"stateMutability":"pure"},{"type":"function","name":"getRoleAdmin","inputs":[{"name":"role","type":"bytes32","internalType":"bytes32"}],"outputs":[{"name":"","type":"bytes32","internalType":"bytes32"}],"stateMutability":"view"},{"type":"function","name":"grantRole","inputs":[{"name":"role","type":"bytes32","internalType":"bytes32"},{"name":"account","type":"address","internalType":"address"}],"outputs":[],"stateMutability":"nonpayable"},{"type":"function","name":"hasRole","inputs":[{"name":"role","type":"bytes32","internalType":"bytes32"},{"name":"account","type":"address","internalType":"address"}],"outputs":[{"name":"","type":"bool","internalType":"bool"}],"stateMutability":"view"},{"type":"function","name":"initialize","inputs":[{"name":"admin","type":"address","internalType":"address"}],"outputs":[],"stateMutability":"nonpayable"},{"type":"function","name":"lastMintTimestamp","inputs":[{"name":"","type":"address","internalType":"address"}],"outputs":[{"name":"","type":"uint256","internalType":"uint256"}],"stateMutability":"pure"},{"type":"function","name":"mint","inputs":[{"name":"to","type":"address","internalType":"address"},{"name":"amount","type":"uint256","internalType":"uint256"}],"outputs":[],"stateMutability":"nonpayable"},{"type":"function","name":"name","inputs":[],"outputs":[{"name":"","type":"string","internalType":"string"}],"stateMutability":"view"},{"type":"function","name":"pause","inputs":[],"outputs":[],"stateMutability":"nonpayable"},{"type":"function","name":"paused","inputs":[],"outputs":[{"name":"","type":"bool","internalType":"bool"}],"stateMutability":"view"},{"type":"function","name":"proxiableUUID","inputs":[],"outputs":[{"name":"","type":"bytes32","internalType":"bytes32"}],"stateMutability":"view"},{"type":"function","name":"renounceRole","inputs":[{"name":"role","type":"bytes32","internalType":"bytes32"},{"name":"callerConfirmation","type":"address","internalType":"address"}],"outputs":[],"stateMutability":"nonpayable"},{"type":"function","name":"revokeRole","inputs":[{"name":"role","type":"bytes32","internalType":"bytes32"},{"name":"account","type":"address","internalType":"address"}],"outputs":[],"stateMutability":"nonpayable"},{"type":"function","name":"supportsInterface","inputs":[{"name":"interfaceId","type":"bytes4","internalType":"bytes4"}],"outputs":[{"name":"","type":"bool","internalType":"bool"}],"stateMutability":"view"},{"type":"function","name":"symbol","inputs":[],"outputs":[{"name":"","type":"string","internalType":"string"}],"stateMutability":"view"},{"type":"function","name":"totalSupply","inputs":[],"outputs":[{"name":"","type":"uint256","internalType":"uint256"}],"stateMutability":"view"},{"type":"function","name":"transfer","inputs":[{"name":"to","type":"address","internalType":"address"},{"name":"value","type":"uint256","internalType":"uint256"}],"outputs":[{"name":"","type":"bool","internalType":"bool"}],"stateMutability":"nonpayable"},{"type":"function","name":"transferFrom","inputs":[{"name":"from","type":"address","internalType":"address"},{"name":"to","type":"address","internalType":"address"},{"name":"value","type":"uint256","internalType":"uint256"}],"outputs":[{"name":"","type":"bool","internalType":"bool"}],"stateMutability":"nonpayable"},{"type":"function","name":"unpause","inputs":[],"outputs":[],"stateMutability":"nonpayable"},{"type":"function","name":"upgradeToAndCall","inputs":[{"name":"newImplementation","type":"address","internalType":"address"},{"name":"data","type":"bytes","internalType":"bytes"}],"outputs":[],"stateMutability":"payable"},{"type":"event","name":"Approval","inputs":[{"name":"owner","type":"address","indexed":true,"internalType":"address"},{"name":"spender","type":"address","indexed":true,"internalType":"address"},{"name":"value","type":"uint256","indexed":false,"internalType":"uint256"}],"anonymous":false},{"type":"event","name":"DailyMintClaimed","inputs":[{"name":"player","type":"address","indexed":true,"internalType":"address"},{"name":"amount","type":"uint256","indexed":false,"internalType":"uint256"},{"name":"timestamp","type":"uint256","indexed":false,"internalType":"uint256"}],"anonymous":false},{"type":"event","name":"Initialized","inputs":[{"name":"version","type":"uint64","indexed":false,"internalType":"uint64"}],"anonymous":false},{"type":"event","name":"Paused","inputs":[{"name":"account","type":"address","indexed":false,"internalType":"address"}],"anonymous":false},{"type":"event","name":"PlayerRegistered","inputs":[{"name":"player","type":"address","indexed":true,"internalType":"address"},{"name":"amount","type":"uint256","indexed":false,"internalType":"uint256"}],"anonymous":false},{"type":"event","name":"RoleAdminChanged","inputs":[{"name":"role","type":"bytes32","indexed":true,"internalType":"bytes32"},{"name":"previousAdminRole","type":"bytes32","indexed":true,"internalType":"bytes32"},{"name":"newAdminRole","type":"bytes32","indexed":true,"internalType":"bytes32"}],"anonymous":false},{"type":"event","name":"RoleGranted","inputs":[{"name":"role","type":"bytes32","indexed":true,"internalType":"bytes32"},{"name":"account","type":"address","indexed":true,"internalType":"address"},{"name":"sender","type":"address","indexed":true,"internalType":"address"}],"anonymous":false},{"type":"event","name":"RoleRevoked","inputs":[{"name":"role","type":"bytes32","indexed":true,"internalType":"bytes32"},{"name":"account","type":"address","indexed":true,"internalType":"address"},{"name":"sender","type":"address","indexed":true,"internalType":"address"}],"anonymous":false},{"type":"event","name":"Transfer","inputs":[{"name":"from","type":"address","indexed":true,"internalType":"address"},{"name":"to","type":"address","indexed":true,"internalType":"address"},{"name":"value","type":"uint256","indexed":false,"internalType":"uint256"}],"anonymous":false},{"type":"event","name":"Unpaused","inputs":[{"name":"account","type":"address","indexed":false,"internalType":"address"}],"anonymous":false},{"type":"event","name":"Upgraded","inputs":[{"name":"implementation","type":"address","indexed":true,"internalType":"address"}],"anonymous":false},{"type":"event","name":"WaterConsumed","inputs":[{"name":"player","type":"address","indexed":true,"internalType":"address"},{"name":"amount","type":"uint256","indexed":false,"internalType":"uint256"}],"anonymous":false},{"type":"event","name":"WaterPurchased","inputs":[{"name":"player","type":"address","indexed":true,"internalType":"address"},{"name":"amount","type":"uint256","indexed":false,"internalType":"uint256"}],"anonymous":false},{"type":"error","name":"AccessControlBadConfirmation","inputs":[]},{"type":"error","name":"AccessControlUnauthorizedAccount","inputs":[{"name":"account","type":"address","internalType":"address"},{"name":"neededRole","type":"bytes32","internalType":"bytes32"}]},{"type":"error","name":"AddressEmptyCode","inputs":[{"name":"target","type":"address","internalType":"address"}]},{"type":"error","name":"ArrayLengthMismatch","inputs":[]},{"type":"error","name":"ERC1967InvalidImplementation","inputs":[{"name":"implementation","type":"address","internalType":"address"}]},{"type":"error","name":"ERC1967NonPayable","inputs":[]},{"type":"error","name":"ERC20InsufficientAllowance","inputs":[{"name":"spender","type":"address","internalType":"address"},{"name":"allowance","type":"uint256","internalType":"uint256"},{"name":"needed","type":"uint256","internalType":"uint256"}]},{"type":"error","name":"ERC20InsufficientBalance","inputs":[{"name":"sender","type":"address","internalType":"address"},{"name":"balance","type":"uint256","internalType":"uint256"},{"name":"needed","type":"uint256","internalType":"uint256"}]},{"type":"error","name":"ERC20InvalidApprover","inputs":[{"name":"approver","type":"address","internalType":"address"}]},{"type":"error","name":"ERC20InvalidReceiver","inputs":[{"name":"receiver","type":"address","internalType":"address"}]},{"type":"error","name":"ERC20InvalidSender","inputs":[{"name":"sender","type":"address","internalType":"address"}]},{"type":"error","name":"ERC20InvalidSpender","inputs":[{"name":"spender","type":"address","internalType":"address"}]},{"type":"error","name":"EmptyArray","inputs":[]},{"type":"error","name":"EnforcedPause","inputs":[]},{"type":"error","name":"ExpectedPause","inputs":[]},{"type":"error","name":"FailedCall","inputs":[]},{"type":"error","name":"InvalidInitialization","inputs":[]},{"type":"error","name":"NotInitializing","inputs":[]},{"type":"error","name":"UUPSUnauthorizedCallContext","inputs":[]},{"type":"error","name":"UUPSUnsupportedProxiableUUID","inputs":[{"name":"slot","type":"bytes32","internalType":"bytes32"}]},{"type":"error","name":"ZeroAddressNotAllowed","inputs":[]},{"type":"error","name":"ZeroAmountNotAllowed","inputs":[]}],"bytecode":{"object":"0x60a060405230608052348015610013575f80fd5b5061001c610021565b6100d3565b7ff0c57e16840df040f15088dc2f81fe391c3923bec73e23a9662efc9c229c6a00805468010000000000000000900460ff16156100715760405163f92ee8a960e01b815260040160405180910390fd5b80546001600160401b03908116146100d05780546001600160401b0319166001600160401b0390811782556040519081527fc7f505b2f371ae2175ee4913f4499e1f2633a7b5936321eed1cdaeb6115181d29060200160405180910390a15b50565b608051611da26100f95f395f81816111290152818161115201526112930152611da25ff3fe6080604052600436106101e6575f3560e01c80635c975abb11610108578063a9059cbb1161009d578063c4d66de81161006d578063c4d66de814610581578063d5391393146105a0578063d547741f146105c0578063dd62ed3e146105df578063e63ab1e9146105fe575f80fd5b8063a9059cbb146104f9578063ad3cb1cc14610518578063b930164014610548578063be13197b14610567575f80fd5b80638456cb59116100d85780638456cb591461049f57806391d14854146104b357806395d89b41146104d2578063a217fddf146104e6575f80fd5b80635c975abb146103fe578063685731071461042157806370a082311461044057806379cc679014610480575f80fd5b8063313ce5671161017e57806342966c681161014e57806342966c68146103855780634bc02da6146103a45780634f1ef286146103d757806352d1902d146103ea575f80fd5b8063313ce5671461031957806336568abe146103335780633f4ba83a1461035257806340c10f1914610366575f80fd5b8063224b5c72116101b9578063224b5c721461029b57806323b872dd146102bc578063248a9ca3146102db5780632f2ff15d146102fa575f80fd5b806301ffc9a7146101ea57806306fdde031461021e578063095ea7b31461023f57806318160ddd1461025e575b5f80fd5b3480156101f5575f80fd5b50610209610204366004611833565b61061e565b60405190151581526020015b60405180910390f35b348015610229575f80fd5b50610232610654565b6040516102159190611861565b34801561024a575f80fd5b506102096102593660046118c8565b610714565b348015610269575f80fd5b507f52c63247e1f47db19d5ce0460030c497f067ca4cebf71ba98eeadabe20bace02545b604051908152602001610215565b3480156102a6575f80fd5b506102ba6102b53660046118c8565b61072b565b005b3480156102c7575f80fd5b506102096102d63660046118f0565b6107f6565b3480156102e6575f80fd5b5061028d6102f5366004611929565b610819565b348015610305575f80fd5b506102ba610314366004611940565b610839565b348015610324575f80fd5b506040515f8152602001610215565b34801561033e575f80fd5b506102ba61034d366004611940565b61085b565b34801561035d575f80fd5b506102ba610893565b348015610371575f80fd5b506102ba6103803660046118c8565b6108b5565b348015610390575f80fd5b506102ba61039f366004611929565b610960565b3480156103af575f80fd5b5061028d7f9d56108290ea0bc9c5c59c3ad357dca9d1b29ed7f3ae1443bef2fa2159bdf5e881565b6102ba6103e536600461197e565b61096a565b3480156103f5575f80fd5b5061028d610989565b348015610409575f80fd5b505f80516020611d4d8339815191525460ff16610209565b34801561042c575f80fd5b506102ba61043b366004611a82565b6109a4565b34801561044b575f80fd5b5061028d61045a366004611ae9565b6001600160a01b03165f9081525f80516020611cad833981519152602052604090205490565b34801561048b575f80fd5b506102ba61049a3660046118c8565b610b36565b3480156104aa575f80fd5b506102ba610b4b565b3480156104be575f80fd5b506102096104cd366004611940565b610b6a565b3480156104dd575f80fd5b50610232610ba0565b3480156104f1575f80fd5b5061028d5f81565b348015610504575f80fd5b506102096105133660046118c8565b610bde565b348015610523575f80fd5b50610232604051806040016040528060058152602001640352e302e360dc1b81525081565b348015610553575f80fd5b50610209610562366004611ae9565b505f90565b348015610572575f80fd5b5061028d610562366004611ae9565b34801561058c575f80fd5b506102ba61059b366004611ae9565b610beb565b3480156105ab575f80fd5b5061028d5f80516020611d0d83398151915281565b3480156105cb575f80fd5b506102ba6105da366004611940565b610dc8565b3480156105ea575f80fd5b5061028d6105f9366004611b02565b610de4565b348015610609575f80fd5b5061028d5f80516020611ced83398151915281565b5f6001600160e01b03198216637965db0b60e01b148061064e57506301ffc9a760e01b6001600160e01b03198316145b92915050565b7f52c63247e1f47db19d5ce0460030c497f067ca4cebf71ba98eeadabe20bace0380546060915f80516020611cad8339815191529161069290611b2a565b80601f01602080910402602001604051908101604052809291908181526020018280546106be90611b2a565b80156107095780601f106106e057610100808354040283529160200191610709565b820191905f5260205f20905b8154815290600101906020018083116106ec57829003601f168201915b505050505091505090565b5f33610721818585610e2d565b5060019392505050565b7f9d56108290ea0bc9c5c59c3ad357dca9d1b29ed7f3ae1443bef2fa2159bdf5e861075581610e3a565b61075d610e44565b6001600160a01b038316610784576040516342bcdf7f60e11b815260040160405180910390fd5b815f036107a4576040516307a1cab560e11b815260040160405180910390fd5b6107ae8383610e76565b826001600160a01b03167fb31836ae960f03d1415ce2f3a60a192a2551bf2c8a2d27b5270a356f2891dba2836040516107e991815260200190565b60405180910390a2505050565b5f33610803858285610eaf565b61080e858585610f0d565b506001949350505050565b5f9081525f80516020611d2d833981519152602052604090206001015490565b61084282610819565b61084b81610e3a565b6108558383610f6a565b50505050565b6001600160a01b03811633146108845760405163334bd91960e11b815260040160405180910390fd5b61088e8282611012565b505050565b5f80516020611ced8339815191526108aa81610e3a565b6108b261108b565b50565b5f80516020611d0d8339815191526108cc81610e3a565b6108d4610e44565b6001600160a01b0383166108fb576040516342bcdf7f60e11b815260040160405180910390fd5b815f0361091b576040516307a1cab560e11b815260040160405180910390fd5b61092583836110ea565b826001600160a01b03167f96e208a25bafaa675d9c66689cdd5784de6a40ef5b91c0d971fbf564bbd2c927836040516107e991815260200190565b6108b23382610e76565b61097261111e565b61097b826111c2565b61098582826111cc565b5050565b5f610992611288565b505f80516020611ccd83398151915290565b5f80516020611d0d8339815191526109bb81610e3a565b6109c3610e44565b8382146109e35760405163512509d360e11b815260040160405180910390fd5b5f849003610a045760405163521299a960e01b815260040160405180910390fd5b5f5b84811015610b2e575f868683818110610a2157610a21611b62565b9050602002016020810190610a369190611ae9565b6001600160a01b031603610a5d576040516342bcdf7f60e11b815260040160405180910390fd5b610aa5868683818110610a7257610a72611b62565b9050602002016020810190610a879190611ae9565b858584818110610a9957610a99611b62565b905060200201356110ea565b858582818110610ab757610ab7611b62565b9050602002016020810190610acc9190611ae9565b6001600160a01b03167f96e208a25bafaa675d9c66689cdd5784de6a40ef5b91c0d971fbf564bbd2c927858584818110610b0857610b08611b62565b90506020020135604051610b1e91815260200190565b60405180910390a2600101610a06565b505050505050565b610b41823383610eaf565b6109858282610e76565b5f80516020611ced833981519152610b6281610e3a565b6108b26112d1565b5f9182525f80516020611d2d833981519152602090815260408084206001600160a01b0393909316845291905290205460ff1690565b7f52c63247e1f47db19d5ce0460030c497f067ca4cebf71ba98eeadabe20bace0480546060915f80516020611cad8339815191529161069290611b2a565b5f33610721818585610f0d565b5f610bf4611319565b805490915060ff600160401b820416159067ffffffffffffffff165f81158015610c1b5750825b90505f8267ffffffffffffffff166001148015610c375750303b155b905081158015610c45575080155b15610c635760405163f92ee8a960e01b815260040160405180910390fd5b845467ffffffffffffffff191660011785558315610c8d57845460ff60401b1916600160401b1785555b6001600160a01b038616610cb4576040516342bcdf7f60e11b815260040160405180910390fd5b610cfd6040518060400160405280600a8152602001692bb0ba32b92a37b5b2b760b11b815250604051806040016040528060058152602001642ba0aa22a960d91b815250611341565b610d05611353565b610d0d611353565b610d15611353565b610d1f5f87610f6a565b50610d375f80516020611d0d83398151915287610f6a565b50610d627f9d56108290ea0bc9c5c59c3ad357dca9d1b29ed7f3ae1443bef2fa2159bdf5e887610f6a565b50610d7a5f80516020611ced83398151915287610f6a565b508315610b2e57845460ff60401b19168555604051600181527fc7f505b2f371ae2175ee4913f4499e1f2633a7b5936321eed1cdaeb6115181d29060200160405180910390a1505050505050565b610dd182610819565b610dda81610e3a565b6108558383611012565b6001600160a01b039182165f9081527f52c63247e1f47db19d5ce0460030c497f067ca4cebf71ba98eeadabe20bace016020908152604080832093909416825291909152205490565b61088e838383600161135b565b6108b2813361143f565b5f80516020611d4d8339815191525460ff1615610e745760405163d93c066560e01b815260040160405180910390fd5b565b6001600160a01b038216610ea457604051634b637e8f60e11b81525f60048201526024015b60405180910390fd5b610985825f83611478565b5f610eba8484610de4565b90505f198110156108555781811015610eff57604051637dc7a0d960e11b81526001600160a01b03841660048201526024810182905260448101839052606401610e9b565b61085584848484035f61135b565b6001600160a01b038316610f3657604051634b637e8f60e11b81525f6004820152602401610e9b565b6001600160a01b038216610f5f5760405163ec442f0560e01b81525f6004820152602401610e9b565b61088e838383611478565b5f5f80516020611d2d833981519152610f838484610b6a565b611002575f848152602082815260408083206001600160a01b03871684529091529020805460ff19166001179055610fb83390565b6001600160a01b0316836001600160a01b0316857f2f8788117e7eff1d82e926ec794901d17c78024a50270940304540a733656f0d60405160405180910390a4600191505061064e565b5f91505061064e565b5092915050565b5f5f80516020611d2d83398151915261102b8484610b6a565b15611002575f848152602082815260408083206001600160a01b0387168085529252808320805460ff1916905551339287917ff6391f5c32d9c69d2a47ea670b442974b53935d1edc7fd64eb21e047a839171b9190a4600191505061064e565b611093611483565b5f80516020611d4d833981519152805460ff191681557f5db9ee0a495bf2e6ff9c91a7834c1ba4fdd244a5e8aa4e537bd38aeae4b073aa335b6040516001600160a01b03909116815260200160405180910390a150565b6001600160a01b0382166111135760405163ec442f0560e01b81525f6004820152602401610e9b565b6109855f8383611478565b306001600160a01b037f00000000000000000000000000000000000000000000000000000000000000001614806111a457507f00000000000000000000000000000000000000000000000000000000000000006001600160a01b03166111985f80516020611ccd833981519152546001600160a01b031690565b6001600160a01b031614155b15610e745760405163703e46dd60e11b815260040160405180910390fd5b5f61098581610e3a565b816001600160a01b03166352d1902d6040518163ffffffff1660e01b8152600401602060405180830381865afa925050508015611226575060408051601f3d908101601f1916820190925261122391810190611b76565b60015b61124e57604051634c9c8ce360e01b81526001600160a01b0383166004820152602401610e9b565b5f80516020611ccd833981519152811461127e57604051632a87526960e21b815260048101829052602401610e9b565b61088e83836114b2565b306001600160a01b037f00000000000000000000000000000000000000000000000000000000000000001614610e745760405163703e46dd60e11b815260040160405180910390fd5b6112d9610e44565b5f80516020611d4d833981519152805460ff191660011781557f62e78cea01bee320cd4e420270b5ea74000d11b0c9f74754ebdbfc544b05a258336110cc565b5f807ff0c57e16840df040f15088dc2f81fe391c3923bec73e23a9662efc9c229c6a0061064e565b611349611507565b610985828261152c565b610e74611507565b5f80516020611cad8339815191526001600160a01b0385166113925760405163e602df0560e01b81525f6004820152602401610e9b565b6001600160a01b0384166113bb57604051634a1406b160e11b81525f6004820152602401610e9b565b6001600160a01b038086165f9081526001830160209081526040808320938816835292905220839055811561143857836001600160a01b0316856001600160a01b03167f8c5be1e5ebec7d5bd14f71427d1e84f3dd0314c0f7b2291e5b200ac8c7c3b9258560405161142f91815260200190565b60405180910390a35b5050505050565b6114498282610b6a565b6109855760405163e2517d3f60e01b81526001600160a01b038216600482015260248101839052604401610e9b565b61088e83838361157c565b5f80516020611d4d8339815191525460ff16610e7457604051638dfc202b60e01b815260040160405180910390fd5b6114bb8261158f565b6040516001600160a01b038316907fbc7cd75a20ee27fd9adebab32041f755214dbc6bffa90cc0225b39da2e5c2d3b905f90a28051156114ff5761088e82826115f2565b61098561168b565b61150f6116aa565b610e7457604051631afcd79f60e31b815260040160405180910390fd5b611534611507565b5f80516020611cad8339815191527f52c63247e1f47db19d5ce0460030c497f067ca4cebf71ba98eeadabe20bace0361156d8482611bd1565b50600481016108558382611bd1565b611584610e44565b61088e8383836116c3565b806001600160a01b03163b5f036115c457604051634c9c8ce360e01b81526001600160a01b0382166004820152602401610e9b565b5f80516020611ccd83398151915280546001600160a01b0319166001600160a01b0392909216919091179055565b60605f6115ff84846117fc565b905080801561162057505f3d118061162057505f846001600160a01b03163b115b156116355761162d61180f565b91505061064e565b801561165f57604051639996b31560e01b81526001600160a01b0385166004820152602401610e9b565b3d156116725761166d611828565b61100b565b60405163d6bda27560e01b815260040160405180910390fd5b3415610e745760405163b398979f60e01b815260040160405180910390fd5b5f6116b3611319565b54600160401b900460ff16919050565b5f80516020611cad8339815191526001600160a01b0384166116fd5781816002015f8282546116f29190611c8d565b9091555061176d9050565b6001600160a01b0384165f908152602082905260409020548281101561174f5760405163391434e360e21b81526001600160a01b03861660048201526024810182905260448101849052606401610e9b565b6001600160a01b0385165f9081526020839052604090209083900390555b6001600160a01b03831661178b5760028101805483900390556117a9565b6001600160a01b0383165f9081526020829052604090208054830190555b826001600160a01b0316846001600160a01b03167fddf252ad1be2c89b69c2b068fc378daa952ba7f163c4a11628f55a4df523b3ef846040516117ee91815260200190565b60405180910390a350505050565b5f805f835160208501865af49392505050565b6040513d81523d5f602083013e3d602001810160405290565b6040513d5f823e3d81fd5b5f60208284031215611843575f80fd5b81356001600160e01b03198116811461185a575f80fd5b9392505050565b5f602080835283518060208501525f5b8181101561188d57858101830151858201604001528201611871565b505f604082860101526040601f19601f8301168501019250505092915050565b80356001600160a01b03811681146118c3575f80fd5b919050565b5f80604083850312156118d9575f80fd5b6118e2836118ad565b946020939093013593505050565b5f805f60608486031215611902575f80fd5b61190b846118ad565b9250611919602085016118ad565b9150604084013590509250925092565b5f60208284031215611939575f80fd5b5035919050565b5f8060408385031215611951575f80fd5b82359150611961602084016118ad565b90509250929050565b634e487b7160e01b5f52604160045260245ffd5b5f806040838503121561198f575f80fd5b611998836118ad565b9150602083013567ffffffffffffffff808211156119b4575f80fd5b818501915085601f8301126119c7575f80fd5b8135818111156119d9576119d961196a565b604051601f8201601f19908116603f01168101908382118183101715611a0157611a0161196a565b81604052828152886020848701011115611a19575f80fd5b826020860160208301375f6020848301015280955050505050509250929050565b5f8083601f840112611a4a575f80fd5b50813567ffffffffffffffff811115611a61575f80fd5b6020830191508360208260051b8501011115611a7b575f80fd5b9250929050565b5f805f8060408587031215611a95575f80fd5b843567ffffffffffffffff80821115611aac575f80fd5b611ab888838901611a3a565b90965094506020870135915080821115611ad0575f80fd5b50611add87828801611a3a565b95989497509550505050565b5f60208284031215611af9575f80fd5b61185a826118ad565b5f8060408385031215611b13575f80fd5b611b1c836118ad565b9150611961602084016118ad565b600181811c90821680611b3e57607f821691505b602082108103611b5c57634e487b7160e01b5f52602260045260245ffd5b50919050565b634e487b7160e01b5f52603260045260245ffd5b5f60208284031215611b86575f80fd5b5051919050565b601f82111561088e57805f5260205f20601f840160051c81016020851015611bb25750805b601f840160051c820191505b81811015611438575f8155600101611bbe565b815167ffffffffffffffff811115611beb57611beb61196a565b611bff81611bf98454611b2a565b84611b8d565b602080601f831160018114611c32575f8415611c1b5750858301515b5f19600386901b1c1916600185901b178555610b2e565b5f85815260208120601f198616915b82811015611c6057888601518255948401946001909101908401611c41565b5085821015611c7d57878501515f19600388901b60f8161c191681555b5050505050600190811b01905550565b8082018082111561064e57634e487b7160e01b5f52601160045260245ffdfe52c63247e1f47db19d5ce0460030c497f067ca4cebf71ba98eeadabe20bace00360894a13ba1a3210667c828492db98dca3e2076cc3735a920a3ca505d382bbc65d7a28e3265b37a6474929f336521b332c1681b933f6cb9f3376673440d862a9f2df0fed2c77648de5860a4cc508cd0818c85b8b8a1ab4ceeef8d981c8956a602dd7bc7dec4dceedda775e58dd541e08a116c6c53815c0bd028192f7b626800cd5ed15c6e187e77e9aee88184c21f4f2182ab5827cb3b7e07fbedcd63f03300a264697066735822122074530e3faeb0f9a41622d4079ddd9fb2f71631f77c55da5326ac3dd243bca1ea64736f6c63430008180033","linkReferences":{}},"methodIdentifiers":{"CONSUMER_ROLE()":"4bc02da6","DEFAULT_ADMIN_ROLE()":"a217fddf","MINTER_ROLE()":"d5391393","PAUSER_ROLE()":"e63ab1e9","UPGRADE_INTERFACE_VERSION()":"ad3cb1cc","allowance(address,address)":"dd62ed3e","approve(address,uint256)":"095ea7b3","balanceOf(address)":"70a08231","batchMint(address[],uint256[])":"68573107","burn(uint256)":"42966c68","burnFrom(address,uint256)":"79cc6790","canMintDaily(address)":"b9301640","consume(address,uint256)":"224b5c72","decimals()":"313ce567","getRoleAdmin(bytes32)":"248a9ca3","grantRole(bytes32,address)":"2f2ff15d","hasRole(bytes32,address)":"91d14854","initialize(address)":"c4d66de8","lastMintTimestamp(address)":"be13197b","mint(address,uint256)":"40c10f19","name()":"06fdde03","pause()":"8456cb59","paused()":"5c975abb","proxiableUUID()":"52d1902d","renounceRole(bytes32,address)":"36568abe","revokeRole(bytes32,address)":"d547741f","supportsInterface(bytes4)":"01ffc9a7","symbol()":"95d89b41","totalSupply()":"18160ddd","transfer(address,uint256)":"a9059cbb","transferFrom(address,address,uint256)":"23b872dd","unpause()":"3f4ba83a","upgradeToAndCall(address,bytes)":"4f1ef286"},"id":66}