{"abi":[{"type":"constructor","inputs":[],"stateMutability":"nonpayable"},{"type":"function","name":"CONSUMER_ROLE","inputs":[],"outputs":[{"name":"","type":"bytes32","internalType":"bytes32"}],"stateMutability":"view"},{"type":"function","name":"DEFAULT_ADMIN_ROLE","inputs":[],"outputs":[{"name":"","type":"bytes32","internalType":"bytes32"}],"stateMutability":"view"},{"type":"function","name":"MINTER_ROLE","inputs":[],"outputs":[{"name":"","type":"bytes32","internalType":"bytes32"}],"stateMutability":"view"},{"type":"function","name":"PAUSER_ROLE","inputs":[],"outputs":[{"name":"","type":"bytes32","internalType":"bytes32"}],"stateMutability":"view"},{"type":"function","name":"UPGRADE_INTERFACE_VERSION","inputs":[],"outputs":[{"name":"","type":"string","internalType":"string"}],"stateMutability":"view"},{"type":"function","name":"allowance","inputs":[{"name":"owner","type":"address","internalType":"address"},{"name":"spender","type":"address","internalType":"address"}],"outputs":[{"name":"","type":"uint256","internalType":"uint256"}],"stateMutability":"view"},{"type":"function","name":"approve","inputs":[{"name":"spender","type":"address","internalType":"address"},{"name":"value","type":"uint256","internalType":"uint256"}],"outputs":[{"name":"","type":"bool","internalType":"bool"}],"stateMutability":"nonpayable"},{"type":"function","name":"balanceOf","inputs":[{"name":"account","type":"address","internalType":"address"}],"outputs":[{"name":"","type":"uint256","internalType":"uint256"}],"stateMutability":"view"},{"type":"function","name":"batchMint","inputs":[{"name":"recipients","type":"address[]","internalType":"address[]"},{"name":"amounts","type":"uint256[]","internalType":"uint256[]"}],"outputs":[],"stateMutability":"nonpayable"},{"type":"function","name":"burn","inputs":[{"name":"value","type":"uint256","internalType":"uint256"}],"outputs":[],"stateMutability":"nonpayable"},{"type":"function","name":"burnFrom","inputs":[{"name":"account","type":"address","internalType":"address"},{"name":"value","type":"uint256","internalType":"uint256"}],"outputs":[],"stateMutability":"nonpayable"},{"type":"function","name":"canMintDaily","inputs":[{"name":"","type":"address","internalType":"address"}],"outputs":[{"name":"","type":"bool","internalType":"bool"}],"stateMutability":"pure"},{"type":"function","name":"consume","inputs":[{"name":"from","type":"address","internalType":"address"},{"name":"amount","type":"uint256","internalType":"uint256"}],"outputs":[],"stateMutability":"nonpayable"},{"type":"function","name":"decimals","inputs":[],"outputs":[{"name":"","type":"uint8","internalType":"uint8"}],"stateMutability":"pure"},{"type":"function","name":"getRoleAdmin","inputs":[{"name":"role","type":"bytes32","internalType":"bytes32"}],"outputs":[{"name":"","type":"bytes32","internalType":"bytes32"}],"stateMutability":"view"},{"type":"function","name":"grantRole","inputs":[{"name":"role","type":"bytes32","internalType":"bytes32"},{"name":"account","type":"address","internalType":"address"}],"outputs":[],"stateMutability":"nonpayable"},{"type":"function","name":"hasRole","inputs":[{"name":"role","type":"bytes32","internalType":"bytes32"},{"name":"account","type":"address","internalType":"address"}],"outputs":[{"name":"","type":"bool","internalType":"bool"}],"stateMutability":"view"},{"type":"function","name":"initialize","inputs":[{"name":"admin","type":"address","internalType":"address"}],"outputs":[],"stateMutability":"nonpayable"},{"type":"function","name":"lastMintTimestamp","inputs":[{"name":"","type":"address","internalType":"address"}],"outputs":[{"name":"","type":"uint256","internalType":"uint256"}],"stateMutability":"pure"},{"type":"function","name":"mint","inputs":[{"name":"to","type":"address","internalType":"address"},{"name":"amount","type":"uint256","internalType":"uint256"}],"outputs":[],"stateMutability":"nonpayable"},{"type":"function","name":"name","inputs":[],"outputs":[{"name":"","type":"string","internalType":"string"}],"stateMutability":"view"},{"type":"function","name":"pause","inputs":[],"outputs":[],"stateMutability":"nonpayable"},{"type":"function","name":"paused","inputs":[],"outputs":[{"name":"","type":"bool","internalType":"bool"}],"stateMutability":"view"},{"type":"function","name":"proxiableUUID","inputs":[],"outputs":[{"name":"","type":"bytes32","internalType":"bytes32"}],"stateMutability":"view"},{"type":"function","name":"renounceRole","inputs":[{"name":"role","type":"bytes32","internalType":"bytes32"},{"name":"callerConfirmation","type":"address","internalType":"address"}],"outputs":[],"stateMutability":"nonpayable"},{"type":"function","name":"revokeRole","inputs":[{"name":"role","type":"bytes32","internalType":"bytes32"},{"name":"account","type":"address","internalType":"address"}],"outputs":[],"stateMutability":"nonpayable"},{"type":"function","name":"supportsInterface","inputs":[{"name":"interfaceId","type":"bytes4","internalType":"bytes4"}],"outputs":[{"name":"","type":"bool","internalType":"bool"}],"stateMutability":"view"},{"type":"function","name":"symbol","inputs":[],"outputs":[{"name":"","type":"string","internalType":"string"}],"stateMutability":"view"},{"type":"function","name":"totalSupply","inputs":[],"outputs":[{"name":"","type":"uint256","internalType":"uint256"}],"stateMutability":"view"},{"type":"function","name":"transfer","inputs":[{"name":"to","type":"address","internalType":"address"},{"name":"value","type":"uint256","internalType":"uint256"}],"outputs":[{"name":"","type":"bool","internalType":"bool"}],"stateMutability":"nonpayable"},{"type":"function","name":"transferFrom","inputs":[{"name":"from","type":"address","internalType":"address"},{"name":"to","type":"address","internalType":"address"},{"name":"value","type":"uint256","internalType":"uint256"}],"outputs":[{"name":"","type":"bool","internalType":"bool"}],"stateMutability":"nonpayable"},{"type":"function","name":"unpause","inputs":[],"outputs":[],"stateMutability":"nonpayable"},{"type":"function","name":"upgradeToAndCall","inputs":[{"name":"newImplementation","type":"address","internalType":"address"},{"name":"data","type":"bytes","internalType":"bytes"}],"outputs":[],"stateMutability":"payable"},{"type":"event","name":"Approval","inputs":[{"name":"owner","type":"address","indexed":true,"internalType":"address"},{"name":"spender","type":"address","indexed":true,"internalType":"address"},{"name":"value","type":"uint256","indexed":false,"internalType":"uint256"}],"anonymous":false},{"type":"event","name":"DailyMintClaimed","inputs":[{"name":"player","type":"address","indexed":true,"internalType":"address"},{"name":"amount","type":"uint256","indexed":false,"internalType":"uint256"},{"name":"timestamp","type":"uint256","indexed":false,"internalType":"uint256"}],"anonymous":false},{"type":"event","name":"Initialized","inputs":[{"name":"version","type":"uint64","indexed":false,"internalType":"uint64"}],"anonymous":false},{"type":"event","name":"Paused","inputs":[{"name":"account","type":"address","indexed":false,"internalType":"address"}],"anonymous":false},{"type":"event","name":"PlayerRegistered","inputs":[{"name":"player","type":"address","indexed":true,"internalType":"address"},{"name":"amount","type":"uint256","indexed":false,"internalType":"uint256"}],"anonymous":false},{"type":"event","name":"RoleAdminChanged","inputs":[{"name":"role","type":"bytes32","indexed":true,"internalType":"bytes32"},{"name":"previousAdminRole","type":"bytes32","indexed":true,"internalType":"bytes32"},{"name":"newAdminRole","type":"bytes32","indexed":true,"internalType":"bytes32"}],"anonymous":false},{"type":"event","name":"RoleGranted","inputs":[{"name":"role","type":"bytes32","indexed":true,"internalType":"bytes32"},{"name":"account","type":"address","indexed":true,"internalType":"address"},{"name":"sender","type":"address","indexed":true,"internalType":"address"}],"anonymous":false},{"type":"event","name":"RoleRevoked","inputs":[{"name":"role","type":"bytes32","indexed":true,"internalType":"bytes32"},{"name":"account","type":"address","indexed":true,"internalType":"address"},{"name":"sender","type":"address","indexed":true,"internalType":"address"}],"anonymous":false},{"type":"event","name":"Transfer","inputs":[{"name":"from","type":"address","indexed":true,"internalType":"address"},{"name":"to","type":"address","indexed":true,"internalType":"address"},{"name":"value","type":"uint256","indexed":false,"internalType":"uint256"}],"anonymous":false},{"type":"event","name":"Unpaused","inputs":[{"name":"account","type":"address","indexed":false,"internalType":"address"}],"anonymous":false},{"type":"event","name":"Upgraded","inputs":[{"name":"implementation","type":"address","indexed":true,"internalType":"address"}],"anonymous":false},{"type":"event","name":"WaterConsumed","inputs":[{"name":"player","type":"address","indexed":true,"internalType":"address"},{"name":"amount","type":"uint256","indexed":false,"internalType":"uint256"}],"anonymous":false},{"type":"event","name":"WaterPurchased","inputs":[{"name":"player","type":"address","indexed":true,"internalType":"address"},{"name":"amount","type":"uint256","indexed":false,"internalType":"uint256"}],"anonymous":false},{"type":"error","name":"AccessControlBadConfirmation","inputs":[]},{"type":"error","name":"AccessControlUnauthorizedAccount","inputs":[{"name":"account","type":"address","internalType":"address"},{"name":"neededRole","type":"bytes32","internalType":"bytes32"}]},{"type":"error","name":"AddressEmptyCode","inputs":[{"name":"target","type":"address","internalType":"address"}]},{"type":"error","name":"ArrayLengthMismatch","inputs":[]},{"type":"error","name":"ERC1967InvalidImplementation","inputs":[{"name":"implementation","type":"address","internalType":"address"}]},{"type":"error","name":"ERC1967NonPayable","inputs":[]},{"type":"error","name":"ERC20InsufficientAllowance","inputs":[{"name":"spender","type":"address","internalType":"address"},{"name":"allowance","type":"uint256","internalType":"uint256"},{"name":"needed","type":"uint256","internalType":"uint256"}]},{"type":"error","name":"ERC20InsufficientBalance","inputs":[{"name":"sender","type":"address","internalType":"address"},{"name":"balance","type":"uint256","internalType":"uint256"},{"name":"needed","type":"uint256","internalType":"uint256"}]},{"type":"error","name":"ERC20InvalidApprover","inputs":[{"name":"approver","type":"address","internalType":"address"}]},{"type":"error","name":"ERC20InvalidReceiver","inputs":[{"name":"receiver","type":"address","internalType":"address"}]},{"type":"error","name":"ERC20InvalidSender","inputs":[{"name":"sender","type":"address","internalType":"address"}]},{"type":"error","name":"ERC20InvalidSpender","inputs":[{"name":"spender","type":"address","internalType":"address"}]},{"type":"error","name":"EmptyArray","inputs":[]},{"type":"error","name":"EnforcedPause","inputs":[]},{"type":"error","name":"ExpectedPause","inputs":[]},{"type":"error","name":"FailedCall","inputs":[]},{"type":"error","name":"InvalidInitialization","inputs":[]},{"type":"error","name":"NotInitializing","inputs":[]},{"type":"error","name":"UUPSUnauthorizedCallContext","inputs":[]},{"type":"error","name":"UUPSUnsupportedProxiableUUID","inputs":[{"name":"slot","type":"bytes32","internalType":"bytes32"}]},{"type":"error","name":"ZeroAddressNotAllowed","inputs":[]},{"type":"error","name":"ZeroAmountNotAllowed","inputs":[]}],"bytecode":{"object":"0x60a080604052346100cc57306080527ff0c57e16840df040f15088dc2f81fe391c3923bec73e23a9662efc9c229c6a009081549060ff8260401c166100bd57506001600160401b036002600160401b031982821601610078575b604051611e6890816100d18239608051818181610b8c0152610c710152f35b6001600160401b031990911681179091556040519081527fc7f505b2f371ae2175ee4913f4499e1f2633a7b5936321eed1cdaeb6115181d290602090a15f8080610059565b63f92ee8a960e01b8152600490fd5b5f80fdfe6080604090808252600480361015610015575f80fd5b5f3560e01c91826301ffc9a71461131e5750816306fdde0314611258578163095ea7b3146111b157816318160ddd14611174578163224b5c721461109e57816323b872dd14611062578163248a9ca31461102c5781632f2ff15d14611004578163313ce567146107d157816336568abe14610fc05781633f4ba83a14610f4b57816340c10f1914610eb357816342966c6814610e975781634bc02da614610e5d5781634f1ef28614610bf057816352d1902d14610b795781635c975abb14610b4a5781636857310714610a1057816370a08231146109cd57816379cc67901461099e5781638456cb591461093957816391d14854146108e957816395d89b41146107eb578163a217fddf146107d1578163a9059cbb146107a1578163ad3cb1cc14610761578163b93016401461073d578163be13197b1461073d578163c4d66de81461028f578163d539139314610255578163d547741f1461020d57508063dd62ed3e146101c85763e63ab1e91461018b575f80fd5b346101c4575f3660031901126101c457602090517f65d7a28e3265b37a6474929f336521b332c1681b933f6cb9f3376673440d862a8152f35b5f80fd5b50346101c457806003193601126101c4576020906101e46113b7565b6101f56101ef6113cd565b916114d6565b9060018060a01b03165f528252805f20549051908152f35b82346101c457806003193601126101c457610253913561024e60016102306113cd565b93835f525f80516020611df38339815191526020525f2001546115e2565b611bb9565b005b82346101c4575f3660031901126101c457602090517f9f2df0fed2c77648de5860a4cc508cd0818c85b8b8a1ab4ceeef8d981c8956a68152f35b82346101c457602090816003193601126101c4576102ab6113b7565b907ff0c57e16840df040f15088dc2f81fe391c3923bec73e23a9662efc9c229c6a009384549260ff84841c16159167ffffffffffffffff80861695861580610736575b6001809814908161072c575b159081610723575b506107135767ffffffffffffffff19811687178955846106f4575b506001600160a01b038316156106e5578451610338816113e3565b600a8152692bb0ba32b92a37b5b2b760b11b8882015285519261035a846113e3565b60058452642ba0aa22a960d91b89850152610373611ce0565b61037b611ce0565b81518381116106d2577f52c63247e1f47db19d5ce0460030c497f067ca4cebf71ba98eeadabe20bace0390806103b18354611466565b948c601f96878111610663575b50508c908683116001146105da575f926105cf575b50505f19600383901b1c1916908a1b1790555b83519283116105bc57507f52c63247e1f47db19d5ce0460030c497f067ca4cebf71ba98eeadabe20bace049261041c8454611466565b82811161055b575b50889183116001146104d85761048d949392915f91836104cd575b50505f19600383901b1c191690871b1790555b61045a611ce0565b610462611ce0565b61046a611ce0565b610473816118c6565b5061047d81611950565b50610487816119fd565b50611aa3565b5061049457005b7fc7f505b2f371ae2175ee4913f4499e1f2633a7b5936321eed1cdaeb6115181d29368ff000000000000000019815416905551908152a1005b015190508a8061043f565b9392918791601f19821690845f527f46a2803e59a4de4e7a4c574b1243f25977ac4c77d5a1a4a609b5394cebb4a2aa915f5b8c828210610545575050968361048d981061052d575b505050811b019055610452565b01515f1960f88460031b161c191690558a8080610520565b838a015185558c9690940193928301920161050a565b845f527f46a2803e59a4de4e7a4c574b1243f25977ac4c77d5a1a4a609b5394cebb4a2aa8380860160051c8201928c87106105b3575b0160051c019089905b8281106105a8575050610424565b5f815501899061059a565b92508192610591565b604190634e487b7160e01b5f525260245ffd5b015190508d806103d3565b8c9350908d91601f198416865f527f2ae08a8e29253f69ac5d979a101956ab8f8d9d7ded63fa7a83b16fc47648eab0935f905b828210610642575050841161062a575b505050811b0190556103e6565b01515f1960f88460031b161c191690558d808061061d565b91929395968291958786015181550195019301908f918f969594939261060d565b90919250845f52867f2ae08a8e29253f69ac5d979a101956ab8f8d9d7ded63fa7a83b16fc47648eab09181860160051c83019386106106c9575b918e91869594930160051c01915b8281106106bb57508e91506103be565b5f81558594508e91016106ab565b9250819261069d565b604182634e487b7160e01b5f525260245ffd5b5083516342bcdf7f60e11b8152fd5b68ffffffffffffffffff1916680100000000000000011788558861031d565b855163f92ee8a960e01b81528390fd5b9050158a610302565b303b1591506102fa565b50846102ee565b82346101c45760203660031901126101c45760209061075a6113b7565b50515f8152f35b82346101c4575f3660031901126101c457805161079d91610781826113e3565b60058252640352e302e360dc1b60208301525191829182611370565b0390f35b82346101c457806003193601126101c4576020906107ca6107c06113b7565b60243590336117ed565b5160018152f35b82346101c4575f3660031901126101c457602090515f8152f35b82346101c4575f3660031901126101c45780515f7f52c63247e1f47db19d5ce0460030c497f067ca4cebf71ba98eeadabe20bace0480549061082c82611466565b808552916020916001918281169081156108bc5750600114610864575b61079d868861085a82890383611413565b5191829182611370565b5f90815293507f46a2803e59a4de4e7a4c574b1243f25977ac4c77d5a1a4a609b5394cebb4a2aa5b8385106108a95750505050810160200161085a8261079d86610849565b805486860184015293820193810161088c565b905061079d9795508693506020925061085a94915060ff191682840152151560051b820101929486610849565b82346101c457806003193601126101c4576020916109056113cd565b90355f525f80516020611df38339815191528352815f209060018060a01b03165f52825260ff815f20541690519015158152f35b82346101c4575f3660031901126101c45760207f62e78cea01bee320cd4e420270b5ea74000d11b0c9f74754ebdbfc544b05a2589161097661150e565b61097e611610565b5f80516020611e13833981519152805460ff1916600117905551338152a1005b82346101c4573660031901126101c4576102536109b96113b7565b602435906109c8823383611725565b61163a565b82346101c45760203660031901126101c4576020906001600160a01b036109f26113b7565b165f525f80516020611dd38339815191528252805f20549051908152f35b82346101c457806003193601126101c45767ffffffffffffffff9082358281116101c457610a419036908501611435565b90926024359081116101c457610a5a9036908601611435565b9091610a64611587565b610a6c611610565b818103610b3a578015610b2a575f5b818110610a8457005b6001600160a01b0380610aa0610a9b84868b61149e565b6114c2565b1615610b1a5790600191610acd610abb610a9b84878c61149e565b610ac684888a61149e565b3590611c38565b7f96e208a25bafaa675d9c66689cdd5784de6a40ef5b91c0d971fbf564bbd2c9276020610afe610a9b85888d61149e565b92610b0a85898b61149e565b35938a519485521692a201610a7b565b85516342bcdf7f60e11b81528890fd5b835163521299a960e01b81528690fd5b835163512509d360e11b81528690fd5b82346101c4575f3660031901126101c45760209060ff5f80516020611e13833981519152541690519015158152f35b82346101c4575f3660031901126101c4577f00000000000000000000000000000000000000000000000000000000000000006001600160a01b03163003610be357602090517f360894a13ba1a3210667c828492db98dca3e2076cc3735a920a3ca505d382bbc8152f35b5163703e46dd60e11b8152fd5b9050816003193601126101c457610c056113b7565b602492833567ffffffffffffffff928382116101c457366023830112156101c45781850135938411610e4b57602093835192610c4a86601f19601f8501160185611413565b818452368883830101116101c457815f928988930183870137840101526001600160a01b037f00000000000000000000000000000000000000000000000000000000000000008116308114908115610e1d575b50610e0d575f80525f80516020611df38339815191528552835f20335f52855260ff845f20541615610df25783516352d1902d60e01b81529082169480828881895afa9182915f93610dc2575b5050610d04575050505191634c9c8ce360e01b8352820152fd5b85938591887f360894a13ba1a3210667c828492db98dca3e2076cc3735a920a3ca505d382bbc91828103610dad5750843b15610d99575080546001600160a01b0319168317905551907fbc7cd75a20ee27fd9adebab32041f755214dbc6bffa90cc0225b39da2e5c2d3b5f80a2825115610d8357506102539250611d21565b91505034610d8d57005b63b398979f60e01b8152fd5b8251634c9c8ce360e01b8152808801859052fd5b8351632a87526960e21b815280890191909152fd5b9080929350813d8311610deb575b610dda8183611413565b810103126101c45751905f80610cea565b503d610dd0565b835163e2517d3f60e01b815233818801525f81890152604490fd5b835163703e46dd60e11b81528690fd5b9050817f360894a13ba1a3210667c828492db98dca3e2076cc3735a920a3ca505d382bbc541614155f610c9d565b85604186634e487b7160e01b5f52525ffd5b82346101c4575f3660031901126101c457602090517f9d56108290ea0bc9c5c59c3ad357dca9d1b29ed7f3ae1443bef2fa2159bdf5e88152f35b346101c45760203660031901126101c45761025390353361163a565b82346101c457806003193601126101c457610ecc6113b7565b9060243591610ed9611587565b610ee1611610565b6001600160a01b038116938415610f3d578315610f2f575091602091610f28827f96e208a25bafaa675d9c66689cdd5784de6a40ef5b91c0d971fbf564bbd2c92795611c38565b51908152a2005b82516307a1cab560e11b8152fd5b82516342bcdf7f60e11b8152fd5b82346101c4575f3660031901126101c457610f6461150e565b5f80516020611e138339815191529182549060ff821615610fb2577f5db9ee0a495bf2e6ff9c91a7834c1ba4fdd244a5e8aa4e537bd38aeae4b073aa602084868560ff1916905551338152a1005b8251638dfc202b60e01b8152fd5b82346101c457806003193601126101c457610fd96113cd565b90336001600160a01b03831603610ff557506102539135611bb9565b5163334bd91960e11b81529050fd5b82346101c457806003193601126101c457610253913561102760016102306113cd565b611b49565b82346101c45760203660031901126101c457602091355f525f80516020611df383398151915282526001815f2001549051908152f35b82346101c45760603660031901126101c4576020906107ca6110826113b7565b61108a6113cd565b60443591611099833383611725565b6117ed565b82346101c457806003193601126101c4576110b76113b7565b90602435917f9d56108290ea0bc9c5c59c3ad357dca9d1b29ed7f3ae1443bef2fa2159bdf5e8805f525f80516020611df3833981519152602052825f20335f5260205260ff835f20541615611156575061110f611610565b6001600160a01b038116938415610f3d578315610f2f575091602091610f28827fb31836ae960f03d1415ce2f3a60a192a2551bf2c8a2d27b5270a356f2891dba29561163a565b825163e2517d3f60e01b815233818701526024810191909152604490fd5b82346101c4575f3660031901126101c4576020907f52c63247e1f47db19d5ce0460030c497f067ca4cebf71ba98eeadabe20bace02549051908152f35b82346101c457806003193601126101c4576111ca6113b7565b602435903315611242576001600160a01b031690811561122c57602093506111f1336114d6565b825f52845280835f205582519081527f8c5be1e5ebec7d5bd14f71427d1e84f3dd0314c0f7b2291e5b200ac8c7c3b925843392a35160018152f35b8251634a1406b160e11b81525f81860152602490fd5b825163e602df0560e01b81525f81860152602490fd5b82346101c4575f3660031901126101c45780515f7f52c63247e1f47db19d5ce0460030c497f067ca4cebf71ba98eeadabe20bace0380549061129982611466565b808552916020916001918281169081156108bc57506001146112c65761079d868861085a82890383611413565b5f90815293507f2ae08a8e29253f69ac5d979a101956ab8f8d9d7ded63fa7a83b16fc47648eab05b83851061130b5750505050810160200161085a8261079d86610849565b80548686018401529382019381016112ee565b90346101c45760203660031901126101c457359063ffffffff60e01b82168092036101c457602091637965db0b60e01b811490811561135f575b5015158152f35b6301ffc9a760e01b14905083611358565b602080825282518183018190529093925f5b8281106113a357505060409293505f838284010152601f8019910116010190565b818101860151848201604001528501611382565b600435906001600160a01b03821682036101c457565b602435906001600160a01b03821682036101c457565b6040810190811067ffffffffffffffff8211176113ff57604052565b634e487b7160e01b5f52604160045260245ffd5b90601f8019910116810190811067ffffffffffffffff8211176113ff57604052565b9181601f840112156101c45782359167ffffffffffffffff83116101c4576020808501948460051b0101116101c457565b90600182811c92168015611494575b602083101461148057565b634e487b7160e01b5f52602260045260245ffd5b91607f1691611475565b91908110156114ae5760051b0190565b634e487b7160e01b5f52603260045260245ffd5b356001600160a01b03811681036101c45790565b6001600160a01b03165f9081527f52c63247e1f47db19d5ce0460030c497f067ca4cebf71ba98eeadabe20bace016020526040902090565b335f9081527f75442b0a96088b5456bc4ed01394c96a4feec0f883c9494257d76b96ab1c9b6b60205260409020547f65d7a28e3265b37a6474929f336521b332c1681b933f6cb9f3376673440d862a9060ff16156115695750565b6044906040519063e2517d3f60e01b82523360048301526024820152fd5b335f9081527f549fe2656c81d2947b3b913f0a53b9ea86c71e049f3a1b8aa23c09a8a05cb8d460205260409020547f9f2df0fed2c77648de5860a4cc508cd0818c85b8b8a1ab4ceeef8d981c8956a69060ff16156115695750565b805f525f80516020611df383398151915260205260405f20335f5260205260ff60405f205416156115695750565b60ff5f80516020611e13833981519152541661162857565b60405163d93c066560e01b8152600490fd5b91906001600160a01b03831690811561170d57611655611610565b815f525f80516020611dd38339815191528060205260405f2054948286106116dc5750817fddf252ad1be2c89b69c2b068fc378daa952ba7f163c4a11628f55a4df523b3ef925f959660209386885284520360408620557f52c63247e1f47db19d5ce0460030c497f067ca4cebf71ba98eeadabe20bace02818154039055604051908152a3565b60405163391434e360e21b81526001600160a01b039190911660048201526024810186905260448101839052606490fd5b604051634b637e8f60e11b81525f6004820152602490fd5b61172e816114d6565b9060018060a01b0380841692835f5260205260405f2054935f198510611757575b505050505050565b8585106117bc57508116156117a457811561178c57611775906114d6565b905f526020520360405f20555f808080808061174f565b604051634a1406b160e11b81525f6004820152602490fd5b60405163e602df0560e01b81525f6004820152602490fd5b604051637dc7a0d960e11b81526001600160a01b039190911660048201526024810185905260448101869052606490fd5b916001600160a01b0380841692831561170d57169283156118ae57611810611610565b825f525f80516020611dd38339815191528060205260405f20549183831061187b575091806020927fddf252ad1be2c89b69c2b068fc378daa952ba7f163c4a11628f55a4df523b3ef94865f5284520360405f2055845f5260405f20818154019055604051908152a3565b60405163391434e360e21b81526001600160a01b0391909116600482015260248101929092525060448101829052606490fd5b60405163ec442f0560e01b81525f6004820152602490fd5b6001600160a01b03165f8181527fb7db2dd08fcb62d0c9e08c51941cae53c267786a0b75803fb7960902fc8ef97d60205260409020545f80516020611df38339815191529060ff1661194a575f805260205260405f20815f5260205260405f20600160ff1982541617905533905f5f80516020611db38339815191528180a4600190565b50505f90565b6001600160a01b03165f8181527f549fe2656c81d2947b3b913f0a53b9ea86c71e049f3a1b8aa23c09a8a05cb8d460205260409020547f9f2df0fed2c77648de5860a4cc508cd0818c85b8b8a1ab4ceeef8d981c8956a691905f80516020611df38339815191529060ff166119f657825f5260205260405f20815f5260205260405f20600160ff1982541617905533915f80516020611db38339815191525f80a4600190565b5050505f90565b6001600160a01b03165f8181527f71b79d43ec8bc1dbbb318023030ad879de68d7ea28b94c1acfdde06260c4600f60205260409020547f9d56108290ea0bc9c5c59c3ad357dca9d1b29ed7f3ae1443bef2fa2159bdf5e891905f80516020611df38339815191529060ff166119f657825f5260205260405f20815f5260205260405f20600160ff1982541617905533915f80516020611db38339815191525f80a4600190565b6001600160a01b03165f8181527f75442b0a96088b5456bc4ed01394c96a4feec0f883c9494257d76b96ab1c9b6b60205260409020547f65d7a28e3265b37a6474929f336521b332c1681b933f6cb9f3376673440d862a91905f80516020611df38339815191529060ff166119f657825f5260205260405f20815f5260205260405f20600160ff1982541617905533915f80516020611db38339815191525f80a4600190565b90815f525f80516020611df38339815191528060205260405f209160018060a01b031691825f5260205260ff60405f205416155f146119f657825f5260205260405f20815f5260205260405f20600160ff1982541617905533915f80516020611db38339815191525f80a4600190565b90815f525f80516020611df38339815191528060205260405f209160018060a01b031691825f5260205260ff60405f2054165f146119f657825f5260205260405f20815f5260205260405f2060ff19815416905533917ff6391f5c32d9c69d2a47ea670b442974b53935d1edc7fd64eb21e047a839171b5f80a4600190565b6001600160a01b03169081156118ae57611c50611610565b7f52c63247e1f47db19d5ce0460030c497f067ca4cebf71ba98eeadabe20bace02805490828201809211611ccc575f927fddf252ad1be2c89b69c2b068fc378daa952ba7f163c4a11628f55a4df523b3ef92602092558484525f80516020611dd3833981519152825260408420818154019055604051908152a3565b634e487b7160e01b5f52601160045260245ffd5b60ff7ff0c57e16840df040f15088dc2f81fe391c3923bec73e23a9662efc9c229c6a005460401c1615611d0f57565b604051631afcd79f60e31b8152600490fd5b905f8091602081519101845af48080611d9f575b15611d555750506040513d81523d5f602083013e60203d82010160405290565b15611d7c57604051639996b31560e01b81526001600160a01b039091166004820152602490fd5b3d15611d8d576040513d5f823e3d90fd5b60405163d6bda27560e01b8152600490fd5b503d151580611d355750813b1515611d3556fe2f8788117e7eff1d82e926ec794901d17c78024a50270940304540a733656f0d52c63247e1f47db19d5ce0460030c497f067ca4cebf71ba98eeadabe20bace0002dd7bc7dec4dceedda775e58dd541e08a116c6c53815c0bd028192f7b626800cd5ed15c6e187e77e9aee88184c21f4f2182ab5827cb3b7e07fbedcd63f03300a264697066735822122021ef4a546617d3febd58a891554061926ae8258e35e1ed46d7327f7872572a2364736f6c63430008180033","linkReferences":{}},"methodIdentifiers":{"CONSUMER_ROLE()":"4bc02da6","DEFAULT_ADMIN_ROLE()":"a217fddf","MINTER_ROLE()":"d5391393","PAUSER_ROLE()":"e63ab1e9","UPGRADE_INTERFACE_VERSION()":"ad3cb1cc","allowance(address,address)":"dd62ed3e","approve(address,uint256)":"095ea7b3","balanceOf(address)":"70a08231","batchMint(address[],uint256[])":"68573107","burn(uint256)":"42966c68","burnFrom(address,uint256)":"79cc6790","canMintDaily(address)":"b9301640","consume(address,uint256)":"224b5c72","decimals()":"313ce567","getRoleAdmin(bytes32)":"248a9ca3","grantRole(bytes32,address)":"2f2ff15d","hasRole(bytes32,address)":"91d14854","initialize(address)":"c4d66de8","lastMintTimestamp(address)":"be13197b","mint(address,uint256)":"40c10f19","name()":"06fdde03","pause()":"8456cb59","paused()":"5c975abb","proxiableUUID()":"52d1902d","renounceRole(bytes32,address)":"36568abe","revokeRole(bytes32,address)":"d547741f","supportsInterface(bytes4)":"01ffc9a7","symbol()":"95d89b41","totalSupply()":"18160ddd","transfer(address,uint256)":"a9059cbb","transferFrom(address,address,uint256)":"23b872dd","unpause()":"3f4ba83a","upgradeToAndCall(address,bytes)":"4f1ef286"},"id":91}